:04000000FEEFFFF020
:1026000000416E616C6F672072656164696E67730B
:1026100000204C3A2569322500503A253166325661
:1026200000002B50800B346E2B502B24366E2AAEBC
:102630001CEF13F01EEF13F01FEF13F0368036502F
:10264000D8B425EF13F027EF13F03CEF13F0362842
:10265000D8A42DEF13F02FEF13F037EF13F0000E87
:10266000286E000E296E000E2A6E000E2B6E2A8E2A
:10267000000E2B6E44EF13F0000E286E000E296E34
:10268000000E2A6E000E2B6E2F50800B356E3450CC
:102690003518D8B44EEF13F050EF13F051EF13F09C
:1026A000348C2F502F24356E2EAE59EF13F05BEF84
:1026B00013F05CEF13F035803550D8B462EF13F0AF
:1026C00064EF13F079EF13F03528D8A46AEF13F014
:1026D0006CEF13F074EF13F0000E2C6E000E2D6EE5
:1026E000000E2E6E000E2F6E2E8E000E2F6E81EFBE
:1026F00013F0000E2C6E000E2D6E000E2E6E000ECE
:102700002F6E3650355CD8B088EF13F08AEF13F097
:10271000B1EF13F034AC8FEF13F091EF13F093EFB0
:1027200013F0800E341A36C537F535C536F537C582
:1027300035F528C537F52CC528F537C52CF529C53D
:1027400037F52DC529F537C52DF52AC537F52EC521
:102750002AF537C52EF52BC537F52FC52BF537C50F
:102760002FF5000E376E365035C530F5316A305EC4
:10277000000E315A31BEC6EF13F0315009E11A0E86
:10278000305CD8A0C6EF13F0C8EF13F0FFEF13F0E2
:10279000285029102A102B10D8A4D1EF13F0D4EF11
:1027A00013F0010ED5EF13F0000E376E000E286EF9
:1027B000000E296E000E2A6E000E2B6E35C536F502
:1027C00008EF14F037A0E7EF13F0E9EF13F0EFEFA5
:1027D00013F0D89037300109376EF1EF13F0D8902D
:1027E000373228A0F6EF13F0F8EF13F0F9EF13F0FB
:1027F000378E2B342B322A3229322832362A355062
:10280000365CD8A006EF14F008EF14F0E2EF13F0F6
:1028100034BC0DEF14F00FEF14F04FEF14F03650FE
:10282000D8A415EF14F017EF14F021EF14F0000EF8
:10283000286E000E296E000E2A6E000E2B6E70EFB1
:1028400015F02C5028262D5029222E502A222F50A8
:102850002B222BA02EEF14F030EF14F0DCEF14F04D
:1028600037A035EF14F037EF14F03DEF14F0D890A7
:1028700037300109376E3FEF14F0D890373228A077
:1028800044EF14F046EF14F047EF14F0378E2B347A
:102890002B322A3229322832362ADCEF14F02C501F
:1028A000285C2D5029582E502A582B50800A306E03
:1028B0002F50800A3058D8B060EF14F062EF14F057
:1028C0008DEF14F028502C5C306E29502D58316E4D
:1028D0002A502E58326E2B502F58336EFF0E302454
:1028E000286EFF0E3120296EFF0E32202A6EFF0E59
:1028F00033202B6E800E341A376C3750D8A483EFF8
:1029000014F085EF14F095EF14F0010E2826000E58
:1029100029222A222B2295EF14F02C50285E2D50CC
:10292000295A2E502A5A2F502B5A285029102A1033
:102930002B10D8A49EEF14F0A0EF14F0D5EF14F0F4
:102940003750D8A4A6EF14F0A8EF14F0D5EF14F088
:10295000000E286E000E296E000E2A6E000E2B6EE1
:1029600070EF15F0D890283629362A362B3637AE38
:10297000BCEF14F0BEEF14F0BFEF14F0288037A0C6
:10298000C4EF14F0C6EF14F0CAEF14F0D880373655
:10299000CCEF14F0D89037363650D8B4D2EF14F0CC
:1029A000D4EF14F0D5EF14F036062AAEDAEF14F0B7
:1029B000DCEF14F0B2EF14F0000E356E37AEE3EF3B
:1029C00014F0E5EF14F0FDEF14F037C530F57F0E8D
:1029D0003016D8B4EEEF14F0F0EF14F0F4EF14F07A
:1029E000010E356EFDEF14F028A0F9EF14F0FBEFA7
:1029F00014F0FDEF14F0F0EF14F03550D8B403EFFD
:102A000015F005EF15F030EF15F0010E2826000E39
:102A100029222A222B222BA010EF15F012EF15F0FD
:102A200030EF15F028C530F529C531F52AC532F546
:102A30002BC533F53334333232323132303230C594
:102A400028F531C529F532C52AF533C52BF53628C9
:102A5000D8B42DEF15F02FEF15F030EF15F0362A22
:102A60003628D8B436EF15F038EF15F040EF15F0F2
:102A70003650D8A43EEF15F040EF15F052EF15F0A8
:102A8000000E286E000E296E000E2A6E000E2B6EB0
:102A90003650D8A44EEF15F050EF15F052EF15F068
:102AA000000E346E36A057EF15F059EF15F05CEFBD
:102AB00015F02A8E5DEF15F02A9ED89036302B6ED9
:102AC00034AE65EF15F067EF15F068EF15F02B8E5B
:102AD00028C528F529C529F52AC52AF52BC52BF5C2
:102AE00012004350800B4C6E43504324526E42AE52
:102AF0007CEF15F07EEF15F07FEF15F0528052500D
:102B0000D8B485EF15F087EF15F09AEF15F052283D
:102B1000D8A48DEF15F08FEF15F097EF15F0000E9C
:102B2000406E000E416E000E426E000E436E428EED
:102B3000A2EF15F0000E406E000E416E000E426EC8
:102B4000000E436E4750800B4C1A47504724516E7D
:102B500046AEADEF15F0AFEF15F0B0EF15F05180C8
:102B60005150D8B4B6EF15F0B8EF15F0CBEF15F023
:102B70005128D8A4BEEF15F0C0EF15F0C8EF15F03E
:102B8000000E446E000E456E000E466E000E476E3F
:102B9000468ED3EF15F0000E446E000E456E000E0B
:102BA000466E000E476E5150D8B4D9EF15F0DBEFEA
:102BB00015F0E3EF15F05250D8A4E1EF15F0E3EF74
:102BC00015F0EDEF15F0000E406E000E416E000E98
:102BD000426E000E436E85EF17F046504002F3C47C
:102BE00057F5F4C458F557504D6E4E6A4F6A506A07
:102BF0005850536E546A556A566A45504102F3C4A0
:102C000057F5F4C458F557504D26000E4E224F226A
:102C1000502258505326000E54225522562244501A
:102C20004202F3C457F5F4C458F557504D26000E30
:102C30004E224F22502258505326000E5422552225
:102C400056224FC550F54EC54FF54DC54EF54D6A50
:102C500044504102F3C457F5F4C458F557504D267B
:102C600058504E22000E4F22000E50224550400276
:102C7000F3C457F5F4C458F557504D2658504E221A
:102C8000000E4F22000E50224FC550F54EC54FF595
:102C90004DC54EF54D6A44504002F3C457F5F4C497
:102CA00058F557504D2658504E22000E4F22000E18
:102CB000502246504102F3C457F5F4C458F557501A
:102CC000532658505422000E5522000E56224550CD
:102CD0004202F3C457F5F4C458F5575053265850E0
:102CE0005422000E5522000E562246504202F3C4D2
:102CF00057F5F4C458F55750486E5850496E4A6A13
:102D00004B6A4AC54BF549C54AF548C549F5486A75
:102D100048505326495054224A5055224B5056226F
:102D20004DC548F54EC549F54FC54AF550C54BF55B
:102D3000190EA0EF16F0D8904B324A324932483281
:102D4000E82E9BEF16F048505326495054224A5023
:102D500055224B5056224FC550F54EC54FF54DC527
:102D60004EF54D6A515052C548F5496A4826000E45
:102D70004922820E4824576EFF0E4920586ED6EF26
:102D800016F0D890533654365536563650AECBEFF3
:102D900016F0CDEF16F0CEEF16F05380D8904D36EA
:102DA0004E364F3650365706D8A0580655AEDBEF94
:102DB00016F0DDEF16F0C1EF16F0000E516E50AEBA
:102DC000E4EF16F0E6EF16F00AEF17F0FF0E4D14E1
:102DD000486EFF0E4E14496EFF0E4F144A6E7F0E62
:102DE00050144B6E485049104A104B10D8B4FBEFAA
:102DF00016F0FDEF16F001EF17F0010E516E0AEF1D
:102E000017F053A006EF17F008EF17F00AEF17F0CE
:102E1000FDEF16F05150D8B410EF17F012EF17F085
:102E200036EF17F0010E5326000E5422552256227B
:102E300056A01DEF17F01FEF17F036EF17F053C530
:102E400048F554C549F555C54AF556C54BF54B34BB
:102E50004B324A324932483248C553F549C554F5D8
:102E60004AC555F54BC556F5574A582A58BE41EF45
:102E700017F0585008E15728D8A041EF17F043EF5A
:102E800017F04DEF17F0000E536E000E546E800ECB
:102E9000556E7F0E566E7BEF17F058BE5AEF17F047
:102EA000585006E15704D8B058EF17F05AEF17F012
:102EB00066EF17F0000E536E000E546E000E556E46
:102EC000000E566E000E4C6E7BEF17F057C552F594
:102ED000FF0E5316FF0E54167F0E5516000E561693
:102EE00052A075EF17F077EF17F078EF17F0558EC7
:102EF000D8905230566E4C50561253C540F554C5BA
:102F000041F555C542F556C543F512001250800BE8
:102F10001F6E12501224266E11AE91EF17F093EF30
:102F200017F094EF17F026802650D8B49AEF17F0D8
:102F30009CEF17F0B1EF17F02628D8A4A2EF17F0F6
:102F4000A4EF17F0ACEF17F0000E0F6E000E106E2E
:102F5000000E116E000E126E118E000E126EB9EF81
:102F600017F0000E0F6E000E106E000E116E000EA8
:102F7000126E1650800B1F1A16501624276E15AEAF
:102F8000C4EF17F0C6EF17F0C7EF17F027802750F0
:102F9000D8B4CDEF17F0CFEF17F0E4EF17F02728F4
:102FA000D8A4D5EF17F0D7EF17F0DFEF17F0000E2A
:102FB000136E000E146E000E156E000E166E158E3A
:102FC000000E166EECEF17F0000E136E000E146E6E
:102FD000000E156E000E166E1350141015101610FC
:102FE000D8A4F5EF17F0F7EF17F00FEF18F0000E79
:102FF0000F6E000E106E000E116E000E126E800E1F
:1030000011127F0E12121F5012120FC50FF510C5AC
:1030100010F511C511F512C512F552EF19F0265031
:10302000D8A415EF18F017EF18F021EF18F0000EE4
:103030000F6E000E106E000E116E000E126E52EF2B
:1030400019F0275026C517F5186A175E000E185A92
:103050007F0E1724206E000E1820216E0FC51BF561
:1030600010C51CF511C51DF512C51EF5000E0F6E1D
:10307000000E106E000E116E000E126E000E226E0B
:10308000000E236E000E246E000E256E000E276EBD
:1030900082EF18F02750D8B450EF18F052EF18F024
:1030A00069EF18F0D8901B361C361D361E36D890A6
:1030B0000F3610361136123625AE61EF18F063EF79
:1030C00018F064EF18F00F80D8902236233624369B
:1030D000253613501B5C14501C5815501D581650A3
:1030E0001E58D8A076EF18F078EF18F081EF18F09E
:1030F000258C13501B5E14501C5A15501D5A165027
:103100001E5A272A190E276488EF18F08AEF18F044
:103110004AEF18F01B501C101D101E10D8B493EF6E
:1031200018F095EF18F0ADEF18F02280ADEF18F021
:10313000D8900F3610361136123625AEA2EF18F0A1
:10314000A4EF18F0A5EF18F00F80D89022362336A0
:10315000243625362006D8A0210611AEB2EF18F08D
:10316000B4EF18F098EF18F0000E276E25AEBBEF05
:1031700018F0BDEF18F0E1EF18F0FF0E2214176EF3
:10318000FF0E2314186EFF0E2414196E7F0E2514E3
:103190001A6E1750181019101A10D8B4D2EF18F070
:1031A000D4EF18F0D8EF18F0010E276EE1EF18F009
:1031B0000FA0DDEF18F0DFEF18F0E1EF18F0D4EF1B
:1031C00018F02750D8B4E7EF18F0E9EF18F00DEF3A
:1031D00019F0010E0F26000E10221122122212A049
:1031E000F4EF18F0F6EF18F00DEF19F00FC517F522
:1031F00010C518F511C519F512C51AF51A341A3289
:1032000019321832173217C50FF518C510F519C540
:1032100011F51AC512F5204A212A21BE18EF19F01E
:10322000215008E12028D8A018EF19F01AEF19F062
:1032300025EF19F0000E216E2068000E0F6E000EB3
:10324000106E000E116E000E126E21BE32EF19F0DC
:10325000215006E12004D8B030EF19F032EF19F018
:1032600040EF19F0000E216E000E206E000E0F6E62
:10327000000E106E000E116E000E126E000E1F6E0C
:1032800020C526F526A047EF19F049EF19F04CEFBD
:1032900019F0118E4DEF19F0119ED8902630126E54
:1032A00003EF18F01200800E0501A76F050EA86F3E
:1032B00004EF1BF07EC5F6F47FC5F7F40800F55067
:1032C000250AD8B466EF19F068EF19F075EF19F018
:1032D0007EC5F6F47FC5F7F40800F55057EC20F0F2
:1032E00005017E4B7F2B04EF1BF0010E7E25846FC2
:1032F000000E7F21856F84C5F6F485C5F7F40800BC
:10330000F550730AD8A487EF19F089EF19F09EEFF2
:1033100019F0A7C5D9F4A8C5DAF4DEC412F5DDC4E6
:1033200013F515EC20F0020E0501A727000EA823C7
:10333000020E7E27000E7F2304EF1BF0010E7E2578
:10334000846F000E7F21856F84C5F6F485C5F7F480
:103350000800F550690AD8A4B0EF19F0B2EF19F0DF
:10336000DBEF19F0A7C5D9F4A8C5DAF4DEC408F577
:10337000DDC409F5020E7E25846F000E7F21856F66
:1033800084C5F6F485C5F7F40800F550D00F0A6E31
:1033900093EC20F008C512F509C513F515EC20F0E3
:1033A000020E0501A727000EA823030E7E27000E9C
:1033B0007F2304EF1BF0010E7E25846F000E7F211A
:1033C000856F84C5F6F485C5F7F40800F550630AE7
:1033D000D8A4EDEF19F0EFEF19F0FDEF19F0A7C544
:1033E000D9F4A8C5DAF4DF5057EC20F0020E05013D
:1033F000A727000EA82398EF19F0020E7E25846FF0
:10340000000E7F21856F84C5F6F485C5F7F40800AA
:10341000F550660AD8A40FEF1AF011EF1AF0FAEF80
:103420001AF021EE8BF1130EDE6AE806FDE2A7C565
:10343000D9F4A8C5DAF4DEC4A0F5DEC4A1F5DEC473
:10344000A2F5DEC4A3F5040EA727000EA823000EE4
:103450009F6F47EF1AF0A0C540F5A1C541F5A2C581
:1034600042F5A3C543F5000E446E000E456E200ED6
:10347000466E410E476E71EC15F040C5A0F541C592
:10348000A1F542C5A2F543C5A3F505019F2B030E87
:103490007E25846F000E7F21856F84C5F6F485C577
:1034A000F7F40800F5C486F5D00E8625876F886B83
:1034B000FF0E88239F51896F8A6B8751895D8851E0
:1034C0008A59D8A066EF1AF068EF1AF02BEF1AF0BD
:1034D000A0C576F5A1C577F5A2C578F5A3C579F5A0
:1034E000E0EC1DF076C5A4F577C5A5F5010E050144
:1034F0007E25846F000E7F21856F84C5F6F485C517
:10350000F7F40800F5C486F5030E7E25876F000EDC
:103510007F21886F87C5F6F488C5F7F40800F55059
:103520008625A00FA66FE6EF1AF0A6C584F5856B79
:1035300084BF8507010E7E25866F000E7F21876F71
:1035400086C5F6F487C5F7F40800F5C488F5D00EF3
:103550008825896F8A6BFF0E8A238451891907E1B8
:1035600085518A19D8A4B7EF1AF0B9EF1AF0C3EF52
:103570001AF08B0EA625D96EDA6A050EDA222E0E07
:10358000DF6EE4EF1AF08B0EA625D96EDA6A050E0F
:10359000DA22A4C501F5A5C502F5000E046E0A0ED7
:1035A000036EBDEC1FF00150300FDF6EA4C501F5B6
:1035B000A5C502F5000E046E0A0E036E5BEC1FF04B
:1035C00001C5A4F502C5A5F50501A607A6BFEDEF47
:1035D0001AF0EBEF1AF095EF1AF08B0E126E050E43
:1035E000136E15EC20F0040E05017E27000E7F23DC
:1035F00004EF1BF07EC5F6F47FC5F7F40800F55024
:1036000057EC20F070EF19F07EC5F6F47FC5F7F4A3
:103610000800F5500009D8A410EF1BF012EF1BF0C2
:103620005AEF19F012006AC501F56BC502F56CC5B9
:1036300003F56DC504F566C505F567C506F568C5EE
:1036400007F569C508F564EC1EF0D8B02AEF1BF049
:103650002CEF1BF0A6EF1BF06AC53CF56BC53DF5E2
:103660006CC53EF56DC53FF566C538F567C539F5DE
:1036700068C53AF569C53BF596EC21F038C544F5C7
:1036800039C545F53AC546F53BC547F505016451D1
:10369000625D596E655163595A6E59C501F55AC537
:1036A00002F5036A046A000E06EC1DF001C513F56D
:1036B00002C514F503C515F504C516F505016451D9
:1036C000605D5B6E655161595C6E5BC501F55CC503
:1036D00002F5036A046A000E06EC1DF001C50FF541
:1036E00002C510F503C511F504C512F586EC17F0F7
:1036F0000FC540F510C541F511C542F512C543F59A
:1037000071EC15F040C56EF541C56FF542C570F519
:1037100043C571F56EC528F56FC529F570C52AF545
:1037200071C52BF56AC52CF56BC52DF56CC52EF54D
:103730006DC52FF511EC13F028C560F529C561F5AD
:103740002AC562F52BC563F51EEF1CF066C53CF576
:1037500067C53DF568C53EF569C53FF56AC538F5ED
:103760006BC539F56CC53AF56DC53BF596EC21F0A6
:1037700038C544F539C545F53AC546F53BC547F565
:1037800005016451625D596E655163595A6E59C5A0
:1037900001F55AC502F5036A046A000E06EC1DF035
:1037A00001C513F502C514F503C515F504C516F5D5
:1037B00005016451605D5B6E655161595C6E5BC56E
:1037C00001F55CC502F5036A046A000E06EC1DF003
:1037D00001C50FF502C510F503C511F504C512F5B5
:1037E00086EC17F00FC540F510C541F511C542F53F
:1037F00012C543F571EC15F040C572F541C573F57E
:1038000042C574F543C575F56AC538F56BC539F51C
:103810006CC53AF56DC53BF572C53CF573C53DF514
:1038200074C53EF575C53FF596EC21F038C560F5D9
:1038300039C561F53AC562F53BC563F51200E6ECA2
:103840001EF0B9EC21F0010E126E260E136E15EC6F
:1038500020F0030ED7EC21F0040100B732EF1CF08A
:1038600037EF1CF00501A96BA92B39EF1CF00501FE
:10387000A96BA951016E026A036A046AC6B643EFD6
:103880001CF047EF1CF0AA6BAA2B49EF1CF00501B6
:10389000AA6BAA51056E066A076A086A030E096ECA
:1038A00073EC21F001C5B1F502C5B2F50501B151C6
:1038B000D7EC21F0B1C560F5B2C561F50F0E050179
:1038C000636F6269000E656F000E646F000E666FB5
:1038D000000E676FA00E686F400E696F000E6A6F72
:1038E000000E6B6F000E6C6F000E6D6F13EC1BF013
:1038F00060C5ABF561C5ACF562C5ADF563C5AEF5A8
:10390000400EE2EC21F00501B251D7EC21F0190E86
:1039100005017E6F260E7F6FABC580F5ACC581F5C6
:10392000ADC582F5AEC583F553EC19F0040100B9BD
:103930009CEF1CF0A1EF1CF00501A96BA92BA3EFD4
:103940001CF00501A96BA951016E026A036A046AA1
:10395000C6B8ADEF1CF0B1EF1CF0AA6BAA2BB3EF09
:103960001CF00501AA6BAA51056E066A076A086A6F
:10397000040E096E73EC21F001C5B3F502C5B4F570
:103980000501B351D7EC21F0000E05016A6F000E5E
:103990006B6FC80E6C6F420E6D6F000E666F000E7F
:1039A000676F000E686F000E696F000E656F000E86
:1039B000646F0F0E636F6269B3C560F5B4C561F5DE
:1039C00013EC1BF060C576F561C577F562C578F537
:1039D00063C579F5E0EC1DF076C5AFF577C5B0F5B8
:1039E000110E05017E6F260E7F6FAFC580F5B0C545
:1039F00081F553EC19F00501B451D7EC21F0FC0E20
:103A0000D7EC21F029EF1CF0FEEFFFF0096E095012
:103A1000D8B40DEF1DF00FEF1DF031EF1DF004BE17
:103A200016EF1DF014EF1DF031EF1DF001C505F587
:103A300002C506F503C507F504C508F5051E061EF3
:103A4000071E081E052A000E06220722082205C5A9
:103A50000BF506C50CF507C50DF508C50EF539EFD4
:103A60001DF001C50BF502C50CF503C50DF504C528
:103A70000EF50150021003100410D8A442EF1DF0FF
:103A800044EF1DF04EEF1DF0000E016E000E026EB1
:103A9000000E036E000E046EDFEF1DF0960E0A6E30
:103AA00058EF1DF00A2AD8900E320D320C320B322C
:103AB000000E0B14056E000E0C14066E000E0D1495
:103AC000076EFE0E0E14086E055006100710081043
:103AD000D8A46DEF1DF06FEF1DF052EF1DF07DEFDC
:103AE0001DF00A2A010E0B26000E0C220D220E22BA
:103AF000D8900E320D320C320B32000E0B14056EC4
:103B0000000E0C14066E000E0D14076EFF0E0E1440
:103B1000086E0550061007100810D8A492EF1DF08B
:103B200094EF1DF071EF1DF09CEF1DF00A06D89088
:103B30000B360C360D360E360DBEA1EF1DF0A3EF81
:103B40001DF0ABEF1DF0020E0A60A9EF1DF0ABEF08
:103B50001DF096EF1DF00AB0B0EF1DF0B2EF1DF0B2
:103B6000B3EF1DF00D9ED8900A320AC505F5066A1E
:103B7000076A086A05C508F5076A066A056A0550F6
:103B80000B1206500C1207500D1208500E1209505D
:103B9000D8B4CDEF1DF0CFEF1DF0D7EF1DF004BE70
:103BA000D6EF1DF0D4EF1DF0D7EF1DF00E8E0BC534
:103BB00001F50CC502F50DC503F50EC504F512009F
:103BC0000501783579355E6E5E50D8A4EAEF1DF0B8
:103BD000ECEF1DF0F6EF1DF0000E766F000E776F24
:103BE000000E786F000E796F63EF1EF076C57AF5E0
:103BF00077C57BF578C57CF579C57DF5200E06EF98
:103C00001EF0D8907D337C337B337A33E82E01EF7E
:103C10001EF07A515D6E788FFF0E7617FF0E7717C4
:103C2000FF0E7817000E7917960E5E5E5EBE1DEFD2
:103C30001EF01BEF1EF033EF1EF05E50800A970F50
:103C4000D8B025EF1EF027EF1EF029EF1EF0ECEFA5
:103C50001DF0D89079337833773376335E3E29EF91
:103C60001EF04BEF1EF01F0E5E6439EF1EF03BEFAF
:103C70001EF043EF1EF0ECEF1DF0D890763777374B
:103C8000783779375E065E50D8A449EF1EF04BEFC7
:103C90001EF03DEF1EF05D50D8B451EF1EF053EF13
:103CA0001EF05BEF1EF0791F781F771F766D000EF8
:103CB00077237823792376C576F577C577F578C5A8
:103CC00078F579C579F51200000E0114096E000E21
:103CD00002140A6E800E03140B6E7F0E04140C6E19
:103CE00009500A100B100C10D8A479EF1EF07BEFCE
:103CF0001EF083EF1EF0000E016E000E026E000E2D
:103D0000036E000E046E000E0514096E000E0614FC
:103D10000A6E800E07140B6E7F0E08140C6E09508D
:103D20000A100B100C10D8A498EF1EF09AEF1EF09A
:103D3000A2EF1EF0000E056E000E066E000E076E5E
:103D4000000E086E04AEA7EF1EF0A9EF1EF0B2EF52
:103D50001EF0016C021ED8B0022A031ED8B0032A3E
:103D6000800E045608AEB7EF1EF0B9EF1EF0C2EF9A
:103D70001EF0056C061ED8B0062A071ED8B0072A0A
:103D8000800E0856000E011A000E021A000E031AC9
:103D9000800E041A000E051A000E061A000E071AED
:103DA000800E081A0550015C06500258075003584F
:103DB00008500458D8B0DFEF1EF0E1EF1EF0E4EF3A
:103DC0001EF0D890E5EF1EF0D8801200050E046EAC
:103DD0000F0E036EF10EE82EFED7032EFCD7042E35
:103DE000FAD700F0000E0401186F000EC96E1969B1
:103DF000C18E050EE82EFED700F0C198C19A050EBF
:103E0000E82EFED700F0C150F00B0309C16EC18C43
:103E1000050EE82EFED700F0C19C680E036EE40E7E
:103E2000E82EFED7032EFCD700D0C150F00B0309BB
:103E3000C16EC18C050EE82EFED700F0C19C680E45
:103E4000036EE40EE82EFED7032EFCD700D0C1503F
:103E5000F00B0309C16EC18C050EE82EFED700F0F1
:103E6000C19C680E036EE40EE82EFED7032EFCD72D
:103E700000D0C150F00B0209C16EC18C050EE82EB6
:103E8000FED700F0C19C680E036EE40EE82EFED74C
:103E9000032EFCD700D0280E07EC21F0080E07EC0B
:103EA00021F00F0E07EC21F0010E07EC21F0060EB9
:103EB00007EC21F01200000E066E04BE64EF1FF046
:103EC00062EF1FF06AEF1FF0036C041ED8B0042AE3
:103ED000010E066E02BE71EF1FF06FEF1FF077EF5D
:103EE0001FF0016C021ED8B0022A010E061A000E45
:103EF000086E000E076E03500410D8B482EF1FF056
:103F000084EF1FF0ACEF1FF0010E056E8CEF1FF079
:103F1000D89003360436052A04AE91EF1FF093EFD4
:103F20001FF088EF1FF0D890073608360350015C69
:103F300004500258D8A09FEF1FF0A1EF1FF0A6EF8A
:103F40001FF00350015E0450025A0780D8900432DB
:103F50000332052E93EF1FF00650D8B4B2EF1FF0D6
:103F6000B4EF1FF0B8EF1FF0076C081ED8B0082A96
:103F700007C501F508C502F51200000E066E02BE67
:103F8000C6EF1FF0C4EF1FF0CCEF1FF0016C021E54
:103F9000D8B0022A010E066E04BED3EF1FF0D1EF97
:103FA0001FF0D7EF1FF0036C041ED8B0042A035093
:103FB0000410D8B4DEEF1FF0E0EF1FF004EF20F0A4
:103FC000010E056EE8EF1FF0D89003360436052A7F
:103FD00004AEEDEF1FF0EFEF1FF0E4EF1FF0035022
:103FE000015C04500258D8A0F8EF1FF0FAEF1FF060
:103FF000FEEF1FF00350015E0450025AD8900432C5
:104000000332052EEFEF1FF00650D8B40AEF20F070
:104010000CEF20F010EF20F0016C021ED8B0022A45
:1040200001C501F502C502F51200000E0401186F6A
:10403000000EC96E1969C18E050EE82EFED700F07C
:10404000C188C19A050EE82EFED700F03DEF20F0A2
:1040500012C5F6F413C5F7F4000EF86E250EF764DA
:1040600003D00800F55005D0F6C4E9F4F7C4EAF42B
:10407000EF5057EC20F0124A132A12C5F6F413C57C
:10408000F7F4000EF86E250EF76403D00800F55023
:1040900005D0F6C4E9F4F7C4EAF4EF500009D8A457
:1040A00054EF20F056EF20F028EF20F01200026EBF
:1040B000000E0401186F000EC96E1969C18E050E3D
:1040C000E82EFED700F0C188C19A02C501F5013A79
:1040D0000F0E0116C150F00B0110C16E050EE82E37
:1040E000FED700F0C18C050EE82EFED700F0C19C73
:1040F00002C501F50F0E0116C150F00B0110C16E83
:10410000050EE82EFED700F0C18C050EE82EFED776
:1041100000F0C19CB60E00D000D0E82EFCD700D035
:1041200000D000D0120021EE0BF1050EDE6AE80689
:10413000FDE20A04116E11BEA2EF20F0A0EF20F004
:10414000A4EF20F0C8EF20F00B0E1124D96EDA6A2C
:10415000050EDA2208C501F509C502F5000E046E48
:104160000A0E036E41EC21F00150300FDF6E08C5DE
:1041700001F509C502F5000E046E0A0E036ECDECC2
:1041800020F001C508F502C509F511069BEF20F0E6
:104190000B0E086E050E096E1200000E066E000E64
:1041A000056E03500410D8B4D8EF20F0DAEF20F0F9
:1041B00002EF21F0010E076EE2EF20F0D8900336F7
:1041C0000436072A04AEE7EF20F0E9EF20F0DEEF37
:1041D00020F0D890053606360350015C0450025892
:1041E000D8A0F5EF20F0F7EF20F0FCEF20F003501F
:1041F000015E0450025A0580D89004320332072E23
:10420000E9EF20F005C501F506C502F51200026EC2
:10421000000E0401186F000EC96E1969C18E050EDB
:10422000E82EFED700F0C19AC19802C501F5013A07
:104230000F0E01160F0E0116C150F00B0110C16ECA
:10424000C18C050EE82EFED700F0C19C050EE82EAD
:10425000FED700F002C501F50F0E0116C150F00B9C
:104260000110C16EC18C050EE82EFED700F0C19C76
:10427000B60E00D000D0E82EFCD700D000D000D081
:10428000120003500410D8B448EF21F04AEF21F097
:104290006EEF21F0010E056E52EF21F0D89003363B
:1042A0000436052A04AE57EF21F059EF21F04EEF06
:1042B00021F00350015C04500258D8A062EF21F0B5
:1042C00064EF21F068EF21F00350015E0450025AC0
:1042D000D89004320332052E59EF21F001C501F5C3
:1042E00002C502F512000301F351F30B0409F36F49
:1042F000F38909C5ECF3010E016E000E026E000E8B
:10430000036E000E046EF38FF381F3B18AEF21F098
:104310008CEF21F085EF21F0EB510B6E0A6AEA5128
:104320000A24016E000E0B20026E1200000E3C1AD1
:10433000000E3D1A000E3E1A800E3F1A38C528F5B1
:1043400039C529F53AC52AF53BC52BF53CC52CF5F1
:104350003DC52DF53EC52EF53FC52FF511EC13F0EB
:1043600028C538F529C539F52AC53AF52BC53BF5D9
:104370001200CB8004012891CB822893290E0201E0
:104380007A6F2C0E296F300EF76F800EF86FA00E2B
:10439000FA6F010EFB6F120001EEB5F11A0EEE6A14
:1043A000E806FDE1000EF86E00011FEF1CF0016E43
:1043B000BBA2DDEF21F0DFEF21F0D8EF21F001C546
:1043C000EFF21200036E0350800F07EC21F0120091
:020000040001F9
:04FFFC00CCEF21F035
:020000040020DA
:10000000FFFFFFFFFFFFFFFFFFFFFFFFFFFFFFFF00
:10001000FFFFFFFFFFFFFFFFFFFFFFFFFFFFFFFFF0
:10002000FFFFFFFFFFFFFFFFFFFFFFFFFFFFFFFFE0
:10003000FFFFFFFFFFFFFFFFFFFFFFFFFFFFFFFFD0
:020000040030CA
:08000000FFFFFFFFFFFFFFFF00
:01000900FFF7
:00000001FF
