:0400000081EF00F09C
:100008009C099C099C099C0940009C094000930993
:100018009C099C099C099C099C099C099C099C09B0
:100028009C094000400040009C099C099C099C09CF
:100038009C099C099C099C099C099C099C09990993
:100048009C099C099C099C09400040009C099C094A
:100058009C099C099C0940009C099C099C099C09D5
:100068009C099C099C099C099C099C099C099C0960
:100078009C099C099C099C0940009C099C099C09B5
:100088009C099C099C099C099C099C099C099C0940
:100098009C099C099C099C0940009C09400040005F
:1000A8009C099C099C099C099C099C099C099C0920
:1000B8009C099C099C099C099C099C099C099C0910
:1000C8009C099C099C099C099C099C099C099C0900
:1000D8009C099C099C099C099C099C099C099C09F0
:1000E80040009C099C099C094000400040004000D9
:0E00F8009C099C099C099C09FF0009EF13F06C
:10260000002569323A2569323A2569322025636D01
:102610000000720EF66E260EF76E000EF86E0900C0
:10262000F5C414F501EE01F10D0EEE6AE806FDE1C8
:102630000401080E5D6F000E5E6F000E5F6F000EEE
:10264000F86E260EF76E000135EF13F0D8C40EF5C4
:1026500004010E990F9903011A9F000E146E0EC506
:0E266000D8F41100B19E0D2A110081EF00F098
:0326700011000155
:020000040030CA
:0A0000008CFFEFFF9FFFFFFFFFFFE3
:00000001FF
