:04000000FEEFFFF020
:1026000000506F7420766F6C746167653A20002506
:072610003566302056000082
:102618002B50800B346E2B502B24366E2AAE17EFBE
:1026280013F019EF13F01AEF13F036803650D8B4C0
:1026380020EF13F022EF13F037EF13F03628D8A469
:1026480028EF13F02AEF13F032EF13F0000E286E84
:10265800000E296E000E2A6E000E2B6E2A8E000EBA
:102668002B6E3FEF13F0000E286E000E296E000E41
:102678002A6E000E2B6E2F50800B356E3450351895
:10268800D8B449EF13F04BEF13F04CEF13F0348C40
:102698002F502F24356E2EAE54EF13F056EF13F053
:1026A80057EF13F035803550D8B45DEF13F05FEF76
:1026B80013F074EF13F03528D8A465EF13F067EF23
:1026C80013F06FEF13F0000E2C6E000E2D6E000E3F
:1026D8002E6E000E2F6E2E8E000E2F6E7CEF13F0D6
:1026E800000E2C6E000E2D6E000E2E6E000E2F6E3C
:1026F8003650355CD8B083EF13F085EF13F0ACEFAC
:1027080013F034AC8AEF13F08CEF13F08EEF13F064
:10271800800E341A36C537F535C536F537C535F563
:1027280028C537F52CC528F537C52CF529C537F543
:102738002DC529F537C52DF52AC537F52EC52AF536
:1027480037C52EF52BC537F52FC52BF537C52FF512
:10275800000E376E365035C530F5316A305E000EE2
:10276800315A31BEC1EF13F0315009E11A0E305C15
:10277800D8A0C1EF13F0C3EF13F0FAEF13F028500D
:1027880029102A102B10D8A4CCEF13F0CFEF13F098
:10279800010ED0EF13F0000E376E000E286E000EFB
:1027A800296E000E2A6E000E2B6E35C536F503EF26
:1027B80014F037A0E2EF13F0E4EF13F0EAEF13F0B0
:1027C800D89037300109376EECEF13F0D8903732D4
:1027D80028A0F1EF13F0F3EF13F0F4EF13F0378EB6
:1027E8002B342B322A3229322832362A3550365C9D
:1027F800D8A001EF14F003EF14F0DDEF13F034BCB0
:1028080008EF14F00AEF14F04AEF14F03650D8A489
:1028180010EF14F012EF14F01CEF14F0000E286EF5
:10282800000E296E000E2A6E000E2B6E6BEF15F04F
:102838002C5028262D5029222E502A222F502B2268
:102848002BA029EF14F02BEF14F0D7EF14F037A0DA
:1028580030EF14F032EF14F038EF14F0D89037302E
:102868000109376E3AEF14F0D890373228A03FEFBD
:1028780014F041EF14F042EF14F0378E2B342B3262
:102888002A3229322832362AD7EF14F02C50285C05
:102898002D5029582E502A582B50800A306E2F5010
:1028A800800A3058D8B05BEF14F05DEF14F088EF71
:1028B80014F028502C5C306E29502D58316E2A5057
:1028C8002E58326E2B502F58336EFF0E3024286E40
:1028D800FF0E3120296EFF0E32202A6EFF0E3320A4
:1028E8002B6E800E341A376C3750D8A47EEF14F054
:1028F80080EF14F090EF14F0010E2826000E292224
:102908002A222B2290EF14F02C50285E2D50295AA1
:102918002E502A5A2F502B5A285029102A102B1083
:10292800D8A499EF14F09BEF14F0D0EF14F03750BF
:10293800D8A4A1EF14F0A3EF14F0D0EF14F0000E18
:10294800286E000E296E000E2A6E000E2B6E6BEF9D
:1029580015F0D890283629362A362B3637AEB7EFF9
:1029680014F0B9EF14F0BAEF14F0288037A0BFEFD5
:1029780014F0C1EF14F0C5EF14F0D8803736C7EF64
:1029880014F0D89037363650D8B4CDEF14F0CFEFD6
:1029980014F0D0EF14F036062AAED5EF14F0D7EFC6
:1029A80014F0ADEF14F0000E356E37AEDEEF14F014
:1029B800E0EF14F0F8EF14F037C530F57F0E30165D
:1029C800D8B4E9EF14F0EBEF14F0EFEF14F0010EC8
:1029D800356EF8EF14F028A0F4EF14F0F6EF14F0C9
:1029E800F8EF14F0EBEF14F03550D8B4FEEF14F014
:1029F80000EF15F02BEF15F0010E2826000E292206
:102A08002A222B222BA00BEF15F00DEF15F02BEF40
:102A180015F028C530F529C531F52AC532F52BC57D
:102A280033F53334333232323132303230C528F56F
:102A380031C529F532C52AF533C52BF53628D8B462
:102A480028EF15F02AEF15F02BEF15F0362A362867
:102A5800D8B431EF15F033EF15F03BEF15F03650E1
:102A6800D8A439EF15F03BEF15F04DEF15F0000E37
:102A7800286E000E296E000E2A6E000E2B6E365040
:102A8800D8A449EF15F04BEF15F04DEF15F0000EF7
:102A9800346E36A052EF15F054EF15F057EF15F0DD
:102AA8002A8E58EF15F02A9ED89036302B6E34AE09
:102AB80060EF15F062EF15F063EF15F02B8E28C567
:102AC80028F529C529F52AC52AF52BC52BF51200A5
:102AD8004350800B4C6E43504324526E42AE77EF06
:102AE80015F079EF15F07AEF15F052805250D8B4FE
:102AF80080EF15F082EF15F095EF15F05228D8A465
:102B080088EF15F08AEF15F092EF15F0000E406E81
:102B1800000E416E000E426E000E436E428E9DEF17
:102B280015F0000E406E000E416E000E426E000E53
:102B3800436E4750800B4C1A47504724516E46AE9F
:102B4800A8EF15F0AAEF15F0ABEF15F05180515032
:102B5800D8B4B1EF15F0B3EF15F0C6EF15F0512862
:102B6800D8A4B9EF15F0BBEF15F0C3EF15F0000EC0
:102B7800446E000E456E000E466E000E476E468E81
:102B8800CEEF15F0000E446E000E456E000E466E38
:102B9800000E476E5150D8B4D4EF15F0D6EF15F0AB
:102BA800DEEF15F05250D8A4DCEF15F0DEEF15F08B
:102BB800E8EF15F0000E406E000E416E000E426EFA
:102BC800000E436E80EF17F046504002F3C457F5ED
:102BD800F4C458F557504D6E4E6A4F6A506A5850B3
:102BE800536E546A556A566A45504102F3C457F504
:102BF800F4C458F557504D26000E4E224F2250224D
:102C080058505326000E5422552256224450420250
:102C1800F3C457F5F4C458F557504D26000E4E220C
:102C28004F22502258505326000E54225522562225
:102C38004FC550F54EC54FF54DC54EF54D6A44503C
:102C48004102F3C457F5F4C458F557504D2658506F
:102C58004E22000E4F22000E502245504002F3C46F
:102C680057F5F4C458F557504D2658504E22000ECB
:102C78004F22000E50224FC550F54EC54FF54DC599
:102C88004EF54D6A44504002F3C457F5F4C458F564
:102C980057504D2658504E22000E4F22000E5022FB
:102CA80046504102F3C457F5F4C458F5575053261B
:102CB80058505422000E5522000E5622455042020A
:102CC800F3C457F5F4C458F55750532658505422B6
:102CD800000E5522000E562246504202F3C457F504
:102CE800F4C458F55750486E5850496E4A6A4B6AB2
:102CF8004AC54BF549C54AF548C549F5486A48509B
:102D08005326495054224A5055224B5056224DC5FD
:102D180048F54EC549F54FC54AF550C54BF5190E4E
:102D28009BEF16F0D8904B324A3249324832E82E9F
:102D380096EF16F048505326495054224A505522CF
:102D48004B5056224FC550F54EC54FF54DC54EF563
:102D58004D6A515052C548F5496A4826000E492225
:102D6800820E4824576EFF0E4920586ED1EF16F098
:102D7800D890533654365536563650AEC6EF16F000
:102D8800C8EF16F0C9EF16F05380D8904D364E367E
:102D98004F3650365706D8A0580655AED6EF16F01F
:102DA800D8EF16F0BCEF16F0000E516E50AEDFEF04
:102DB80016F0E1EF16F005EF17F0FF0E4D14486E10
:102DC800FF0E4E14496EFF0E4F144A6E7F0E5014BC
:102DD8004B6E485049104A104B10D8B4F6EF16F015
:102DE800F8EF16F0FCEF16F0010E516E05EF17F034
:102DF80053A001EF17F003EF17F005EF17F0F8EF06
:102E080016F05150D8B40BEF17F00DEF17F031EF63
:102E180017F0010E5326000E54225522562256A0B2
:102E280018EF17F01AEF17F031EF17F053C548F500
:102E380054C549F555C54AF556C54BF54B344B3283
:102E48004A324932483248C553F549C554F54AC54E
:102E580055F54BC556F5574A582A58BE3CEF17F05A
:102E6800585008E15728D8A03CEF17F03EEF17F06C
:102E780048EF17F0000E536E000E546E800E556E1C
:102E88007F0E566E76EF17F058BE55EF17F0585074
:102E980006E15704D8B053EF17F055EF17F061EF7C
:102EA80017F0000E536E000E546E000E556E000E95
:102EB800566E000E4C6E76EF17F057C552F5FF0EA2
:102EC8005316FF0E54167F0E5516000E561652A0B6
:102ED80070EF17F072EF17F073EF17F0558ED89068
:102EE8005230566E4C50561253C540F554C541F5F4
:102EF80055C542F556C543F512001250800B1F6E9A
:102F080012501224266E11AE8CEF17F08EEF17F0C8
:102F18008FEF17F026802650D8B495EF17F097EF6B
:102F280017F0ACEF17F02628D8A49DEF17F09FEF05
:102F380017F0A7EF17F0000E0F6E000E106E000EC0
:102F4800116E000E126E118E000E126EB4EF17F095
:102F5800000E0F6E000E106E000E116E000E126E37
:102F68001650800B1F1A16501624276E15AEBFEF89
:102F780017F0C1EF17F0C2EF17F027802750D8B429
:102F8800C8EF17F0CAEF17F0DFEF17F02728D8A41B
:102F9800D0EF17F0D2EF17F0DAEF17F0000E136E3C
:102FA800000E146E000E156E000E166E158E000EB5
:102FB800166EE7EF17F0000E136E000E146E000E7B
:102FC800156E000E166E1350141015101610D8A496
:102FD800F0EF17F0F2EF17F00AEF18F0000E0F6E8F
:102FE800000E106E000E116E000E126E800E111281
:102FF8007F0E12121F5012120FC50FF510C510F5D3
:1030080011C511F512C512F54DEF19F02650D8A4C7
:1030180010EF18F012EF18F01CEF18F0000E0F6EFA
:10302800000E106E000E116E000E126E4DEF19F0AC
:10303800275026C517F5186A175E000E185A7F0E16
:103048001724206E000E1820216E0FC51BF510C521
:103058001CF511C51DF512C51EF5000E0F6E000EEC
:10306800106E000E116E000E126E000E226E000E13
:10307800236E000E246E000E256E000E276E7DEF67
:1030880018F02750D8B44BEF18F04DEF18F064EF54
:1030980018F0D8901B361C361D361E36D8900F36C1
:1030A80010361136123625AE5CEF18F05EEF18F0C8
:1030B8005FEF18F00F80D890223623362436253655
:1030C80013501B5C14501C5815501D5816501E5890
:1030D800D8A071EF18F073EF18F07CEF18F0258C7A
:1030E80013501B5E14501C5A15501D5A16501E5A68
:1030F800272A190E276483EF18F085EF18F045EF9B
:1031080018F01B501C101D101E10D8B48EEF18F0AC
:1031180090EF18F0A8EF18F02280A8EF18F0D890D8
:103128000F3610361136123625AE9DEF18F09FEF88
:1031380018F0A0EF18F00F80D890223623362436E6
:1031480025362006D8A0210611AEADEF18F0AFEF56
:1031580018F093EF18F0000E276E25AEB6EF18F0B2
:10316800B8EF18F0DCEF18F0FF0E2214176EFF0E00
:103178002314186EFF0E2414196E7F0E25141A6E70
:103188001750181019101A10D8B4CDEF18F0CFEF47
:1031980018F0D3EF18F0010E276EDCEF18F00FA02F
:1031A800D8EF18F0DAEF18F0DCEF18F0CFEF18F0DE
:1031B8002750D8B4E2EF18F0E4EF18F008EF19F050
:1031C800010E0F26000E10221122122212A0EFEF7C
:1031D80018F0F1EF18F008EF19F00FC517F510C542
:1031E80018F511C519F512C51AF51A341A3219321B
:1031F8001832173217C50FF518C510F519C511F58E
:103208001AC512F5204A212A21BE13EF19F02150C0
:1032180008E12028D8A013EF19F015EF19F020EFD6
:1032280019F0000E216E2068000E0F6E000E106E51
:10323800000E116E000E126E21BE2DEF19F02150F6
:1032480006E12004D8B02BEF19F02DEF19F03BEF71
:1032580019F0000E216E000E206E000E0F6E000E8B
:10326800106E000E116E000E126E000E1F6E20C53D
:1032780026F526A042EF19F044EF19F047EF19F0B0
:10328800118E48EF19F0119ED8902630126EFEEF7D
:1032980017F012005B0E0501836F050E846FFEEFB9
:1032A8001AF059C5F6F45AC5F7F40800F550250A7E
:1032B800D8B461EF19F063EF19F06FEF19F059C541
:1032C800F6F45AC5F7F40800F550A0EC1FF0594A77
:1032D8005A2AFEEF1AF0010E59240501606F000EFC
:1032E8005A20616F60C5F6F461C5F7F40800F5501F
:1032F800730AD8A482EF19F084EF19F099EF19F046
:1033080083C5D9F484C5DAF4DEC412F5DDC413F537
:10331800BCEC20F0020E05018327000E8423020E68
:103328005926000E5A22FEEF1AF0010E5924606F3A
:10333800000E5A20616F60C5F6F461C5F7F4080005
:10334800F550690AD8A4ABEF19F0ADEF19F0D6EF34
:1033580019F083C5D9F484C5DAF4DEC408F5DDC4F0
:1033680009F5020E5924606F000E5A20616F60C57E
:10337800F6F461C5F7F40800F550D00F0A6EDCECDE
:103388001FF008C512F509C513F5BCEC20F0020EB4
:1033980005018327000E8423030E5926000E5A22A6
:1033A800FEEF1AF0010E5924606F000E5A20616F6B
:1033B80060C5F6F461C5F7F40800F550630AD8A4AF
:1033C800E8EF19F0EAEF19F0F8EF19F083C5D9F42E
:1033D80084C5DAF4DF50A0EC1FF0020E0501832744
:1033E800000E842393EF19F0020E5924606F000E2B
:1033F8005A20616F60C5F6F461C5F7F40800F5500E
:10340800660AD8A40AEF1AF00CEF1AF0F4EF1AF0D3
:1034180021EE67F1130EDE6AE806FDE283C5D9F4F2
:1034280084C5DAF4DEC47CF5DEC47DF5DEC47EF541
:10343800DEC47FF5040E8327000E8423000E7B6F05
:1034480042EF1AF07CC540F57DC541F57EC542F5D1
:103458007FC543F5000E446E000E456E200E466E85
:10346800410E476E6CEC15F040C57CF541C57DF505
:1034780042C57EF543C57FF505017B2B030E592414
:10348800606F000E5A20616F60C5F6F461C5F7F4ED
:103498000800F5C462F5D00E6225636F646BFF0EF9
:1034A80064237B51656F666B6351655D6451665932
:1034B800D8A061EF1AF063EF1AF026EF1AF07CC576
:1034C80001F57DC502F57EC503F57FC504F5F3EC6E
:1034D8001CF001C580F502C581F5010E59240501CE
:1034E800606F000E5A20616F60C5F6F461C5F7F48D
:1034F8000800F5C462F5030E5924636F000E5A20C4
:10350800646F63C5F6F464C5F7F40800F5506225E6
:10351800A00F826FE1EF1AF082C560F5616B60BFA2
:103528006107010E5924626F000E5A20636F62C54D
:10353800F6F463C5F7F40800F5C464F5D00E642505
:10354800656F666BFF0E66236051651907E161516F
:103558006619D8A4B2EF1AF0B4EF1AF0BEEF1AF059
:10356800670E8225D96EDA6A050EDA222E0EDF6E14
:10357800DFEF1AF0670E8225D96EDA6A050EDA22B5
:1035880080C501F581C502F5000E046E0A0E036EB2
:1035980048EC1FF00150300FDF6E80C501F581C582
:1035A80002F5000E046E0A0E036EE6EC1EF001C56D
:1035B80080F502C581F50501820782BFE8EF1AF0A0
:1035C800E6EF1AF090EF1AF0670E126E050E136E02
:1035D800BCEC20F0040E5926000E5A22FEEF1AF019
:1035E80059C5F6F45AC5F7F40800F550A0EC1FF0D9
:1035F8006BEF19F059C5F6F45AC5F7F40800F55001
:103608000009D8A40AEF1BF00CEF1BF055EF19F0D6
:1036180012006AC501F56BC502F56CC503F56DC5E9
:1036280004F566C505F567C506F568C507F569C5F6
:1036380008F576EC1DF0D8B024EF1BF026EF1BF050
:10364800A0EF1BF06AC53CF56BC53DF56CC53EF5B2
:103658006DC53FF566C538F567C539F568C53AF5EE
:1036680069C53BF508EC21F038C544F539C545F581
:103678003AC546F53BC547F505016451625D596E8B
:10368800655163595A6E59C501F55AC502F5036A61
:10369800046A000E19EC1CF001C513F502C514F5F7
:1036A80003C515F504C516F505016451605D5B6E2B
:1036B800655161595C6E5BC501F55CC502F5036A2D
:1036C800046A000E19EC1CF001C50FF502C510F5CF
:1036D80003C511F504C512F581EC17F00FC540F5C7
:1036E80010C541F511C542F512C543F56CEC15F04E
:1036F80040C56EF541C56FF542C570F543C571F516
:103708006EC528F56FC529F570C52AF571C52BF565
:103718006AC52CF56BC52DF56CC52EF56DC52FF555
:103728000CEC13F028C560F529C561F52AC562F5CA
:103738002BC563F518EF1CF066C53CF567C53DF56C
:1037480068C53EF569C53FF56AC538F56BC539F5F5
:103758006CC53AF56DC53BF508EC21F038C544F564
:1037680039C545F53AC546F53BC547F505016451E8
:10377800625D596E655163595A6E59C501F55AC54E
:1037880002F5036A046A000E19EC1CF001C513F572
:1037980002C514F503C515F504C516F505016451F0
:1037A800605D5B6E655161595C6E5BC501F55CC51A
:1037B80002F5036A046A000E19EC1CF001C50FF546
:1037C80002C510F503C511F504C512F581EC17F013
:1037D8000FC540F510C541F511C542F512C543F5B1
:1037E8006CEC15F040C572F541C573F542C574F52A
:1037F80043C575F56AC538F56BC539F56CC53AF535
:103808006DC53BF572C53CF573C53DF574C53EF510
:1038180075C53FF508EC21F038C560F539C561F587
:103828003AC562F53BC563F51200096E0950D8B474
:1038380020EF1CF022EF1CF044EF1CF004BE29EF2F
:103848001CF027EF1CF044EF1CF001C505F502C57C
:1038580006F503C507F504C508F5051E061E071E6F
:10386800081E052A000E06220722082205C50BF5A8
:1038780006C50CF507C50DF508C50EF54CEF1CF08F
:1038880001C50BF502C50CF503C50DF504C50EF50C
:103898000150021003100410D8A455EF1CF057EF84
:1038A8001CF061EF1CF0000E016E000E026E000E9F
:1038B800036E000E046EF2EF1CF0960E0A6E6BEFAC
:1038C8001CF00A2AD8900E320D320C320B32000E40
:1038D8000B14056E000E0C14066E000E0D14076E08
:1038E800FE0E0E14086E0550061007100810D8A416
:1038F80080EF1CF082EF1CF065EF1CF090EF1CF0DD
:103908000A2A010E0B26000E0C220D220E22D89038
:103918000E320D320C320B32000E0B14056E000EF7
:103928000C14066E000E0D14076EFF0E0E14086EB2
:103938000550061007100810D8A4A5EF1CF0A7EF33
:103948001CF084EF1CF0AFEF1CF00A06D8900B3681
:103958000C360D360E360DBEB4EF1CF0B6EF1CF06B
:10396800BEEF1CF0020E0A60BCEF1CF0BEEF1CF0AC
:10397800A9EF1CF00AB0C3EF1CF0C5EF1CF0C6EFAE
:103988001CF00D9ED8900A320AC505F5066A076A2A
:10399800086A05C508F5076A066A056A05500B1224
:1039A80006500C1207500D1208500E120950D8B4C8
:1039B800E0EF1CF0E2EF1CF0EAEF1CF004BEE9EFC8
:1039C8001CF0E7EF1CF0EAEF1CF00E8E0BC501F5BA
:1039D8000CC502F50DC503F50EC504F51200033438
:1039E80004340A6E0A50D8A4FCEF1CF0FEEF1CF059
:1039F80008EF1DF0000E016E000E026E000E036E41
:103A0800000E046E75EF1DF001C505F502C506F53B
:103A180003C507F504C508F5200E18EF1DF0D8906A
:103A28000832073206320532E82E13EF1DF0055032
:103A3800096E038EFF0E0116FF0E0216FF0E031607
:103A4800000E0416960E0A5E0ABE2FEF1DF02DEF2B
:103A58001DF045EF1DF00A50800A970FD8B037EFD8
:103A68001DF039EF1DF03BEF1DF0FEEF1CF0D89074
:103A780004320332023201320A3E3BEF1DF05DEFA1
:103A88001DF01F0E0A644BEF1DF04DEF1DF055EFB2
:103A98001DF0FEEF1CF0D8900136023603360436CE
:103AA8000A060A50D8A45BEF1DF05DEF1DF04FEF3A
:103AB8001DF00950D8B463EF1DF065EF1DF06DEFF0
:103AC8001DF0041E031E021E016C000E02220322BA
:103AD800042201C501F502C502F503C503F504C5B5
:103AE80004F51200000E0114096E000E02140A6E8D
:103AF800800E03140B6E7F0E04140C6E09500A100E
:103B08000B100C10D8A48BEF1DF08DEF1DF095EF66
:103B18001DF0000E016E000E026E000E036E000E08
:103B2800046E000E0514096E000E06140A6E800E4F
:103B380007140B6E7F0E08140C6E09500A100B1038
:103B48000C10D8A4AAEF1DF0ACEF1DF0B4EF1DF0D7
:103B5800000E056E000E066E000E076E000E086E53
:103B680004AEB9EF1DF0BBEF1DF0C4EF1DF0016C02
:103B7800021ED8B0022A031ED8B0032A800E0456AB
:103B880008AEC9EF1DF0CBEF1DF0D4EF1DF0056CAA
:103B9800061ED8B0062A071ED8B0072A800E085677
:103BA800000E011A000E021A000E031A800E041AE3
:103BB800000E051A000E061A000E071A800E081AC3
:103BC8000550015C06500258075003580850045825
:103BD800D8B0F1EF1DF0F3EF1DF0F6EF1DF0D8901F
:103BE800F7EF1DF0D880120071EC1EF0020E50ECB9
:103BF80020F0040100B903EF1EF008EF1EF00501E4
:103C0800856B852B0AEF1EF00501856B8551016ECA
:103C1800026A036A046AC6B814EF1EF018EF1EF0B1
:103C2800866B862B1AEF1EF00501866B8651056E92
:103C3800066A076A086A040E096EE5EC20F001C5F9
:103C480060F502C561F50F0E0501636F6269000E2C
:103C5800656F000E646F000E666F000E676F000ED2
:103C6800686F000E696F000E6A6F000E6B6FC80EEA
:103C78006C6F420E6D6F0DEC1BF060C587F561C56A
:103C880088F562C589F563C58AF5010E596E260E59
:103C98005A6E4EEC19F0400E38EC21F00F0E596EAA
:103CA800260E5A6E87C55BF588C55CF589C55DF536
:103CB8008AC55EF54EEC19F0520E0501866F2B0E83
:103CC800856F000EE82EFED7852FFCD7862FFAD7F2
:103CD80000F0FAEF1DF0FEEFFFF0050E046E0F0E78
:103CE800036EF10EE82EFED7032EFCD7042EFAD76A
:103CF80000F0000E0401186F000EC96E1969C18E1C
:103D0800050EE82EFED700F0C198C19A050EE82EE0
:103D1800FED700F0C150F00B0309C16EC18C050E2F
:103D2800E82EFED700F0C19C680E036EE40EE82E64
:103D3800FED7032EFCD700D0C150F00B0309C16E8B
:103D4800C18C050EE82EFED700F0C19C680E036EEC
:103D5800E40EE82EFED7032EFCD700D0C150F00B9E
:103D68000309C16EC18C050EE82EFED700F0C19C78
:103D7800680E036EE40EE82EFED7032EFCD700D0A3
:103D8800C150F00B0209C16EC18C050EE82EFED79A
:103D980000F0C19C680E036EE40EE82EFED7032ED9
:103DA800FCD700D0280E50EC20F0080E50EC20F084
:103DB8000F0E50EC20F0010E50EC20F0060E50ECE7
:103DC80020F01200000E066E04BEEFEF1EF0EDEFBD
:103DD8001EF0F5EF1EF0036C041ED8B0042A010E85
:103DE800066E02BEFCEF1EF0FAEF1EF002EF1FF0A7
:103DF800016C021ED8B0022A010E061A000E086EC7
:103E0800000E076E03500410D8B40DEF1FF00FEF2B
:103E18001FF037EF1FF0010E056E17EF1FF0D89057
:103E280003360436052A04AE1CEF1FF01EEF1FF000
:103E380013EF1FF0D890073608360350015C045082
:103E48000258D8A02AEF1FF02CEF1FF031EF1FF017
:103E58000350015E0450025A0780D890043203329E
:103E6800052E1EEF1FF00650D8B43DEF1FF03FEFB0
:103E78001FF043EF1FF0076C081ED8B0082A07C5CB
:103E880001F508C502F51200000E066E02BE51EFDC
:103E98001FF04FEF1FF057EF1FF0016C021ED8B054
:103EA800022A010E066E04BE5EEF1FF05CEF1FF0E3
:103EB80062EF1FF0036C041ED8B0042A03500410EC
:103EC800D8B469EF1FF06BEF1FF08FEF1FF0010EF2
:103ED800056E73EF1FF0D89003360436052A04AE3A
:103EE80078EF1FF07AEF1FF06FEF1FF00350015CBF
:103EF80004500258D8A083EF1FF085EF1FF089EF18
:103F08001FF00350015E0450025AD8900432033265
:103F1800052E7AEF1FF00650D8B495EF1FF097EFF3
:103F28001FF09BEF1FF0016C021ED8B0022A01C5DA
:103F380001F502C502F51200026E000E0401186FA9
:103F4800000EC96E1969C18E050EE82EFED700F065
:103F5800C188C19A02C501F5013A0F0E0116C15078
:103F6800F00B0110C16E050EE82EFED700F0C18CD3
:103F7800050EE82EFED700F0C19C02C501F50F0E14
:103F88000116C150F00B0110C16E050EE82EFED7C8
:103F980000F0C18C050EE82EFED700F0C19C680E1B
:103FA800016EE40EE82EFED7012EFCD700D01200D9
:103FB80021EE0BF1050EDE6AE806FDE20A04116E39
:103FC80011BEEBEF1FF0E9EF1FF0EDEF1FF011EF5F
:103FD80020F00B0E1124D96EDA6A050EDA2208C514
:103FE80001F509C502F5000E046E0A0E036E8AEC8F
:103FF80020F00150300FDF6E08C501F509C502F544
:10400800000E046E0A0E036E16EC20F001C508F5CA
:1040180002C509F51106E4EF1FF00B0E086E050E38
:10402800096E1200000E066E000E056E0350041095
:10403800D8B421EF20F023EF20F04BEF20F0010E51
:10404800076E2BEF20F0D89003360436072A04AE0B
:1040580030EF20F032EF20F027EF20F0D89005362F
:1040680006360350015C04500258D8A03EEF20F0F9
:1040780040EF20F045EF20F00350015E0450025A53
:104088000580D89004320332072E32EF20F005C5A0
:1040980001F506C502F51200026E000E0401186F44
:1040A800000EC96E1969C18E050EE82EFED700F004
:1040B800C19AC19802C501F5013A0F0E01160F0EFB
:1040C8000116C150F00B0110C16EC18C050EE82E0F
:1040D800FED700F0C19C050EE82EFED700F002C501
:1040E80001F50F0E0116C150F00B0110C16EC18C05
:1040F800050EE82EFED700F0C19C680E016EE40E96
:10410800E82EFED7012EFCD700D012000350041071
:10411800D8B491EF20F093EF20F0B7EF20F0010E24
:10412800056E9BEF20F0D89003360436052A04AEBE
:10413800A0EF20F0A2EF20F097EF20F00350015CF1
:1041480004500258D8A0ABEF20F0ADEF20F0B1EF4B
:1041580020F00350015E0450025AD8900432033212
:10416800052EA2EF20F001C501F502C502F51200E7
:10417800000E0401186F000EC96E1969C18E050E74
:10418800E82EFED700F0C188C19A050EE82EFED7AA
:1041980000F0D8EF20F012C5D9F413C5DAF4DF50D7
:1041A800A0EC1FF0124A132A12C5D9F413C5DAF489
:1041B800DF50D8A4E2EF20F0E4EF20F0CFEF20F0BA
:1041C80012000301F351F30B0409F36FF38909C5D6
:1041D800ECF3010E016E000E026E000E036E000E6F
:1041E800046EF38FF381F3B1FCEF20F0FEEF20F0C3
:1041F800F7EF20F0EB510B6E0A6AEA510A24016EC0
:10420800000E0B20026E1200000E3C1A000E3D1A22
:10421800000E3E1A800E3F1A38C528F539C529F513
:104228003AC52AF53BC52BF53CC52CF53DC52DF502
:104238003EC52EF53FC52FF50CEC13F028C538F513
:1042480029C539F52AC53AF52BC53BF5120001EE0B
:104258008BF11A0EEE6AE806FDE1000EF86E260EE6
:10426800F76E0001F8EF1DF0036E0350800F50EC5D
:0442780020F0120020
:020000040001F9
:04FFFC002BEF21F0D6
:020000040020DA
:10000000FFFFFFFFFFFFFFFFFFFFFFFFFFFFFFFF00
:10001000FFFFFFFFFFFFFFFFFFFFFFFFFFFFFFFFF0
:10002000FFFFFFFFFFFFFFFFFFFFFFFFFFFFFFFFE0
:10003000FFFFFFFFFFFFFFFFFFFFFFFFFFFFFFFFD0
:020000040030CA
:080000008FFFFFFF9FFFFFFFD0
:01000900FFF7
:00000001FF
