:0400000081EF00F09C
:1000080040004000400040004000400040000D0B10
:1000180040004000400040004000400040004000D8
:1000280040004000400040004000400040004000C8
:1000380040004000400040004000400040004000B8
:1000480040004000400040004000400040004000A8
:100058004000400040004000400040004000400098
:100068004000400040004000400040004000400088
:100078004000400040004000400040004000400078
:100088004000400040004000400040004000400068
:100098004000400040004000400040004000400058
:1000A8004000400040004000400040004000400048
:1000B8004000400040004000400040004000400038
:1000C8004000400040004000400040004000400028
:1000D8004000400040004000400040004000400018
:1000E8004000400040004000400040004000400008
:0E00F8004000400040004000FF00FCEF15F00B
:10260000002569323A2569323A2569322025636D01
:10261000002569340000170E1B6E050E1C6ECAEFF4
:1026200013F015C5F6F416C5F7F40800F550250AA1
:10263000D8A41DEF13F01FEF13F047EF13F0010EB6
:102640001524196E000E16201A6E19C5F6F41AC557
:10265000F7F40800F550730AD8A431EF13F033EF04
:1026600013F047EF13F01BC5D9F41CC5DAF4DEC430
:1026700013F5DDC414F5B0EC15F0020E1B26000EA8
:102680001C22020E1526000E1622CAEF13F015C5E5
:10269000F6F416C5F7F40800F550250AD8A453EF50
:1026A00013F055EF13F091EF13F0010E1524196E8E
:1026B000000E16201A6E19C5F6F41AC5F7F40800B4
:1026C000F550690AD8A467EF13F069EF13F091EFA2
:1026D00013F01BC5D9F41CC5DAF4DEC409F5DDC45A
:1026E0000AF5020E1524196E000E16201A6E19C571
:1026F000F6F41AC5F7F40800F550D00F0B6ED0ECC5
:1027000014F009C513F50AC514F5B0EC15F0020E66
:102710001B26000E1C22030E1526000E1622CAEFE1
:1027200013F015C5F6F416C5F7F40800F550250AA0
:10273000D8A49DEF13F09FEF13F0C0EF13F0010E3C
:102740001524196E000E16201A6E19C5F6F41AC556
:10275000F7F40800F550630AD8A4B1EF13F0B3EF13
:1027600013F0C0EF13F01BC5D9F41CC5DAF4DF5029
:1027700094EC14F0020E1B26000E1C2241EF13F005
:1027800015C5F6F416C5F7F40800F55094EC14F0EE
:10279000154A162A15C5F6F416C5F7F40800F550C3
:1027A0000009D8A4D6EF13F0D8EF13F011EF13F00F
:1027B0001200050E056E0F0E046EF10EE82EFED708
:1027C000042EFCD7052EFAD700F0000E0401186F76
:1027D000000EC96E1969C18E050EE82EFED700F0F5
:1027E000C198C19A050EE82EFED700F0C150F00B3B
:1027F0000309C16EC18C050EE82EFED700F0C19C06
:10280000680E046EE40EE82EFED7042EFCD700D02E
:10281000C150F00B0309C16EC18C050EE82EFED726
:1028200000F0C19C680E046EE40EE82EFED7042E64
:10283000FCD700D0C150F00B0309C16EC18C050E4E
:10284000E82EFED700F0C19C680E046EE40EE82E60
:10285000FED7042EFCD700D0C150F00B0209C16E88
:10286000C18C050EE82EFED700F0C19C680E046EE8
:10287000E40EE82EFED7042EFCD700D0280E44EC40
:1028800015F0080E44EC15F00F0E44EC15F0010E97
:1028900044EC15F0060E44EC15F01200D9EC13F0E0
:1028A000040100B756EF14F05AEF14F01D6A1D2A08
:1028B0005BEF14F01D6A1D50026E036A046A056A1C
:1028C000C6B665EF14F069EF14F01E6A1E2A6AEFAF
:1028D00014F01E6A1E50066E076A086A096A030E23
:1028E0000A6ED9EC15F002C51FF503C520F5020EDE
:1028F00044EC15F0110E156E260E166E1FC517F559
:1029000020C518F50BEC13F0520E1E6E2B0E1D6E2B
:10291000000EE82EFED71D2EFCD71E2EFAD700D0B3
:1029200050EF14F081EF00F0036E000E0401186FF9
:10293000000EC96E1969C18E050EE82EFED700F093
:10294000C188C19A03C502F5023A0F0E0216C150A2
:10295000F00B0210C16E050EE82EFED700F0C18C00
:10296000050EE82EFED700F0C19C03C502F50F0E40
:102970000216C150F00B0210C16E050EE82EFED7F4
:1029800000F0C18C050EE82EFED700F0C19C680E49
:10299000026EE40EE82EFED7022EFCD700D0120005
:1029A00021EE0CF1050EDE6AE806FDE20B04126E64
:1029B00012BEDFEF14F0DDEF14F0E1EF14F005EFDD
:1029C00015F00C0E1224D96EDA6A050EDA2209C54A
:1029D00002F50AC503F5000E056E0A0E046E7EECC4
:1029E00015F00250300FDF6E09C502F50AC503F578
:1029F000000E056E0A0E046E0AEC15F002C509F50C
:102A000003C50AF51206D8EF14F00C0E096E050E78
:102A10000A6E1200000E076E000E066E04500510BE
:102A2000D8B415EF15F017EF15F03FEF15F0010EC4
:102A3000086E1FEF15F0D89004360536082A05AE4B
:102A400024EF15F026EF15F01BEF15F0D8900636A1
:102A500007360450025C05500358D8A032EF15F039
:102A600034EF15F039EF15F00450025E0550035AAB
:102A70000680D89005320432082E26EF15F006C5E0
:102A800002F507C503F51200036E000E0401186F6E
:102A9000000EC96E1969C18E050EE82EFED700F032
:102AA000C19AC19803C502F5023A0F0E02160F0E25
:102AB0000216C150F00B0210C16EC18C050EE82E3B
:102AC000FED700F0C19C050EE82EFED700F003C52E
:102AD00002F50F0E0216C150F00B0210C16EC18C30
:102AE000050EE82EFED700F0C19C680E026EE40EC3
:102AF000E82EFED7022EFCD700D01200045005109D
:102B0000D8B485EF15F087EF15F0ABEF15F0010E97
:102B1000066E8FEF15F0D89004360536062A05AEFE
:102B200094EF15F096EF15F08BEF15F00450025C62
:102B300005500358D8A09FEF15F0A1EF15F0A5EFB1
:102B400015F00450025E0550035AD8900532043245
:102B5000062E96EF15F002C502F503C503F5120027
:102B6000000E0401186F000EC96E1969C18E050EA2
:102B7000E82EFED700F0C188C19A050EE82EFED7D8
:102B800000F0CCEF15F013C5D9F414C5DAF4DF501A
:102B900094EC14F0134A142A13C5D9F414C5DAF4CA
:102BA000DF50D8A4D6EF15F0D8EF15F0C3EF15F02D
:102BB00012000301F351F30B0409F36FF3890AC503
:102BC000ECF3010E026E000E036E000E046E000E9A
:102BD000056EF38FF381F3B1F0EF15F0F2EF15F01E
:102BE000EBEF15F0EB510C6E0B6AEA510B24026E01
:102BF000000E0C20036E12004C0EF66E2C0EF76EBB
:102C0000000EF86E0900F5C430F501EE21F10F0E4B
:102C1000EE6AE806FDE10401080E5D6F000E5E6FCE
:102C2000000E5F6F000EF86E260EF76E00014EEF7D
:022C300014F09E
:102C3400D8C401F504010E990F9903011A9F000EDF
:092C4400306E01C5D8F411000145
:020000040020DA
:10000000FFFFFFFFFFFFFFFFFFFFFFFFFFFFFFFF00
:10001000FFFFFFFFFFFFFFFFFFFFFFFFFFFFFFFFF0
:10002000FFFFFFFFFFFFFFFFFFFFFFFFFFFFFFFFE0
:10003000FFFFFFFFFFFFFFFFFFFFFFFFFFFFFFFFD0
:020000040030CA
:080000008CFFEFFF9FFFFFFFE3
:01000900FFF7
:00000001FF
