:0400000081EF00F09C
:100008009412941294129412400094124000881290
:1000180094129412941294129412941294129412A8
:1000280094124000400040009412941294129412CA
:10003800941294129412941294129412941292128A
:100048009412941294129412400040009412941244
:1000580094129412941240009412941294129412CE
:100068009412941294129412941294129412941258
:1000780094129412941294124000941294129412AE
:100088009412941294129412941294129412941238
:10009800941294129412941240009412400040005A
:1000A8009412941294129412941294129412941218
:1000B8009412941294129412941294129412941208
:1000C80094129412941294129412941294129412F8
:1000D80094129412941294129412941294129412E8
:1000E80040009412941294124000400040004000D6
:0E00F8009412941294129412FF0076EF24F0EA
:10260000002569323A2569323A2569322025636D01
:1026100000503A253166325620004C3A2569332560
:1026200000000C0E0501CE6F000ECF6F000ED06FB4
:10263000610ED16F21EEE2F111EEB9F10B0EDBC4A8
:10264000E3F4E806FCE202EC22F0010E0501EE6F75
:10265000F2EC24F015EF14F0000E6A6F000E6B6FB1
:10266000C80E6C6F420E6D6F000E666F000E676FC6
:10267000000E686F000E696F000E656F000E646FCC
:102680000A0E636F280E626F040E0A6EC6B84BEF17
:1026900013F04FEF13F0B76BB72B51EF13F00501A9
:1026A000B76BB751066E076A086A096A040100B978
:1026B0005CEF13F061EF13F00501B86BB82B63EF1B
:1026C00013F00501B86BB851026E036A046A056A1B
:1026D0009CEC24F002C560F503C561F5B0EC1DF07B
:1026E00060C576F561C577F562C578F563C579F59E
:1026F000FCEC20F005017651CB6F15EF14F00401CE
:1027000000B785EF13F08AEF13F00501B76BB72B15
:102710008CEF13F00501B76BB751026E036A046AC0
:10272000056AC6B696EF13F09AEF13F0B86BB82BA4
:102730009CEF13F00501B86BB851066E076A086A82
:10274000096A030E0A6E9CEC24F002C560F503C50D
:1027500061F50F0E0501636F6269000E656F000E73
:10276000646F000E666F000E676FA00E686F400EFC
:10277000696F000E6A6F000E6B6F000E6C6F000EBB
:102780006D6FB0EC1DF060C5C5F561C5C6F562C5DD
:10279000C7F563C5C8F515EF14F0400E1DEC25F024
:1027A000110E0501806F260E816FC5C582F5C6C565
:1027B00083F5C7C584F5C8C585F509EC1AF015EF92
:1027C00014F0490E1DEC25F01A0E0501806F260E3F
:1027D000816FCBC582F5836B09EC1AF015EF14F00D
:1027E000CE0EAF6F050EB06F96EC1FF015EF14F024
:1027F000F551B76FB86BB851000AD8B402EF14F0B6
:10280000F0EF13F0B7510A0AD8B42CEF13F01E0AF8
:10281000D8B47FEF13F00A0AD8B4CDEF13F0360A1C
:10282000D8B4E1EF13F0F0EF13F00501EE51D8A4A6
:102830001CEF14F01EEF14F0F8EF13F0020EE1ECB1
:1028400023F0000E0501CC6F87EF15F056EC20F059
:102850000501CD6F62EF15F0CC2BCC511DEC25F0AE
:1028600087EF15F0CC51D8B438EF14F03AEF14F0EC
:1028700087EF15F0CC07CC511DEC25F087EF15F054
:102880000C0ECE6F000ECF6F000ED06F610ED16FA9
:10289000010EEE6F87EF15F0010EEE6F87EF15F06A
:1028A000610ED119D8B457EF14F059EF14F05FEF5F
:1028B00014F0000ECA6F610EC96F63EF14F0000EC2
:1028C000CA6F700EC96FC9C5D1F5090E1DEC25F090
:1028D0000501D15131EC23F00501CC511DEC25F05F
:1028E00087EF15F0CCC502F5036A000E056E030EE6
:1028F000046ED9EC22F002500310D8A482EF14F039
:1029000084EF14F096EF14F0CEC502F5036A000EC2
:10291000056E0A0E046ED9EC22F00501CD510A0DA8
:10292000F3500224200FCE6FA5EF14F0CEC502F5B0
:10293000036A000E056E0A0E046ED9EC22F00250F6
:102940000501CE5FCD51D00FCE27FF0ECE25026EF2
:10295000036AFF0E0322000E056E0C0E046ED9EC06
:1029600022F002280501CE6FCD5131EC23F0050194
:10297000CC2B87EF15F0CCC502F5036A000E056E6F
:10298000030E046ED9EC22F002500310D8A4CBEF52
:1029900014F0CDEF14F0DFEF14F0CFC502F5036AA9
:1029A000000E056E0A0E046ED9EC22F00501CD5121
:1029B0000A0DF3500224200FCF6FEEEF14F0CFC5B5
:1029C00002F5036A000E056E0A0E046ED9EC22F0C1
:1029D00002500501CF5FCD51D00FCF27CFC502F5F3
:1029E000036A000E056E3C0E046ED9EC22F0025014
:1029F0000501CF6FCD5131EC23F0B7EF14F0CCC50A
:102A000002F5036A000E056E030E046ED9EC22F087
:102A100002500310D8A40FEF15F011EF15F023EFBB
:102A200015F0D0C502F5036A000E056E0A0E046E9D
:102A3000D9EC22F00501CD510A0DF3500224200FEC
:102A4000D06F32EF15F0D0C502F5036A000E056EA7
:102A50000A0E046ED9EC22F002500501D05FCD5170
:102A6000D00FD027D0C502F5036A000E056E3C0ECC
:102A7000046ED9EC22F002500501D06FCD5131EC3B
:102A800023F0B7EF14F0B90ECC25D96EDA6A050E33
:102A9000DA22DF50B76FB86BB851000AD8B453EFE1
:102AA00015F087EF15F0B751480AD8B472EF14F05B
:102AB000050AD8B4BBEF14F01E0AD8B4FFEF14F027
:102AC00087EF15F0CD51B76FB86BB851000AD8B485
:102AD0006CEF15F043EF15F0B751230AD8B487EF28
:102AE00015F0090AD8B450EF14F06B0AD8B42CEFE3
:102AF00014F0030AD8B432EF14F0010AD8B440EF4E
:102B000014F0070AD8B44CEF14F043EF15F00501A8
:102B1000EE51D8B48EEF15F090EF15F026EF14F0CB
:102B200028EF13F081EF00F02C50800B356E2C5005
:102B30002C24376E2BAE9FEF15F0A1EF15F0A2EF0E
:102B400015F037803750D8B4A8EF15F0AAEF15F07C
:102B5000BFEF15F03728D8A4B0EF15F0B2EF15F09D
:102B6000BAEF15F0000E296E000E2A6E000E2B6EC5
:102B7000000E2C6E2B8E000E2C6EC7EF15F0000E83
:102B8000296E000E2A6E000E2B6E000E2C6E305039
:102B9000800B366E35503618D8B4D1EF15F0D3EF20
:102BA00015F0D4EF15F0358C30503024366E2FAE42
:102BB000DCEF15F0DEEF15F0DFEF15F03680365064
:102BC000D8B4E5EF15F0E7EF15F0FCEF15F0362877
:102BD000D8A4EDEF15F0EFEF15F0F7EF15F0000EBC
:102BE0002D6E000E2E6E000E2F6E000E306E2F8E8C
:102BF000000E306E04EF16F0000E2D6E000E2E6EDD
:102C0000000E2F6E000E306E3750365CD8B00BEFD2
:102C100016F00DEF16F034EF16F035AC12EF16F09B
:102C200014EF16F016EF16F0800E351A37C538F58A
:102C300036C537F538C536F529C538F52DC529F51A
:102C400038C52DF52AC538F52EC52AF538C52EF517
:102C50002BC538F52FC52BF538C52FF52CC538F504
:102C600030C52CF538C530F5000E386E375036C5F6
:102C700031F5326A315E000E325A32BE49EF16F03B
:102C8000325009E11A0E315CD8A049EF16F04BEF33
:102C900016F082EF16F029502A102B102C10D8A411
:102CA00054EF16F057EF16F0010E58EF16F0000E25
:102CB000386E000E296E000E2A6E000E2B6E000E6E
:102CC0002C6E36C537F58BEF16F038A06AEF16F08C
:102CD0006CEF16F072EF16F0D89038300109386EAC
:102CE00074EF16F0D890383229A079EF16F07BEF08
:102CF00016F07CEF16F0388E2C342C322B322A3220
:102D00002932372A3650375CD8A089EF16F08BEF7E
:102D100016F065EF16F035BC90EF16F092EF16F056
:102D2000D2EF16F03750D8A498EF16F09AEF16F0BD
:102D3000A4EF16F0000E296E000E2A6E000E2B6E08
:102D4000000E2C6EF3EF17F02D5029262E502A225C
:102D50002F502B2230502C222CA0B1EF16F0B3EFC5
:102D600016F05FEF17F038A0B8EF16F0BAEF16F0D4
:102D7000C0EF16F0D89038300109386EC2EF16F067
:102D8000D890383229A0C7EF16F0C9EF16F0CAEF75
:102D900016F0388E2C342C322B322A322932372A34
:102DA0005FEF17F02D50295C2E502A582F502B58CA
:102DB0002C50800A316E3050800A3158D8B0E3EF81
:102DC00016F0E5EF16F010EF17F029502D5C316E7C
:102DD0002A502E58326E2B502F58336E2C503058AC
:102DE000346EFF0E3124296EFF0E32202A6EFF0E44
:102DF00033202B6EFF0E34202C6E800E351A386C6B
:102E00003850D8A406EF17F008EF17F018EF17F0B6
:102E1000010E2926000E2A222B222C2218EF17F051
:102E20002D50295E2E502A5A2F502B5A30502C5A92
:102E300029502A102B102C10D8A421EF17F023EFC3
:102E400017F058EF17F03850D8A429EF17F02BEFF0
:102E500017F058EF17F0000E296E000E2A6E000EC4
:102E60002B6E000E2C6EF3EF17F0D89029362A3611
:102E70002B362C3638AE3FEF17F041EF17F042EF0C
:102E800017F0298038A047EF17F049EF17F04DEF02
:102E900017F0D88038364FEF17F0D89038363750C3
:102EA000D8B455EF17F057EF17F058EF17F0370673
:102EB0002BAE5DEF17F05FEF17F035EF17F0000E58
:102EC000366E38AE66EF17F068EF17F080EF17F048
:102ED00038C531F57F0E3116D8B471EF17F073EFA6
:102EE00017F077EF17F0010E366E80EF17F029A07C
:102EF0007CEF17F07EEF17F080EF17F073EF17F00D
:102F00003650D8B486EF17F088EF17F0B3EF17F00C
:102F1000010E2926000E2A222B222C222CA093EF10
:102F200017F095EF17F0B3EF17F029C531F52AC563
:102F300032F52BC533F52CC534F534343432333205
:102F40003232313231C529F532C52AF533C52BF578
:102F500034C52CF53728D8B4B0EF17F0B2EF17F01E
:102F6000B3EF17F0372A3728D8B4B9EF17F0BBEF13
:102F700017F0C3EF17F03750D8A4C1EF17F0C3EF25
:102F800017F0D5EF17F0000E296E000E2A6E000E16
:102F90002B6E000E2C6E3750D8A4D1EF17F0D3EF64
:102FA00017F0D5EF17F0000E356E37A0DAEF17F0F7
:102FB000DCEF17F0DFEF17F02B8EE0EF17F02B9E12
:102FC000D89037302C6E35AEE8EF17F0EAEF17F0F7
:102FD000EBEF17F02C8E29C529F52AC52AF52BC54C
:102FE0002BF52CC52CF512004450800B4D6E44502F
:102FF0004424536E43AEFFEF17F001EF18F002EFD9
:1030000018F053805350D8B408EF18F00AEF18F0B6
:103010001DEF18F05328D8A410EF18F012EF18F095
:103020001AEF18F0000E416E000E426E000E436E55
:10303000000E446E438E25EF18F0000E416E000E18
:10304000426E000E436E000E446E4850800B4D1AC7
:1030500048504824526E47AE30EF18F032EF18F067
:1030600033EF18F052805250D8B439EF18F03BEFDC
:1030700018F04EEF18F05228D8A441EF18F043EFA3
:1030800018F04BEF18F0000E456E000E466E000E65
:10309000476E000E486E478E56EF18F0000E456ED4
:1030A000000E466E000E476E000E486E5250D8B4A9
:1030B0005CEF18F05EEF18F066EF18F05350D8A4EC
:1030C00064EF18F066EF18F070EF18F0000E416E24
:1030D000000E426E000E436E000E446E08EF1AF0B2
:1030E00047504102F3C458F5F4C459F558504E6E98
:1030F0004F6A506A516A5950546E556A566A576AF7
:1031000046504202F3C458F5F4C459F558504E26BF
:10311000000E4F225022512259505426000E5522A3
:103120005622572245504302F3C458F5F4C459F5CA
:1031300058504E26000E4F225022512259505426EC
:10314000000E55225622572250C551F54FC550F555
:103150004EC54FF54E6A45504202F3C458F5F4C4CB
:1031600059F558504E2659504F22000E5022000E4D
:10317000512246504102F3C458F5F4C459F5585051
:103180004E2659504F22000E5022000E512250C59B
:1031900051F54FC550F54EC54FF54E6A45504102A9
:1031A000F3C458F5F4C459F558504E2659504F22DF
:1031B000000E5022000E512247504202F3C458F52F
:1031C000F4C459F55850542659505522000E562231
:1031D000000E572246504302F3C458F5F4C459F583
:1031E0005850542659505522000E5622000E572290
:1031F00047504302F3C458F5F4C459F55850496E8A
:1032000059504A6E4B6A4C6A4BC54CF54AC54BF552
:1032100049C54AF5496A495054264A5055224B50EF
:1032200056224C5057224EC549F54FC54AF550C558
:103230004BF551C54CF5190E23EF19F0D8904C32CF
:103240004B324A324932E82E1EEF19F049505426CB
:103250004A5055224B5056224C50572250C551F5DA
:103260004FC550F54EC54FF54E6A525053C549F5FE
:103270004A6A4926000E4A22820E4924586EFF0EE1
:103280004A20596E59EF19F0D890543655365636B3
:10329000573651AE4EEF19F050EF19F051EF19F0CB
:1032A0005480D8904E364F36503651365806D8A0F6
:1032B000590656AE5EEF19F060EF19F044EF19F0C1
:1032C000000E526E51AE67EF19F069EF19F08DEFF5
:1032D00019F0FF0E4E14496EFF0E4F144A6EFF0E8A
:1032E00050144B6E7F0E51144C6E49504A104B10C7
:1032F0004C10D8B47EEF19F080EF19F084EF19F07C
:10330000010E526E8DEF19F054A089EF19F08BEF7A
:1033100019F08DEF19F080EF19F05250D8B493EFF7
:1033200019F095EF19F0B9EF19F0010E5426000EBF
:1033300055225622572257A0A0EF19F0A2EF19F0FC
:10334000B9EF19F054C549F555C54AF556C54BF5C1
:1033500057C54CF54C344C324B324A32493249C590
:1033600054F54AC555F54BC556F54CC557F5584A61
:10337000592A59BEC4EF19F0595008E15828D8A06D
:10338000C4EF19F0C6EF19F0D0EF19F0000E546E2B
:10339000000E556E800E566E7F0E576EFEEF19F0C2
:1033A00059BEDDEF19F0595006E15804D8B0DBEFF3
:1033B00019F0DDEF19F0E9EF19F0000E546E000E70
:1033C000556E000E566E000E576E000E4D6EFEEFDF
:1033D00019F058C553F5FF0E5416FF0E55167F0E03
:1033E0005616000E571653A0F8EF19F0FAEF19F021
:1033F000FBEF19F0568ED8905330576E4D50571240
:1034000054C541F555C542F556C543F557C544F574
:103410001200820E0501AD6F050EAE6FD2EF1BF0EC
:1034200080C5F6F481C5F7F4000EF86E0800F5507B
:10343000250AD8B41EEF1AF020EF1AF02FEF1AF079
:1034400080C5F6F481C5F7F4000EF86E0800F5505B
:1034500031EC23F00501804B812BD2EF1BF0010EE4
:1034600080258A6F000E81218B6F8AC5F6F48BC58B
:10347000F7F4000EF86E0800F550730AD8A443EF75
:103480001AF045EF1AF05AEF1AF0ADC5D9F4AEC5EF
:10349000DAF4DEC413F5DDC414F54DEC24F0020EAD
:1034A0000501AD27000EAE23020E8027000E8123FA
:1034B000D2EF1BF0010E80258A6F000E81218B6FE9
:1034C0008AC5F6F48BC5F7F4000EF86E0800F550C7
:1034D000690AD8A46EEF1AF070EF1AF09BEF1AF099
:1034E000ADC5D9F4AEC5DAF4DEC409F5DDC40AF51C
:1034F000020E80258A6F000E81218B6F8AC5F6F43B
:103500008BC5F7F4000EF86E0800F550D00F0B6E67
:103510006DEC23F009C513F50AC514F54DEC24F044
:10352000020E0501AD27000EAE23030E8027000E0C
:103530008123D2EF1BF0010E80258A6F000E8121BE
:103540008B6F8AC5F6F48BC5F7F4000EF86E080091
:10355000F550630AD8A4AFEF1AF0B1EF1AF0BFEF3D
:103560001AF0ADC5D9F4AEC5DAF4DF5031EC23F072
:10357000020E0501AD27000EAE2354EF1AF0020E25
:1035800080258A6F000E81218B6F8AC5F6F48BC56A
:10359000F7F4000EF86E0800F550660AD8A4D3EFD1
:1035A0001AF0D5EF1AF0C6EF1BF021EE91F1130ED1
:1035B000DE6AE806FDE2ADC5D9F4AEC5DAF4DEC4D4
:1035C000A6F5DEC4A7F5DEC4A8F5DEC4A9F5040E91
:1035D000AD27000EAE23000EA56F0BEF1BF0A6C5A6
:1035E00041F5A7C542F5A8C543F5A9C544F5000EA8
:1035F000456E000E466E200E476E410E486EF4EC8E
:1036000017F041C5A6F542C5A7F543C5A8F544C5C1
:10361000A9F50501A52B030E80258A6F000E8121D7
:103620008B6F8AC5F6F48BC5F7F4000EF86E0800B0
:10363000F5C48CF5D00E8C258D6F8E6BFF0E8E230E
:10364000A5518F6F906B8D518F5D8E519059D8A081
:103650002CEF1BF02EEF1BF0EFEF1AF0A6C576F55E
:10366000A7C577F5A8C578F5A9C579F5FCEC20F0D4
:1036700076C5AAF577C5ABF5010E050180258A6FE1
:10368000000E81218B6F8AC5F6F48BC5F7F4000E0E
:10369000F86E0800F5C48CF5030E80258D6F000EC2
:1036A00081218E6F8DC5F6F48EC5F7F4000EF86E8D
:1036B0000800F5508C25A00FAC6FB2EF1BF0ACC525
:1036C0008AF58B6B8ABF8B07010E80258C6F000EED
:1036D00081218D6F8CC5F6F48DC5F7F4000EF86E60
:1036E0000800F5C48EF5D00E8E258F6F906BFF0EFF
:1036F00090238A518F1907E18B519019D8A483EF39
:103700001BF085EF1BF08FEF1BF0910EAC25D96EEF
:10371000DA6A050EDA222E0EDF6EB0EF1BF0910E84
:10372000AC25D96EDA6A050EDA22AAC502F5ABC558
:1037300003F5000E056E0A0E046ED9EC22F002505D
:10374000300FDF6EAAC502F5ABC503F5000E056E9E
:103750000A0E046E77EC22F002C5AAF503C5ABF59C
:103760000501AC07ACBFB9EF1BF0B7EF1BF05FEF83
:103770001BF0910E136E050E146E4DEC24F0040E2A
:1037800005018027000E8123D2EF1BF080C5F6F4DF
:1037900081C5F7F4000EF86E0800F55031EC23F007
:1037A0002AEF1AF080C5F6F481C5F7F4000EF86E22
:1037B0000800F5500009D8A4E0EF1BF0E2EF1BF081
:1037C00010EF1AF012001350800B206E13501324C8
:1037D000276E12AEEEEF1BF0F0EF1BF0F1EF1BF0D7
:1037E00027802750D8B4F7EF1BF0F9EF1BF00EEF4E
:1037F0001CF02728D8A4FFEF1BF001EF1CF009EF05
:103800001CF0000E106E000E116E000E126E000EF7
:10381000136E128E000E136E16EF1CF0000E106E5B
:10382000000E116E000E126E000E136E1750800BFC
:10383000201A17501724286E16AE21EF1CF023EF24
:103840001CF024EF1CF028802850D8B42AEF1CF07C
:103850002CEF1CF041EF1CF02828D8A432EF1CF00C
:1038600034EF1CF03CEF1CF0000E146E000E156ED1
:10387000000E166E000E176E168E000E176E49EFB4
:103880001CF0000E146E000E156E000E166E000E6B
:10389000176E1450151016101710D8A452EF1CF004
:1038A00054EF1CF06CEF1CF0000E106E000E116E49
:1038B000000E126E000E136E800E12127F0E131287
:1038C0002050131210C510F511C511F512C512F5CF
:1038D00013C513F5AFEF1DF02750D8A472EF1CF0FD
:1038E00074EF1CF07EEF1CF0000E106E000E116ED7
:1038F000000E126E000E136EAFEF1DF0285027C59C
:1039000018F5196A185E000E195A7F0E1824216ED8
:10391000000E1920226E10C51CF511C51DF512C52B
:103920001EF513C51FF5000E106E000E116E000E71
:10393000126E000E136E000E236E000E246E000E2B
:10394000256E000E266E000E286EDFEF1CF028504C
:10395000D8B4ADEF1CF0AFEF1CF0C6EF1CF0D89060
:103960001C361D361E361F36D890103611361236CC
:10397000133626AEBEEF1CF0C0EF1CF0C1EF1CF0FA
:103980001080D890233624362536263614501C5CF9
:1039900015501D5816501E5817501F58D8A0D3EF59
:1039A0001CF0D5EF1CF0DEEF1CF0268C14501C5ED2
:1039B00015501D5A16501E5A17501F5A282A190EF4
:1039C0002864E5EF1CF0E7EF1CF0A7EF1CF01C509B
:1039D0001D101E101F10D8B4F0EF1CF0F2EF1CF0F9
:1039E0000AEF1DF023800AEF1DF0D8901036113633
:1039F0001236133626AEFFEF1CF001EF1DF002EF7A
:103A00001DF01080D8902336243625362636210620
:103A1000D8A0220612AE0FEF1DF011EF1DF0F5EF4A
:103A20001CF0000E286E26AE18EF1DF01AEF1DF0E8
:103A30003EEF1DF0FF0E2314186EFF0E2414196EB6
:103A4000FF0E25141A6E7F0E26141B6E18501910C7
:103A50001A101B10D8B42FEF1DF031EF1DF035EF09
:103A60001DF0010E286E3EEF1DF010A03AEF1DF084
:103A70003CEF1DF03EEF1DF031EF1DF02850D8B4A3
:103A800044EF1DF046EF1DF06AEF1DF0010E102609
:103A9000000E11221222132213A051EF1DF053EF3A
:103AA0001DF06AEF1DF010C518F511C519F512C506
:103AB0001AF513C51BF51B341B321A321932183292
:103AC00018C510F519C511F51AC512F51BC513F562
:103AD000214A222A22BE75EF1DF0225008E121283A
:103AE000D8A075EF1DF077EF1DF082EF1DF0000EEE
:103AF000226E2168000E106E000E116E000E126E06
:103B0000000E136E22BE8FEF1DF0225006E121043D
:103B1000D8B08DEF1DF08FEF1DF09DEF1DF0000E62
:103B2000226E000E216E000E106E000E116E000E41
:103B3000126E000E136E000E206E21C527F527A011
:103B4000A4EF1DF0A6EF1DF0A9EF1DF0128EAAEF55
:103B50001DF0129ED8902730136E60EF1CF01200FB
:103B60006AC502F56BC503F56CC504F56DC505F5B1
:103B700066C506F567C507F568C508F569C509F5A1
:103B800080EC21F0D8B0C7EF1DF0C9EF1DF043EF76
:103B90001EF06AC53DF56BC53EF56CC53FF56DC5BC
:103BA00040F566C539F567C53AF568C53BF569C5A1
:103BB0003CF5BFEC24F039C545F53AC546F53BC5A3
:103BC00047F53CC548F505016451625D5A6E655183
:103BD00063595B6E5AC502F55BC503F5046A056A55
:103BE000000EBCEC1EF002C514F503C515F504C5A6
:103BF00016F505C517F505016451605D5C6E6551EC
:103C000061595D6E5CC502F55DC503F5046A056A20
:103C1000000EBCEC1EF002C510F503C511F504C57D
:103C200012F505C513F5E3EC1BF010C541F511C500
:103C300042F512C543F513C544F5F4EC17F041C540
:103C40006EF542C56FF543C570F544C571F56EC597
:103C500029F56FC52AF570C52BF571C52CF56AC518
:103C60002DF56BC52EF56CC52FF56DC530F594ECB3
:103C700015F029C560F52AC561F52BC562F52CC57F
:103C800063F5BBEF1EF066C53DF567C53EF568C53B
:103C90003FF569C540F56AC539F56BC53AF56CC5A0
:103CA0003BF56DC53CF5BFEC24F039C545F53AC58B
:103CB00046F53BC547F53CC548F505016451625DD5
:103CC0005A6E655163595B6E5AC502F55BC503F5C3
:103CD000046A056A000EBCEC1EF002C514F503C5AB
:103CE00015F504C516F505C517F505016451605DA8
:103CF0005C6E655161595D6E5CC502F55DC503F58D
:103D0000046A056A000EBCEC1EF002C510F503C57E
:103D100011F504C512F505C513F5E3EC1BF010C54C
:103D200041F511C542F512C543F513C544F5F4EC50
:103D300017F041C572F542C573F543C574F544C526
:103D400075F56AC539F56BC53AF56CC53BF56DC5BA
:103D50003CF572C53DF573C53EF574C53FF575C5B7
:103D600040F5BFEC24F039C560F53AC561F53BC5B7
:103D700062F53CC563F512000A6E0A50D8B4C3EF71
:103D80001EF0C5EF1EF0E7EF1EF005BECCEF1EF0F3
:103D9000CAEF1EF0E7EF1EF002C506F503C507F5F2
:103DA00004C508F505C509F5061E071E081E091EEF
:103DB000062A000E07220822092206C50CF507C5AF
:103DC0000DF508C50EF509C50FF5EFEF1EF002C59C
:103DD0000CF503C50DF504C50EF505C50FF502502C
:103DE000031004100510D8A4F8EF1EF0FAEF1EF02F
:103DF00004EF1FF0000E026E000E036E000E046E44
:103E0000000E056E95EF1FF0960E0B6E0EEF1FF075
:103E10000B2AD8900F320E320D320C32000E0C14D9
:103E2000066E000E0D14076E000E0E14086EFE0EC8
:103E30000F14096E0650071008100910D8A423EFBC
:103E40001FF025EF1FF008EF1FF033EF1FF00B2AD4
:103E5000010E0C26000E0D220E220F22D8900F32DA
:103E60000E320D320C32000E0C14066E000E0D14C4
:103E7000076E000E0E14086EFF0E0F14096E06502A
:103E8000071008100910D8A448EF1FF04AEF1FF0E0
:103E900027EF1FF052EF1FF00B06D8900C360D36AF
:103EA0000E360F360EBE57EF1FF059EF1FF061EFC1
:103EB0001FF0020E0B605FEF1FF061EF1FF04CEF81
:103EC0001FF00BB066EF1FF068EF1FF069EF1FF0F7
:103ED0000E9ED8900B320BC506F5076A086A096A70
:103EE00006C509F5086A076A066A06500C120750EB
:103EF0000D1208500E1209500F120A50D8B483EF59
:103F00001FF085EF1FF08DEF1FF005BE8CEF1FF047
:103F10008AEF1FF08DEF1FF00F8E0CC502F50DC557
:103F200003F50EC504F50FC505F51200630E050176
:103F3000F5659DEF1FF09FEF1FF055EF20F0640E29
:103F4000F55F20EE02F0AF51D926B051DA22DF2A18
:103F500020EE02F0AF51D926B051DA223B0EDF64D9
:103F6000B4EF1FF0B6EF1FF021EF20F020EE02F0CB
:103F7000AF51D926B051DA22000EDF6E20EE01F0EB
:103F8000AF51D926B051DA22DF2A20EE01F0AF512D
:103F9000D926B051DA223B0EDF64D1EF1FF0D3EF08
:103FA0001FF021EF20F020EE01F0AF51D926B051E3
:103FB000DA22000EDF6EAFC5D9F4B0C5DAF4DF2A1D
:103FC000AFC5D9F4B0C5DAF40B0EDF64EAEF1FF029
:103FD000ECEF1FF021EF20F0AFC5D9F4B0C5DAF453
:103FE0000C0EDF64F6EF1FF0F8EF1FF000EF20F08B
:103FF000AFC5D9F4B0C5DAF4010EDF6E21EF20F0C1
:1040000020EE03F0AF51D926B051DA22610EDE184E
:10401000D8B40DEF20F00FEF20F015EF20F0000ED8
:10402000B66F610EB56F19EF20F0000EB66F700E0F
:10403000B56F20EE03F0AF51D926B051DA22B5C5E5
:10404000DFF4020EE1EC23F0010E0501806F260E75
:10405000816FAFC5D9F4B0C5DAF4DF50B16FB1519B
:10406000826F836B20EE01F0AF51D926B051DA2276
:10407000DF50B26FB251846F856B20EE02F0AF510A
:10408000D926B051DA22DF50B36FB351866F876BF8
:1040900020EE03F0AF51D926B051DA22DF50B46FD1
:1040A000B451886F896B09EC1AF01200000E156E7E
:1040B000000E166E000E176E21EED2F111EE05F114
:1040C0000F0EDBC4E3F4E806FCE2000E0401286FE7
:1040D000F00ECB6EF00E296F050EE82EFED700F025
:1040E000000EC36EF00ED318D8B479EF20F07BEF3A
:1040F00020F072EF20F0020E036E380E026EAD0E4D
:10410000E82EFED7022EFCD7032EFAD700F0AEEF32
:1041100020F0030E17648FEF20F091EF20F093EF63
:1041200020F0000E176E17C502F5080E036E000E84
:10413000046E022A9FEF20F0043404320332022E70
:104140009CEF20F00350FF0AC36E050EE82EFED749
:1041500000F0D350FF0AF00B166E172A1650D8B491
:10416000B4EF20F0B6EF20F089EF20F01706000E34
:10417000C36E050EE82EFED700F0F00ED318D8A4BB
:10418000C4EF20F0C6EF20F0BDEF20F0F00EC36EBC
:10419000020E036E380E026EAD0EE82EFED7022E12
:1041A000FCD7032EFAD700F0D7EF20F0152A15C55B
:1041B00002F51650036E046A022AE2EF20F0D8904E
:1041C00003360436022EDFEF20F003AEEAEF20F0D4
:1041D000ECEF20F0D6EF20F01750040D050EF3247D
:1041E000026E050EF420036E15500224D96E000EE7
:1041F0000320DA6EDF5012000501783579357F6FC4
:104200007F51D8A406EF21F008EF21F012EF21F042
:10421000000E766F000E776F000E786F000E796FCC
:104220007FEF21F076C57AF577C57BF578C57CF50B
:1042300079C57DF5200E22EF21F0D8907D337C33B7
:104240007B337A33E82E1DEF21F07A517E6F788F21
:10425000FF0E7617FF0E7717FF0E7817000E7917EF
:10426000960E7F5F7FBF39EF21F037EF21F04FEFE0
:1042700021F07F51800A970FD8B041EF21F043EF32
:1042800021F045EF21F008EF21F0D8907933783311
:10429000773376337F3F45EF21F067EF21F01F0E34
:1042A0007F6555EF21F057EF21F05FEF21F008EF28
:1042B00021F0D89076377737783779377F077F5175
:1042C000D8A465EF21F067EF21F059EF21F07E517E
:1042D000D8B46DEF21F06FEF21F077EF21F0791F67
:1042E000781F771F766D000E77237823792376C5A4
:1042F00076F577C577F578C578F579C579F5120043
:10430000000E02140A6E000E03140B6E800E0414CD
:104310000C6E7F0E05140D6E0A500B100C100D1054
:10432000D8A495EF21F097EF21F09FEF21F0000E38
:10433000026E000E036E000E046E000E056E000E7F
:1043400006140A6E000E07140B6E800E08140C6E15
:104350007F0E09140D6E0A500B100C100D10D8A40E
:10436000B4EF21F0B6EF21F0BEEF21F0000E066EA3
:10437000000E076E000E086E000E096E05AEC3EF4C
:1043800021F0C5EF21F0CEEF21F0026C031ED8B072
:10439000032A041ED8B0042A800E055609AED3EFB6
:1043A00021F0D5EF21F0DEEF21F0066C071ED8B02A
:1043B000072A081ED8B0082A800E0956000E021AD5
:1043C000000E031A000E041A800E051A000E061ABB
:1043D000000E071A000E081A800E091A0650025C19
:1043E000075003580850045809500558D8B0FBEF3F
:1043F00021F0FDEF21F000EF22F0D89001EF22F044
:10440000D8801200050E056E0F0E046EF10EE82E18
:10441000FED7042EFCD7052EFAD700F0000E0401BB
:10442000186F000EC96E1969C18E050EE82EFED7F1
:1044300000F0C198C19A050EE82EFED700F0C150D9
:10444000F00B0309C16EC18C050EE82EFED700F0FB
:10445000C19C680E046EE40EE82EFED7042EFCD735
:1044600000D0C150F00B0309C16EC18C050EE82EBF
:10447000FED700F0C19C680E046EE40EE82EFED755
:10448000042EFCD700D0C150F00B0309C16EC18CC3
:10449000050EE82EFED700F0C19C680E046EE40EF7
:1044A000E82EFED7042EFCD700D0C150F00B020935
:1044B000C16EC18C050EE82EFED700F0C19C680EBF
:1044C000046EE40EE82EFED7042EFCD700D0280E92
:1044D000E1EC23F0080EE1EC23F00F0EE1EC23F009
:1044E000010EE1EC23F0060EE1EC23F01200000EC9
:1044F000076E05BE80EF22F07EEF22F086EF22F0FD
:10450000046C051ED8B0052A010E076E03BE8DEFA0
:1045100022F08BEF22F093EF22F0026C031ED8B052
:10452000032A010E071A000E096E000E086E0450D1
:104530000510D8B49EEF22F0A0EF22F0C8EF22F0D1
:10454000010E066EA8EF22F0D89004360536062A32
:1045500005AEADEF22F0AFEF22F0A4EF22F0D8903D
:10456000083609360450025C05500358D8A0BBEF4A
:1045700022F0BDEF22F0C2EF22F00450025E05509F
:10458000035A0880D89005320432062EAFEF22F08D
:104590000750D8B4CEEF22F0D0EF22F0D4EF22F0C3
:1045A000086C091ED8B0092A08C502F509C503F52B
:1045B0001200000E076E03BEE2EF22F0E0EF22F0E1
:1045C000E8EF22F0026C031ED8B0032A010E076E3A
:1045D00005BEEFEF22F0EDEF22F0F3EF22F0046CD6
:1045E000051ED8B0052A04500510D8B4FAEF22F001
:1045F000FCEF22F020EF23F0010E066E04EF23F013
:10460000D89004360536062A05AE09EF23F00BEFE5
:1046100023F000EF23F00450025C05500358D8A0AB
:1046200014EF23F016EF23F01AEF23F00450025E8C
:104630000550035AD89005320432062E0BEF23F0B2
:104640000750D8B426EF23F028EF23F02CEF23F007
:10465000026C031ED8B0032A02C502F503C503F598
:104660001200036E000E0401186F000EC96E196966
:10467000C18E050EE82EFED700F0C188C19A03C591
:1046800002F5023A0F0E0216C150F00B0210C16E75
:10469000050EE82EFED700F0C18C050EE82EFED7E1
:1046A00000F0C19C03C502F50F0E0216C150F00BBD
:1046B0000210C16E050EE82EFED700F0C18C050E6B
:1046C000E82EFED700F0C19C680E026EE40EE82EC4
:1046D000FED7022EFCD700D0120021EE0CF1050E01
:1046E000DE6AE806FDE20B04126E12BE7CEF23F0D8
:1046F0007AEF23F07EEF23F0A2EF23F00C0E1224CA
:10470000D96EDA6A050EDA2209C502F50AC503F583
:10471000000E056E0A0E046E1BEC24F00250300FE2
:10472000DF6E09C502F50AC503F5000E056E0A0E17
:10473000046EA7EC23F002C509F503C50AF51206BD
:1047400075EF23F00C0E096E050E0A6E1200000EB6
:10475000076E000E066E04500510D8B4B2EF23F0B9
:10476000B4EF23F0DCEF23F0010E086EBCEF23F072
:10477000D89004360536082A05AEC1EF23F0C3EF02
:1047800023F0B8EF23F0D890063607360450025CC9
:1047900005500358D8A0CFEF23F0D1EF23F0D6EF88
:1047A00023F00450025E0550035A0680D89005326B
:1047B0000432082EC3EF23F006C502F507C503F542
:1047C0001200036E000E0401186F000EC96E196905
:1047D000C18E050EE82EFED700F0C19AC19803C520
:1047E00002F5023A0F0E02160F0E0216C150F00B20
:1047F0000210C16EC18C050EE82EFED700F0C19CE0
:10480000050EE82EFED700F003C502F50F0E0216C6
:10481000C150F00B0210C16EC18C050EE82EFED700
:1048200000F0C19C680E026EE40EE82EFED7022E48
:10483000FCD700D0120004500510D8B422EF24F0A9
:1048400024EF24F048EF24F0010E066E2CEF24F044
:10485000D89004360536062A05AE31EF24F033EF42
:1048600024F028EF24F00450025C05500358D8A02F
:104870003CEF24F03EEF24F042EF24F00450025EBF
:104880000550035AD89005320432062E33EF24F037
:1048900002C502F503C503F51200000E0401186FEE
:1048A000000EC96E1969C18E050EE82EFED700F004
:1048B000C188C19A050EE82EFED700F069EF24F0FA
:1048C00013C5D9F414C5DAF4DF5031EC23F0134AE0
:1048D000142A13C5D9F414C5DAF4DF50D8A473EF41
:1048E00024F075EF24F060EF24F01200020EF66E53
:1048F0004A0EF76E000EF86E01EED2F110EE1DF0CA
:104900000900F5C4EEF4E550E150FAE101EE00F2E1
:10491000140EEE6AE806FDE101EEEFF1070EEE6A15
:10492000E806FDE10401080E5D6F000E5E6F000EEB
:104930005F6F000111EF13F00301F351F30B040952
:10494000F36FF3890AC5ECF3010E026E000E036EDD
:10495000000E046E000E056EF38FF381F3B1B3EF1A
:1049600024F0B5EF24F0AEEF24F0EB510C6E0B6A9F
:10497000EA510B24026E000E0C20036E1200000E92
:104980003D1A000E3E1A000E3F1A800E401A39C51D
:1049900029F53AC52AF53BC52BF53CC52CF53DC597
:1049A0002DF53EC52EF53FC52FF540C530F594ECED
:1049B00015F029C539F52AC53AF52BC53BF52CC5A7
:1049C0003CF51200890E03011A6FB10E1B6FF90E30
:1049D000196F000E0501F56FD68EA18EB19E0301F1
:1049E000658F1200010E0501EE6FE2EC24F0C7881E
:1049F000040108990989D68A9E8E0E89000E0F6FD0
:104A000012003132334134353642373839432A3097
:0F4A1000234448483A4D4D3A535320586D000106
:104A2000D8C401F504010E990F9903011A9F000ED5
:104A30000501EE6F01C5D8F41100046E0450800F1B
:064A4000E1EC23F012007E
:0A4A4800B19E0501F52B11001100CD
:020000040020DA
:10000000FFFFFFFFFFFFFFFFFFFFFFFFFFFFFFFF00
:10001000FFFFFFFFFFFFFFFFFFFFFFFFFFFFFFFFF0
:10002000FFFFFFFFFFFFFFFFFFFFFFFFFFFFFFFFE0
:10003000FFFFFFFFFFFFFFFFFFFFFFFFFFFFFFFFD0
:020000040030CA
:080000008CFFEFFF9FFFFFFFE3
:01000900FFF7
:00000001FF
