:0400000081EF00F09C
:1000080040004000400040004000400040001E10FA
:1000180040004000400040004000400040004000D8
:1000280040004000400040004000400040004000C8
:1000380040004000400040004000400040004000B8
:1000480040004000400040004000400040004000A8
:100058004000400040004000400040004000400098
:100068004000400040004000400040004000400088
:100078004000400040004000400040004000400078
:100088004000400040004000400040004000400068
:100098004000400040004000400040004000400058
:1000A8004000400040004000400040004000400048
:1000B8004000400040004000400040004000400038
:1000C8004000400040004000400040004000400028
:1000D8004000400040004000400040004000400018
:1000E8004000400040004000400040004000400008
:0E00F8004000400040004000FF001EEF20F0DE
:10260000002569323A2569323A2569322025636D01
:1026100000506F7420766F6C746167653A200025F6
:072620003166322056000074
:102628002C50800B356E2C502C24376E2BAE1FEFA0
:1026380013F021EF13F022EF13F037803750D8B49E
:1026480028EF13F02AEF13F03FEF13F03728D8A440
:1026580030EF13F032EF13F03AEF13F0000E296E5B
:10266800000E2A6E000E2B6E000E2C6E2B8E000EA6
:102678002C6E47EF13F0000E296E000E2A6E000E26
:102688002B6E000E2C6E3050800B366E355036187F
:10269800D8B451EF13F053EF13F054EF13F0358C17
:1026A80030503024366E2FAE5CEF13F05EEF13F02F
:1026B8005FEF13F036803650D8B465EF13F067EF4C
:1026C80013F07CEF13F03628D8A46DEF13F06FEFFA
:1026D80013F077EF13F0000E2D6E000E2E6E000E25
:1026E8002F6E000E306E2F8E000E306E84EF13F0BA
:1026F800000E2D6E000E2E6E000E2F6E000E306E28
:102708003750365CD8B08BEF13F08DEF13F0B4EF81
:1027180013F035AC92EF13F094EF13F096EF13F03B
:10272800800E351A37C538F536C537F538C536F54C
:1027380029C538F52DC529F538C52DF52AC538F52B
:102748002EC52AF538C52EF52BC538F52FC52BF51E
:1027580038C52FF52CC538F530C52CF538C530F5FA
:10276800000E386E375036C531F5326A315E000ECC
:10277800325A32BEC9EF13F0325009E11A0E315CF9
:10278800D8A0C9EF13F0CBEF13F002EF14F02950E3
:102798002A102B102C10D8A4D4EF13F0D7EF13F075
:1027A800010ED8EF13F0000E386E000E296E000EE1
:1027B8002A6E000E2B6E000E2C6E36C537F50BEF09
:1027C80014F038A0EAEF13F0ECEF13F0F2EF13F087
:1027D800D89038300109386EF4EF13F0D8903832B9
:1027E80029A0F9EF13F0FBEF13F0FCEF13F0388E8C
:1027F8002C342C322B322A322932372A3650375C85
:10280800D8A009EF14F00BEF14F0E5EF13F035BC86
:1028180010EF14F012EF14F052EF14F03750D8A460
:1028280018EF14F01AEF14F024EF14F0000E296ECC
:10283800000E2A6E000E2B6E000E2C6E73EF15F034
:102848002D5029262E502A222F502B2230502C2250
:102858002CA031EF14F033EF14F0DFEF14F038A0B0
:1028680038EF14F03AEF14F040EF14F0D890383005
:102878000109386E42EF14F0D890383229A047EF9A
:1028880014F049EF14F04AEF14F0388E2C342C323F
:102898002B322A322932372ADFEF14F02D50295CE7
:1028A8002E502A582F502B582C50800A316E3050F9
:1028B800800A3158D8B063EF14F065EF14F090EF48
:1028C80014F029502D5C316E2A502E58326E2B5040
:1028D8002F58336E2C503058346EFF0E3124296E29
:1028E800FF0E32202A6EFF0E33202B6EFF0E34208F
:1028F8002C6E800E351A386C3850D8A486EF14F038
:1029080088EF14F098EF14F0010E2926000E2A2201
:102918002B222C2298EF14F02D50295E2E502A5A83
:102928002F502B5A30502C5A29502A102B102C106B
:10293800D8A4A1EF14F0A3EF14F0D8EF14F0385096
:10294800D8A4A9EF14F0ABEF14F0D8EF14F0000EF0
:10295800296E000E2A6E000E2B6E000E2C6E73EF81
:1029680015F0D89029362A362B362C3638AEBFEFDC
:1029780014F0C1EF14F0C2EF14F0298038A0C7EFAB
:1029880014F0C9EF14F0CDEF14F0D8803836CFEF3B
:1029980014F0D89038363750D8B4D5EF14F0D7EFB4
:1029A80014F0D8EF14F037062BAEDDEF14F0DFEF9C
:1029B80014F0B5EF14F0000E366E38AEE6EF14F0F2
:1029C800E8EF14F000EF15F038C531F57F0E311639
:1029D800D8B4F1EF14F0F3EF14F0F7EF14F0010EA0
:1029E800366E00EF15F029A0FCEF14F0FEEF14F09E
:1029F80000EF15F0F3EF14F03650D8B406EF15F0E9
:102A080008EF15F033EF15F0010E2926000E2A22E3
:102A18002B222C222CA013EF15F015EF15F033EF15
:102A280015F029C531F52AC532F52BC533F52CC566
:102A380034F53434343233323232313231C529F557
:102A480032C52AF533C52BF534C52CF53728D8B44B
:102A580030EF15F032EF15F033EF15F0372A37283D
:102A6800D8B439EF15F03BEF15F043EF15F03750B8
:102A7800D8A441EF15F043EF15F055EF15F0000E0F
:102A8800296E000E2A6E000E2B6E000E2C6E37502B
:102A9800D8A451EF15F053EF15F055EF15F0000ECF
:102AA800356E37A05AEF15F05CEF15F05FEF15F0B3
:102AB8002B8E60EF15F02B9ED89037302C6E35AEEC
:102AC80068EF15F06AEF15F06BEF15F02C8E29C53D
:102AD80029F52AC52AF52BC52BF52CC52CF512008E
:102AE8004450800B4D6E44504424536E43AE7FEFE8
:102AF80015F081EF15F082EF15F053805350D8B4DC
:102B080088EF15F08AEF15F09DEF15F05328D8A43B
:102B180090EF15F092EF15F09AEF15F0000E416E58
:102B2800000E426E000E436E000E446E438EA5EFFB
:102B380015F0000E416E000E426E000E436E000E40
:102B4800446E4850800B4D1A48504824526E47AE88
:102B5800B0EF15F0B2EF15F0B3EF15F05280525008
:102B6800D8B4B9EF15F0BBEF15F0CEEF15F0522839
:102B7800D8A4C1EF15F0C3EF15F0CBEF15F0000E98
:102B8800456E000E466E000E476E000E486E478E6C
:102B9800D6EF15F0000E456E000E466E000E476E1D
:102BA800000E486E5250D8B4DCEF15F0DEEF15F089
:102BB800E6EF15F05350D8A4E4EF15F0E6EF15F062
:102BC800F0EF15F0000E416E000E426E000E436EDF
:102BD800000E446E88EF17F047504102F3C458F5D1
:102BE800F4C459F558504E6E4F6A506A516A59509C
:102BF800546E556A566A576A46504202F3C458F5ED
:102C0800F4C459F558504E26000E4F225022512236
:102C180059505426000E5522562257224550430239
:102C2800F3C458F5F4C459F558504E26000E4F22F7
:102C38005022512259505426000E5522562257220E
:102C480050C551F54FC550F54EC54FF54E6A455024
:102C58004202F3C458F5F4C459F558504E26595059
:102C68004F22000E5022000E512246504102F3C45A
:102C780058F5F4C459F558504E2659504F22000EB5
:102C88005022000E512250C551F54FC550F54EC582
:102C98004FF54E6A45504102F3C458F5F4C459F54E
:102CA80058504E2659504F22000E5022000E5122E5
:102CB80047504202F3C458F5F4C459F55850542605
:102CC80059505522000E5622000E572246504302F4
:102CD800F3C458F5F4C459F55850542659505522A0
:102CE800000E5622000E572247504302F3C458F5EF
:102CF800F4C459F55850496E59504A6E4B6A4C6A9B
:102D08004BC54CF54AC54BF549C54AF5496A495082
:102D180054264A5055224B5056224C5057224EC5E5
:102D280049F54FC54AF550C54BF551C54CF5190E37
:102D3800A3EF16F0D8904C324B324A324932E82E83
:102D48009EEF16F0495054264A5055224B505622B1
:102D58004C50572250C551F54FC550F54EC54FF54B
:102D68004E6A525053C549F54A6A4926000E4A220E
:102D7800820E4924586EFF0E4A20596ED9EF16F07C
:102D8800D890543655365636573651AECEEF16F0E3
:102D9800D0EF16F0D1EF16F05480D8904E364F365B
:102DA800503651365806D8A0590656AEDEEF16F002
:102DB800E0EF16F0C4EF16F0000E526E51AEE7EFDA
:102DC80016F0E9EF16F00DEF17F0FF0E4E14496EEE
:102DD800FF0E4F144A6EFF0E50144B6E7F0E5114A7
:102DE8004C6E49504A104B104C10D8B4FEEF16F0F8
:102DF80000EF17F004EF17F0010E526E0DEF17F009
:102E080054A009EF17F00BEF17F00DEF17F000EFD4
:102E180017F05250D8B413EF17F015EF17F039EF39
:102E280017F0010E5426000E55225622572257A09D
:102E380020EF17F022EF17F039EF17F054C549F5D6
:102E480055C54AF556C54BF557C54CF54C344C326B
:102E58004B324A32493249C554F54AC555F54BC536
:102E680056F54CC557F5584A592A59BE44EF17F03C
:102E7800595008E15828D8A044EF17F046EF17F04A
:102E880050EF17F0000E546E000E556E800E566E01
:102E98007F0E576E7EEF17F059BE5DEF17F0595051
:102EA80006E15804D8B05BEF17F05DEF17F069EF53
:102EB80017F0000E546E000E556E000E566E000E82
:102EC800576E000E4D6E7EEF17F058C553F5FF0E86
:102ED8005416FF0E55167F0E5616000E571653A0A1
:102EE80078EF17F07AEF17F07BEF17F0568ED8903F
:102EF8005330576E4D50571254C541F555C542F5DC
:102F080056C543F557C544F512001350800B206E83
:102F180013501324276E12AE94EF17F096EF17F0A4
:102F280097EF17F027802750D8B49DEF17F09FEF41
:102F380017F0B4EF17F02728D8A4A5EF17F0A7EFDC
:102F480017F0AFEF17F0000E106E000E116E000EA6
:102F5800126E000E136E128E000E136EBCEF17F079
:102F6800000E106E000E116E000E126E000E136E23
:102F78001750800B201A17501724286E16AEC7EF6B
:102F880017F0C9EF17F0CAEF17F028802850D8B407
:102F9800D0EF17F0D2EF17F0E7EF17F02828D8A4F2
:102FA800D8EF17F0DAEF17F0E2EF17F0000E146E13
:102FB800000E156E000E166E000E176E168E000EA1
:102FC800176EEFEF17F0000E146E000E156E000E60
:102FD800166E000E176E1450151016101710D8A480
:102FE800F8EF17F0FAEF17F012EF18F0000E106E66
:102FF800000E116E000E126E000E136E800E12126D
:103008007F0E13122050131210C510F511C511F5BB
:1030180012C512F513C513F555EF19F02750D8A4AA
:1030280018EF18F01AEF18F024EF18F0000E106ED1
:10303800000E116E000E126E000E136E55EF19F091
:10304800285027C518F5196A185E000E195A7F0E00
:103058001824216E000E1920226E10C51CF511C50A
:103068001DF512C51EF513C51FF5000E106E000ED6
:10307800116E000E126E000E136E000E236E000EFF
:10308800246E000E256E000E266E000E286E85EF4B
:1030980018F02850D8B453EF18F055EF18F06CEF2B
:1030A80018F0D8901C361D361E361F36D8901036AC
:1030B80011361236133626AE64EF18F066EF18F0A4
:1030C80067EF18F01080D890233624362536263638
:1030D80014501C5C15501D5816501E5817501F5878
:1030E800D8A079EF18F07BEF18F084EF18F0268C51
:1030F80014501C5E15501D5A16501E5A17501F5A50
:10310800282A190E28648BEF18F08DEF18F04DEF70
:1031180018F01C501D101E101F10D8B496EF18F090
:1031280098EF18F0B0EF18F02380B0EF18F0D890AF
:10313800103611361236133626AEA5EF18F0A7EF63
:1031480018F0A8EF18F01080D890233624362536CA
:1031580026362106D8A0220612AEB5EF18F0B7EF32
:1031680018F09BEF18F0000E286E26AEBEEF18F090
:10317800C0EF18F0E4EF18F0FF0E2314186EFF0EDE
:103188002414196EFF0E25141A6E7F0E26141B6E5A
:10319800185019101A101B10D8B4D5EF18F0D7EF23
:1031A80018F0DBEF18F0010E286EE4EF18F010A00D
:1031B800E0EF18F0E2EF18F0E4EF18F0D7EF18F0AE
:1031C8002850D8B4EAEF18F0ECEF18F010EF19F027
:1031D800010E1026000E11221222132213A0F7EF5F
:1031E80018F0F9EF18F010EF19F010C518F511C51F
:1031F80019F512C51AF513C51BF51B341B321A3203
:103208001932183218C510F519C511F51AC512F575
:103218001BC513F5214A222A22BE1BEF19F02250A2
:1032280008E12128D8A01BEF19F01DEF19F028EFAD
:1032380019F0000E226E2168000E106E000E116E3D
:10324800000E126E000E136E22BE35EF19F02250DA
:1032580006E12104D8B033EF19F035EF19F043EF48
:1032680019F0000E226E000E216E000E106E000E78
:10327800116E000E126E000E136E000E206E21C528
:1032880027F527A04AEF19F04CEF19F04FEF19F086
:10329800128E50EF19F0129ED8902730136E06EF59
:1032A80018F01200620E0501896F050E8A6F07EF8C
:1032B8001BF060C5F6F461C5F7F40800F550250A5F
:1032C800D8B469EF19F06BEF19F078EF19F060C511
:1032D800F6F461C5F7F40800F55093EC1EF005010B
:1032E800604B612B07EF1BF0010E6025666F000E27
:1032F8006121676F66C5F6F467C5F7F40800F550F5
:10330800730AD8A48AEF19F08CEF19F0A1EF19F01D
:1033180089C5D9F48AC5DAF4DEC413F5DDC414F519
:10332800AFEC1FF0020E05018927000E8A23020E5A
:103338006027000E612307EF1BF0010E6025666F02
:10334800000E6121676F66C5F6F467C5F7F40800DB
:10335800F550690AD8A4B3EF19F0B5EF19F0DEEF0C
:1033680019F089C5D9F48AC5DAF4DEC409F5DDC4D3
:103378000AF5020E6025666F000E6121676F66C54B
:10338800F6F467C5F7F40800F550D00F0B6ECFECD4
:103398001EF009C513F50AC514F5AFEC1FF0020EAF
:1033A80005018927000E8A23030E6027000E61237A
:1033B80007EF1BF0010E6025666F000E6121676F35
:1033C80066C5F6F467C5F7F40800F550630AD8A493
:1033D800F0EF19F0F2EF19F000EF1AF089C5D9F4FF
:1033E8008AC5DAF4DF5093EC1EF0020E0501892736
:1033F800000E8A239BEF19F0020E6025666F000EFF
:103408006121676F66C5F6F467C5F7F40800F550E3
:10341800660AD8A412EF1AF014EF1AF0FDEF1AF0AA
:1034280021EE6DF1130EDE6AE806FDE289C5D9F4D6
:103438008AC5DAF4DEC482F5DEC483F5DEC484F519
:10344800DEC485F5040E8927000E8A23000E816FDD
:103458004AEF1AF082C541F583C542F584C543F5A4
:1034680085C544F5000E456E000E466E200E476E6B
:10347800410E486E74EC15F041C582F542C583F5DE
:1034880043C584F544C585F50501812B030E6025E8
:10349800666F000E6121676F66C5F6F467C5F7F4BD
:1034A8000800F5C468F5D00E6825696F6A6BFF0ED1
:1034B8006A2381516B6F6C6B69516B5D6A516C59F2
:1034C800D8A069EF1AF06BEF1AF02EEF1AF082C548
:1034D80002F583C503F584C504F585C505F5F0EC4B
:1034E8001BF002C586F503C587F5010E05016025A9
:1034F800666F000E6121676F66C5F6F467C5F7F45D
:103508000800F5C468F5030E6025696F000E612197
:103518006A6F69C5F6F46AC5F7F40800F5506825BE
:10352800A00F886FE9EF1AF088C566F5676B66BF6C
:103538006707010E6025686F000E6121696F68C515
:10354800F6F469C5F7F40800F5C46AF5D00E6A25E3
:103558006B6F6C6BFF0E6C2366516B1907E167513B
:103568006C19D8A4BAEF1AF0BCEF1AF0C6EF1AF02B
:103578006D0E8825D96EDA6A050EDA222E0EDF6EF8
:10358800E7EF1AF06D0E8825D96EDA6A050EDA2291
:1035980086C502F587C503F5000E056E0A0E046E92
:1035A8003BEC1EF00250300FDF6E86C502F587C572
:1035B80003F5000E056E0A0E046ED9EC1DF002C567
:1035C80086F503C587F50501880788BFF0EF1AF06F
:1035D800EEEF1AF098EF1AF06D0E136E050E146EDA
:1035E800AFEC1FF0040E05016027000E612307EF02
:1035F8001BF060C5F6F461C5F7F40800F55093ECCC
:103608001EF073EF19F060C5F6F461C5F7F4080011
:10361800F5500009D8A413EF1BF015EF1BF05DEF70
:1036280019F012000A6E0A50D8B41DEF1BF01FEFF4
:103638001BF041EF1BF005BE26EF1BF024EF1BF03B
:1036480041EF1BF002C506F503C507F504C508F5EB
:1036580005C509F5061E071E081E091E062A000EC6
:1036680007220822092206C50CF507C50DF508C56D
:103678000EF509C50FF549EF1BF002C50CF503C59A
:103688000DF504C50EF505C50FF50250031004101D
:103698000510D8A452EF1BF054EF1BF05EEF1BF09F
:1036A800000E026E000E036E000E046E000E056E14
:1036B800EFEF1BF0960E0B6E68EF1BF00B2AD890FD
:1036C8000F320E320D320C32000E0C14066E000E44
:1036D8000D14076E000E0E14086EFE0E0F14096E00
:1036E8000650071008100910D8A47DEF1BF07FEFD3
:1036F8001BF062EF1BF08DEF1BF00B2A010E0C265E
:10370800000E0D220E220F22D8900F320E320D32EB
:103718000C32000E0C14066E000E0D14076E000E0F
:103728000E14086EFF0E0F14096E065007100810CD
:103738000910D8A4A2EF1BF0A4EF1BF081EF1BF037
:10374800ACEF1BF00B06D8900C360D360E360F3644
:103758000EBEB1EF1BF0B3EF1BF0BBEF1BF0020E78
:103768000B60B9EF1BF0BBEF1BF0A6EF1BF00BB023
:10377800C0EF1BF0C2EF1BF0C3EF1BF00E9ED890FA
:103788000B320BC506F5076A086A096A06C509F50A
:10379800086A076A066A06500C1207500D1208508C
:1037A8000E1209500F120A50D8B4DDEF1BF0DFEFEC
:1037B8001BF0E7EF1BF005BEE6EF1BF0E4EF1BF094
:1037C800E7EF1BF00F8E0CC502F50DC503F50EC50E
:1037D80004F50FC505F51200043405340B6E0B50C3
:1037E800D8A4F9EF1BF0FBEF1BF005EF1CF0000E5F
:1037F800026E000E036E000E046E000E056E72EF70
:103808001CF002C506F503C507F504C508F505C58E
:1038180009F5200E15EF1CF0D8900932083207324E
:103828000632E82E10EF1CF006500A6E048EFF0ECA
:103838000216FF0E0316FF0E0416000E0516960E4E
:103848000B5E0BBE2CEF1CF02AEF1CF042EF1CF0B5
:103858000B50800A970FD8B034EF1CF036EF1CF0ED
:1038680038EF1CF0FBEF1BF0D8900532043203321E
:1038780002320B3E38EF1CF05AEF1CF01F0E0B649F
:1038880048EF1CF04AEF1CF052EF1CF0FBEF1BF066
:10389800D89002360336043605360B060B50D8A4EA
:1038A80058EF1CF05AEF1CF04CEF1CF00A50D8B43B
:1038B80060EF1CF062EF1CF06AEF1CF0051E041E9E
:1038C800031E026C000E03220422052202C502F523
:1038D80003C503F504C504F505C505F512006AC559
:1038E8003DF56BC53EF56CC53FF56DC540F566C544
:1038F80039F567C53AF568C53BF569C53CF5FBEC94
:103908001FF039C545F53AC546F53BC547F53CC5F1
:1039180048F505016451625D6E6F655163596F6FBB
:103928006EC502F56FC503F5046A056A000E16EC4C
:103938001BF002C514F503C515F504C516F505C534
:1039480017F505016451605D706F65516159716FBC
:1039580070C502F571C503F5046A056A000E16EC18
:103968001BF002C510F503C511F504C512F505C510
:1039780013F589EC17F010C541F511C542F512C5CC
:1039880043F513C544F574EC15F041C572F542C50D
:1039980073F543C574F544C575F572C529F573C546
:1039A8002AF574C52BF575C52CF56AC52DF56BC5BB
:1039B8002EF56CC52FF56DC530F514EC13F029C53F
:1039C80060F52AC561F52BC562F52CC563F51200B3
:1039D80064EC1DF0020E43EC1FF0040100B7F7EF92
:1039E8001CF0FBEF1CF05A6A5A2AFCEF1CF05A6ACA
:1039F8005A50026E036A046A056AC6B606EF1DF0DD
:103A08000AEF1DF05B6A5B2A0BEF1DF05B6A5B50E7
:103A1800066E076A086A096A030E0A6ED8EC1FF078
:103A280002C560F503C561F50F0E0501636FA00EB1
:103A3800626F000E656F000E646F000E666F000EF9
:103A4800676FA00E686F400E696F000E6A6F000EF8
:103A58006B6F000E6C6F000E6D6F73EC1CF060C521
:103A68008BF561C58CF562C58DF563C58EF5110EB4
:103A78000501606F260E616F56EC19F0400E48EC98
:103A880020F01F0E0501606F260E616F8BC562F571
:103A98008CC563F58DC564F58EC565F556EC19F0D2
:103AA800520E5B6E2B0E5A6E000EE82EFED75A2E63
:103AB800FCD75B2EFAD700D0EEEF1CF081EF00F0B8
:103AC800050E056E0F0E046EF10EE82EFED7042EBD
:103AD800FCD7052EFAD700F0000E0401186F000E6F
:103AE800C96E1969C18E050EE82EFED700F0C1987F
:103AF800C19A050EE82EFED700F0C150F00B03095D
:103B0800C16EC18C050EE82EFED700F0C19C680E70
:103B1800046EE40EE82EFED7042EFCD700D0C15068
:103B2800F00B0309C16EC18C050EE82EFED700F01C
:103B3800C19C680E046EE40EE82EFED7042EFCD756
:103B480000D0C150F00B0309C16EC18C050EE82EE0
:103B5800FED700F0C19C680E046EE40EE82EFED776
:103B6800042EFCD700D0C150F00B0209C16EC18CE5
:103B7800050EE82EFED700F0C19C680E046EE40E18
:103B8800E82EFED7042EFCD700D0280E43EC1FF0F9
:103B9800080E43EC1FF00F0E43EC1FF0010E43EC30
:103BA8001FF0060E43EC1FF01200000E076E05BE54
:103BB800E2EF1DF0E0EF1DF0E8EF1DF0046C051ECC
:103BC800D8B0052A010E076E03BEEFEF1DF0EDEF2A
:103BD8001DF0F5EF1DF0026C031ED8B0032A010E8C
:103BE800071A000E096E000E086E04500510D8B4AE
:103BF80000EF1EF002EF1EF02AEF1EF0010E066E17
:103C08000AEF1EF0D89004360536062A05AE0FEFE7
:103C18001EF011EF1EF006EF1EF0D8900836093698
:103C28000450025C05500358D8A01DEF1EF01FEF8A
:103C38001EF024EF1EF00450025E0550035A08805F
:103C4800D89005320432062E11EF1EF00750D8B472
:103C580030EF1EF032EF1EF036EF1EF0086C091E32
:103C6800D8B0092A08C502F509C503F51200000EE7
:103C7800076E03BE44EF1EF042EF1EF04AEF1EF03F
:103C8800026C031ED8B0032A010E076E05BE51EF61
:103C98001EF04FEF1EF055EF1EF0046C051ED8B055
:103CA800052A04500510D8B45CEF1EF05EEF1EF034
:103CB80082EF1EF0010E066E66EF1EF0D8900436F5
:103CC8000536062A05AE6BEF1EF06DEF1EF062EFAB
:103CD8001EF00450025C05500358D8A076EF1EF081
:103CE80078EF1EF07CEF1EF00450025E0550035A78
:103CF800D89005320432062E6DEF1EF00750D8B466
:103D080088EF1EF08AEF1EF08EEF1EF0026C031E85
:103D1800D8B0032A02C502F503C503F51200036EE5
:103D2800000E0401186F000EC96E1969C18E050EC8
:103D3800E82EFED700F0C188C19A03C502F5023A01
:103D48000F0E0216C150F00B0210C16E050EE82EC0
:103D5800FED700F0C18C050EE82EFED700F0C19CFE
:103D680003C502F50F0E0216C150F00B0210C16E0A
:103D7800050EE82EFED700F0C18C050EE82EFED702
:103D880000F0C19C680E026EE40EE82EFED7022EEB
:103D9800FCD700D0120021EE0CF1050EDE6AE80611
:103DA800FDE20B04126E12BEDEEF1EF0DCEF1EF019
:103DB800E0EF1EF004EF1FF00C0E1224D96EDA6A41
:103DC800050EDA2209C502F50AC503F5000E056ECF
:103DD8000A0E046E7DEC1FF00250300FDF6E09C52D
:103DE80002F50AC503F5000E056E0A0E046E09EC0D
:103DF8001FF002C509F503C50AF51206D7EF1EF034
:103E08000C0E096E050E0A6E1200000E076E000EEB
:103E1800066E04500510D8B414EF1FF016EF1FF00B
:103E28003EEF1FF0010E086E1EEF1FF0D89004360B
:103E38000536082A05AE23EF1FF025EF1FF01AEF0D
:103E48001FF0D890063607360450025C0550035818
:103E5800D8A031EF1FF033EF1FF038EF1FF00450F8
:103E6800025E0550035A0680D89005320432082EA7
:103E780025EF1FF006C502F507C503F51200036E0E
:103E8800000E0401186F000EC96E1969C18E050E67
:103E9800E82EFED700F0C19AC19803C502F5023A90
:103EA8000F0E02160F0E0216C150F00B0210C16E53
:103EB800C18C050EE82EFED700F0C19C050EE82E39
:103EC800FED700F003C502F50F0E0216C150F00B25
:103ED8000210C16EC18C050EE82EFED700F0C19C01
:103EE800680E026EE40EE82EFED7022EFCD700D034
:103EF800120004500510D8B484EF1FF086EF1FF0AD
:103F0800AAEF1FF0010E066E8EEF1FF0D890043650
:103F18000536062A05AE93EF1FF095EF1FF08AEFDE
:103F28001FF00450025C05500358D8A09EEF1FF004
:103F3800A0EF1FF0A4EF1FF00450025E0550035AD3
:103F4800D89005320432062E95EF1FF002C502F50F
:103F580003C503F51200000E0401186F000EC96EA8
:103F68001969C18E050EE82EFED700F0C188C19AE6
:103F7800050EE82EFED700F0CBEF1FF013C5D9F4DD
:103F880014C5DAF4DF5093EC1EF0134A142A13C553
:103F9800D9F414C5DAF4DF50D8A4D5EF1FF0D7EF61
:103FA8001FF0C2EF1FF012000301F351F30B0409D5
:103FB800F36FF3890AC5ECF3010E026E000E036E6F
:103FC800000E046E000E056EF38FF381F3B1EFEF70
:103FD8001FF0F1EF1FF0EAEF1FF0EB510C6E0B6AC8
:103FE800EA510B24026E000E0C20036E1200000E24
:103FF8003D1A000E3E1A000E3F1A800E401A39C5AF
:1040080029F53AC52AF53BC52BF53CC52CF53DC528
:104018002DF53EC52EF53FC52FF540C530F514ECFE
:1040280013F029C539F52AC53AF52BC53BF52CC53A
:104038003CF512009C0EF66E400EF76E000EF86E00
:104048000900F5C45DF501EE8FF1220EEE6AE8066F
:10405800FDE15C6A0401080E5D6F000E5E6F000EE4
:104068005F6F000EF86E260EF76E0001ECEF1CF085
:10407800D8C401F504010E990F9903011A9F000E87
:104088005D6E01C5D8F41100046E0450800F43EC36
:054098001FF012000101
:020000040020DA
:10000000FFFFFFFFFFFFFFFFFFFFFFFFFFFFFFFF00
:10001000FFFFFFFFFFFFFFFFFFFFFFFFFFFFFFFFF0
:10002000FFFFFFFFFFFFFFFFFFFFFFFFFFFFFFFFE0
:10003000FFFFFFFFFFFFFFFFFFFFFFFFFFFFFFFFD0
:020000040030CA
:080000008CFFEFFF9FFFFFFFE3
:01000900FFF7
:00000001FF
