:0400000081EF00F09C
:100008002913291329132913400029134000131316
:1000180029132913291329132913291329132913F8
:1000280029134000400040002913291329132913DC
:1000380029132913291329132913291329132713DA
:1000480029132913291329134000400029132913C0
:1000580029132913291340002913291329132913B4
:1000680029132913291329132913291329132913A8
:100078002913291329132913400029132913291394
:100088002913291329132913291329132913291388
:10009800291329132913291340002913400040006C
:1000A8002913291329132913291329132913291368
:1000B8002913291329132913291329132913291358
:1000C8002913291329132913291329132913291348
:1000D8002913291329132913291329132913291338
:1000E8004000291329132913400040004000400014
:0E00F8002913291329132913FF0030EF25F0D7
:10260000002569323A2569323A2569322025636D01
:1026100000503A253166325620004C3A2569332560
:10262000000021EEDCF111EEB5F10B0EDBC4E3F49A
:10263000E806FCE2000E0501C46F0F0EF6EC24F074
:1026400081EF15F06BEC21F00501C36F2CEF15F055
:10265000C42BC45148EC26F04DEF15F0C451D8B44A
:1026600034EF13F036EF13F03CEF13F0C407C4510E
:1026700048EC26F04DEF15F0000E48EC26F04DEF3B
:1026800015F0AFC5D9F4B0C5DAF40C0EDF6E20EE4C
:1026900001F0AF51D926B051DA22000EDF6E20EEE4
:1026A00002F0AF51D926B051DA22000EDF6E20EED3
:1026B00003F0AF51D926B051DA22610EDF6E010E60
:1026C000F46F4DEF15F020EE03F0AF51D926B05165
:1026D000DA22610EDE18D8B470EF13F072EF13F047
:1026E00078EF13F0000EC26F610EC16F7CEF13F034
:1026F000000EC26F700EC16F20EE03F0AF51D926ED
:10270000B051DA22C1C5DFF4090E48EC26F005010C
:1027100020EE03F0AF51D926B051DA22DF5046EC5B
:1027200024F00501C45148EC26F04DEF15F0C4C566
:1027300002F5036A000E056E030E046EEEEC23F044
:1027400002500310D8A4A7EF13F0A9EF13F0C6EFBF
:1027500013F0AFC5D9F4B0C5DAF4DF500501B16F9D
:10276000B151026E036A000E056E0A0E046EEEECA5
:1027700023F00501C3510A0DF3500224200FAFC509
:10278000D9F4B0C5DAF4DF6EE7EF13F0AFC5D9F4D2
:10279000B0C5DAF4DF500501B16FB151026E036AC2
:1027A000000E056E0A0E046EEEEC23F0AFC5D9F4F0
:1027B000B0C5DAF40250DF5EC3C5B1F5D00E050135
:1027C000B127AFC5D9F4B0C5DAF4B151DF26AFC532
:1027D000D9F4B0C5DAF4DF50B16FFF0EB125026E47
:1027E000036AFF0E0322000E056E0C0E046EEEEC63
:1027F00023F00228AFC5D9F4B0C5DAF4DF6E0501C5
:10280000C35146EC24F00501C42B4DEF15F0C4C5AF
:1028100002F5036A000E056E030E046EEEEC23F063
:1028200002500310D8A417EF14F019EF14F03AEF88
:1028300014F0050120EE01F0AF51D926B051DA2293
:1028400010EE01F0AF51E126B051E222E750B16F36
:10285000B151026E036A000E056E0A0E046EEEECB4
:1028600023F00501C3510A0DF3500224200FDF6E3F
:1028700061EF14F0050120EE01F0AF51D926B051FF
:10288000DA22DF50B16FB151026E036A000E056E9D
:102890000A0E046EEEEC23F0050120EE01F0AF51BC
:1028A000D926B051DA220250DF5EC3C5B1F5D00E91
:1028B000B12720EE01F0AF51D926B051DA22B15143
:1028C000DF2620EE01F0AF51D926B051DA2210EE0A
:1028D00001F0AF51E126B051E222E750B16FB151A2
:1028E000026E036A000E056E3C0E046EEEEC23F0E1
:1028F0000250DF6E0501C35146EC24F003EF14F0E3
:10290000C4C502F5036A000E056E030E046EEEECFC
:1029100023F002500310D8A490EF14F092EF14F0BB
:10292000B3EF14F0050120EE02F0AF51D926B051FB
:10293000DA2210EE02F0AF51E126B051E222E75068
:10294000B16FB151026E036A000E056E0A0E046E7D
:10295000EEEC23F00501C3510A0DF3500224200FC1
:10296000DF6EDAEF14F0050120EE02F0AF51D92648
:10297000B051DA22DF50B16FB151026E036A000E1E
:10298000056E0A0E046EEEEC23F0050120EE02F057
:10299000AF51D926B051DA220250DF5EC3C5B1F57E
:1029A000D00EB12720EE02F0AF51D926B051DA2275
:1029B000B151DF2620EE02F0AF51D926B051DA2214
:1029C00010EE02F0AF51E126B051E222E750B16FB4
:1029D000B151026E036A000E056E3C0E046EEEEC01
:1029E00023F00250DF6E0501C35146EC24F003EFE3
:1029F00014F0C42BC45148EC26F04DEF15F0C42B55
:102A0000C45148EC26F04DEF15F0B50EC425D96E33
:102A1000DA6A050EDA22DF50B16FB26BB251000AEA
:102A2000D8B415EF15F04DEF15F0B151200AD8B418
:102A3000FFEF14F01A0AD8B4F9EF14F0720AD8B400
:102A400097EF13F0050AD8B407EF14F01E0AD8B4B4
:102A500080EF14F04DEF15F0C351B16FB26BB2516E
:102A6000000AD8B436EF15F005EF15F0B1512A0A77
:102A7000D8B463EF13F06B0AD8B428EF13F0030A4D
:102A8000D8B42EEF13F0010AD8B441EF13F0070ABF
:102A9000D8B45FEF13F005EF15F0020EF6EC24F05A
:102AA000010E0501806F260E816FAFC5D9F4B0C548
:102AB000DAF4DF50B16FB151826F836B20EE01F019
:102AC000AF51D926B051DA22DF50B26FB251846FC4
:102AD000856B20EE02F0AF51D926B051DA22DF50DB
:102AE000B36FB351866F876B20EE03F0AF51D926D9
:102AF000B051DA22DF50B46FB451886F896B00ECAB
:102B00001AF00501F451D8B488EF15F08AEF15F0EA
:102B100022EF13F012002C50800B356E2C502C2419
:102B2000376E2BAE96EF15F098EF15F099EF15F084
:102B300037803750D8B49FEF15F0A1EF15F0B6EFFE
:102B400015F03728D8A4A7EF15F0A9EF15F0B1EFCD
:102B500015F0000E296E000E2A6E000E2B6E000E70
:102B60002C6E2B8E000E2C6EBEEF15F0000E296E13
:102B7000000E2A6E000E2B6E000E2C6E3050800B55
:102B8000366E35503618D8B4C8EF15F0CAEF15F0C8
:102B9000CBEF15F0358C30503024366E2FAED3EF9E
:102BA00015F0D5EF15F0D6EF15F036803650D8B4C5
:102BB000DCEF15F0DEEF15F0F3EF15F03628D8A4B2
:102BC000E4EF15F0E6EF15F0EEEF15F0000E2D6EC8
:102BD000000E2E6E000E2F6E000E306E2F8E000E29
:102BE000306EFBEF15F0000E2D6E000E2E6E000EF7
:102BF0002F6E000E306E3750365CD8B002EF16F0F4
:102C000004EF16F02BEF16F035AC09EF16F00BEFD2
:102C100016F00DEF16F0800E351A37C538F536C5AB
:102C200037F538C536F529C538F52DC529F538C528
:102C30002DF52AC538F52EC52AF538C52EF52BC534
:102C400038F52FC52BF538C52FF52CC538F530C50F
:102C50002CF538C530F5000E386E375036C531F5D5
:102C6000326A315E000E325A32BE40EF16F03250F8
:102C700009E11A0E315CD8A040EF16F042EF16F0D1
:102C800079EF16F029502A102B102C10D8A44BEFF6
:102C900016F04EEF16F0010E4FEF16F0000E386EE4
:102CA000000E296E000E2A6E000E2B6E000E2C6E8A
:102CB00036C537F582EF16F038A061EF16F063EFF6
:102CC00016F069EF16F0D89038300109386E6BEFC6
:102CD00016F0D890383229A070EF16F072EF16F087
:102CE00073EF16F0388E2C342C322B322A322932E4
:102CF000372A3650375CD8A080EF16F082EF16F0F6
:102D00005CEF16F035BC87EF16F089EF16F0C9EFCF
:102D100016F03750D8A48FEF16F091EF16F09BEF16
:102D200016F0000E296E000E2A6E000E2B6E000E9D
:102D30002C6EEAEF17F02D5029262E502A222F5004
:102D40002B2230502C222CA0A8EF16F0AAEF16F060
:102D500056EF17F038A0AFEF16F0B1EF16F0B7EF5F
:102D600016F0D89038300109386EB9EF16F0D890C7
:102D7000383229A0BEEF16F0C0EF16F0C1EF16F002
:102D8000388E2C342C322B322A322932372A56EF05
:102D900017F02D50295C2E502A582F502B582C50AC
:102DA000800A316E3050800A3158D8B0DAEF16F010
:102DB000DCEF16F007EF17F029502D5C316E2A502A
:102DC0002E58326E2B502F58336E2C503058346E94
:102DD000FF0E3124296EFF0E32202A6EFF0E3320A3
:102DE0002B6EFF0E34202C6E800E351A386C385046
:102DF000D8A4FDEF16F0FFEF16F00FEF17F0010E5D
:102E00002926000E2A222B222C220FEF17F02D50FC
:102E1000295E2E502A5A2F502B5A30502C5A2950A6
:102E20002A102B102C10D8A418EF17F01AEF17F057
:102E30004FEF17F03850D8A420EF17F022EF17F01B
:102E40004FEF17F0000E296E000E2A6E000E2B6E4B
:102E5000000E2C6EEAEF17F0D89029362A362B3662
:102E60002C3638AE36EF17F038EF17F039EF17F091
:102E7000298038A03EEF17F040EF17F044EF17F02D
:102E8000D880383646EF17F0D89038363750D8B457
:102E90004CEF17F04EEF17F04FEF17F037062BAE51
:102EA00054EF17F056EF17F02CEF17F0000E366EB8
:102EB00038AE5DEF17F05FEF17F077EF17F038C51A
:102EC00031F57F0E3116D8B468EF17F06AEF17F0BE
:102ED0006EEF17F0010E366E77EF17F029A073EF43
:102EE00017F075EF17F077EF17F06AEF17F036501D
:102EF000D8B47DEF17F07FEF17F0AAEF17F0010EAF
:102F00002926000E2A222B222C222CA08AEF17F031
:102F10008CEF17F0AAEF17F029C531F52AC532F565
:102F20002BC533F52CC534F53434343233323232D8
:102F3000313231C529F532C52AF533C52BF534C5F3
:102F40002CF53728D8B4A7EF17F0A9EF17F0AAEFA0
:102F500017F0372A3728D8B4B0EF17F0B2EF17F0D0
:102F6000BAEF17F03750D8A4B8EF17F0BAEF17F050
:102F7000CCEF17F0000E296E000E2A6E000E2B6E9D
:102F8000000E2C6E3750D8A4C8EF17F0CAEF17F018
:102F9000CCEF17F0000E356E37A0D1EF17F0D3EF5E
:102FA00017F0D6EF17F02B8ED7EF17F02B9ED89097
:102FB00037302C6E35AEDFEF17F0E1EF17F0E2EFB0
:102FC00017F02C8E29C529F52AC52AF52BC52BF516
:102FD0002CC52CF512004450800B4D6E44504424F7
:102FE000536E43AEF6EF17F0F8EF17F0F9EF17F066
:102FF00053805350D8B4FFEF17F001EF18F014EFDF
:1030000018F05328D8A407EF18F009EF18F011EFC3
:1030100018F0000E416E000E426E000E436E000E60
:10302000446E438E1CEF18F0000E416E000E426E8F
:10303000000E436E000E446E4850800B4D1A4850EF
:103040004824526E47AE27EF18F029EF18F02AEF08
:1030500018F052805250D8B430EF18F032EF18F018
:1030600045EF18F05228D8A438EF18F03AEF18F0CE
:1030700042EF18F0000E456E000E466E000E476ED1
:10308000000E486E478E4DEF18F0000E456E000E94
:10309000466E000E476E000E486E5250D8B453EF85
:1030A00018F055EF18F05DEF18F05350D8A45BEF0F
:1030B00018F05DEF18F067EF18F0000E416E000E8B
:1030C000426E000E436E000E446EFFEF19F0475043
:1030D0004102F3C458F5F4C459F558504E6E4F6A86
:1030E000506A516A5950546E556A566A576A46502A
:1030F0004202F3C458F5F4C459F558504E26000E58
:103100004F225022512259505426000E5522562249
:10311000572245504302F3C458F5F4C459F55850AA
:103120004E26000E4F225022512259505426000E96
:1031300055225622572250C551F54FC550F54EC560
:103140004FF54E6A45504202F3C458F5F4C459F5A0
:1031500058504E2659504F22000E5022000E512238
:1031600046504102F3C458F5F4C459F558504E2660
:1031700059504F22000E5022000E512250C551F5D9
:103180004FC550F54EC54FF54E6A45504102F3C448
:1031900058F5F4C459F558504E2659504F22000E98
:1031A0005022000E512247504202F3C458F5F4C495
:1031B00059F55850542659505522000E5622000EEB
:1031C000572246504302F3C458F5F4C459F55850F9
:1031D000542659505522000E5622000E57224750B1
:1031E0004302F3C458F5F4C459F55850496E595088
:1031F0004A6E4B6A4C6A4BC54CF54AC54BF549C5FE
:103200004AF5496A495054264A5055224B50562295
:103210004C5057224EC549F54FC54AF550C54BF5A0
:1032200051C54CF5190E1AEF19F0D8904C324B32AB
:103230004A324932E82E15EF19F0495054264A50C7
:1032400055224B5056224C50572250C551F54FC570
:1032500050F54EC54FF54E6A525053C549F54A6A6E
:103260004926000E4A22820E4924586EFF0E4A203B
:10327000596E50EF19F0D8905436553656365736A9
:1032800051AE45EF19F047EF19F048EF19F05480AF
:10329000D8904E364F36503651365806D8A059067B
:1032A00056AE55EF19F057EF19F03BEF19F0000E3D
:1032B000526E51AE5EEF19F060EF19F084EF19F025
:1032C000FF0E4E14496EFF0E4F144A6EFF0E50143F
:1032D0004B6E7F0E51144C6E49504A104B104C10DF
:1032E000D8B475EF19F077EF19F07BEF19F0010EF4
:1032F000526E84EF19F054A080EF19F082EF19F0AC
:1033000084EF19F077EF19F05250D8B48AEF19F022
:103310008CEF19F0B0EF19F0010E5426000E552273
:103320005622572257A097EF19F099EF19F0B0EFF6
:1033300019F054C549F555C54AF556C54BF557C55D
:103340004CF54C344C324B324A32493249C554F573
:103350004AC555F54BC556F54CC557F5584A592A37
:1033600059BEBBEF19F0595008E15828D8A0BBEF5F
:1033700019F0BDEF19F0C7EF19F0000E546E000EF2
:10338000556E800E566E7F0E576EF5EF19F059BED2
:10339000D4EF19F0595006E15804D8B0D2EF19F023
:1033A000D4EF19F0E0EF19F0000E546E000E556ED8
:1033B000000E566E000E576E000E4D6EF5EF19F0B2
:1033C00058C553F5FF0E5416FF0E55167F0E5616B0
:1033D000000E571653A0EFEF19F0F1EF19F0F2EFCE
:1033E00019F0568ED8905330576E4D50571254C521
:1033F00041F555C542F556C543F557C544F512008C
:10340000820E0501AD6F050EAE6FC9EF1BF080C5D2
:10341000F6F481C5F7F4000EF86E0800F550250AA1
:10342000D8B415EF1AF017EF1AF026EF1AF080C58E
:10343000F6F481C5F7F4000EF86E0800F55046EC7E
:1034400024F00501804B812BC9EF1BF0010E802574
:103450008A6F000E81218B6F8AC5F6F48BC5F7F455
:10346000000EF86E0800F550730AD8A43AEF1AF06F
:103470003CEF1AF051EF1AF0ADC5D9F4AEC5DAF44D
:10348000DEC413F5DDC414F598EC25F0020E050139
:10349000AD27000EAE23020E8027000E8123C9EF58
:1034A0001BF0010E80258A6F000E81218B6F8AC56B
:1034B000F6F48BC5F7F4000EF86E0800F550690AB3
:1034C000D8A465EF1AF067EF1AF092EF1AF0ADC5C5
:1034D000D9F4AEC5DAF4DEC409F5DDC40AF5020E8E
:1034E00080258A6F000E81218B6F8AC5F6F48BC50B
:1034F000F7F4000EF86E0800F550D00F0B6E82EC5A
:1035000024F009C513F50AC514F598EC25F0020E50
:103510000501AD27000EAE23030E8027000E812388
:10352000C9EF1BF0010E80258A6F000E81218B6F81
:103530008AC5F6F48BC5F7F4000EF86E0800F55056
:10354000630AD8A4A6EF1AF0A8EF1AF0B6EF1AF0A3
:10355000ADC5D9F4AEC5DAF4DF5046EC24F0020E66
:103560000501AD27000EAE234BEF1AF0020E8025A9
:103570008A6F000E81218B6F8AC5F6F48BC5F7F434
:10358000000EF86E0800F550660AD8A4CAEF1AF0CB
:10359000CCEF1AF0BDEF1BF021EE91F1130EDE6AB5
:1035A000E806FDE2ADC5D9F4AEC5DAF4DEC4A6F591
:1035B000DEC4A7F5DEC4A8F5DEC4A9F5040EAD2768
:1035C000000EAE23000EA56F02EF1BF0A6C541F55D
:1035D000A7C542F5A8C543F5A9C544F5000E456E3B
:1035E000000E466E200E476E410E486EEBEC17F053
:1035F00041C5A6F542C5A7F543C5A8F544C5A9F53B
:103600000501A52B030E80258A6F000E81218B6F8B
:103610008AC5F6F48BC5F7F4000EF86E0800F5C401
:103620008CF5D00E8C258D6F8E6BFF0E8E23A551E1
:103630008F6F906B8D518F5D8E519059D8A023EF75
:103640001BF025EF1BF0E6EF1AF0A6C576F5A7C52F
:1036500077F5A8C578F5A9C579F511EC22F076C5FE
:10366000AAF577C5ABF5010E050180258A6F000E1E
:1036700081218B6F8AC5F6F48BC5F7F4000EF86EC6
:103680000800F5C48CF5030E80258D6F000E812196
:103690008E6F8DC5F6F48EC5F7F4000EF86E080037
:1036A000F5508C25A00FAC6FA9EF1BF0ACC58AF5C7
:1036B0008B6B8ABF8B07010E80258C6F000E8121DA
:1036C0008D6F8CC5F6F48DC5F7F4000EF86E08000A
:1036D000F5C48EF5D00E8E258F6F906BFF0E902364
:1036E0008A518F1907E18B519019D8A47AEF1BF0FA
:1036F0007CEF1BF086EF1BF0910EAC25D96EDA6AD9
:10370000050EDA222E0EDF6EA7EF1BF0910EAC2510
:10371000D96EDA6A050EDA22AAC502F5ABC503F541
:10372000000E056E0A0E046EEEEC23F00250300F10
:10373000DF6EAAC502F5ABC503F5000E056E0A0ED5
:10374000046E8CEC23F002C5AAF503C5ABF50501A8
:10375000AC07ACBFB0EF1BF0AEEF1BF056EF1BF0A9
:10376000910E136E050E146E98EC25F0040E0501F3
:103770008027000E8123C9EF1BF080C5F6F481C5B8
:10378000F7F4000EF86E0800F55046EC24F021EF37
:103790001AF080C5F6F481C5F7F4000EF86E080043
:1037A000F5500009D8A4D7EF1BF0D9EF1BF007EFB5
:1037B0001AF012001350800B206E13501324276E42
:1037C00012AEE5EF1BF0E7EF1BF0E8EF1BF02780F0
:1037D0002750D8B4EEEF1BF0F0EF1BF005EF1CF014
:1037E0002728D8A4F6EF1BF0F8EF1BF000EF1CF031
:1037F000000E106E000E116E000E126E000E136E93
:10380000128E000E136E0DEF1CF0000E106E000EE7
:10381000116E000E126E000E136E1750800B201AE0
:1038200017501724286E16AE18EF1CF01AEF1CF074
:103830001BEF1CF028802850D8B421EF1CF023EF98
:103840001CF038EF1CF02828D8A429EF1CF02BEF2F
:103850001CF033EF1CF0000E146E000E156E000EFF
:10386000166E000E176E168E000E176E40EF1CF0CF
:10387000000E146E000E156E000E166E000E176E02
:103880001450151016101710D8A449EF1CF04BEF68
:103890001CF063EF1CF0000E106E000E116E000E97
:1038A000126E000E136E800E12127F0E1312205035
:1038B000131210C510F511C511F512C512F513C577
:1038C00013F5A6EF1DF02750D8A469EF1CF06BEF9D
:1038D0001CF075EF1CF0000E106E000E116E000E45
:1038E000126E000E136EA6EF1DF0285027C518F5B6
:1038F000196A185E000E195A7F0E1824216E000EE8
:103900001920226E10C51CF511C51DF512C51EF536
:1039100013C51FF5000E106E000E116E000E126E14
:10392000000E136E000E236E000E246E000E256E28
:10393000000E266E000E286ED6EF1CF02850D8B46C
:10394000A4EF1CF0A6EF1CF0BDEF1CF0D8901C36C5
:103950001D361E361F36D8901036113612361336E5
:1039600026AEB5EF1CF0B7EF1CF0B8EF1CF01080DE
:10397000D890233624362536263614501C5C155034
:103980001D5816501E5817501F58D8A0CAEF1CF0CB
:10399000CCEF1CF0D5EF1CF0268C14501C5E15509B
:1039A0001D5A16501E5A17501F5A282A190E2864DD
:1039B000DCEF1CF0DEEF1CF09EEF1CF01C501D1025
:1039C0001E101F10D8B4E7EF1CF0E9EF1CF001EF58
:1039D0001DF0238001EF1DF0D890103611361236FD
:1039E000133626AEF6EF1CF0F8EF1CF0F9EF1CF0E2
:1039F0001080D89023362436253626362106D8A0C6
:103A0000220612AE06EF1DF008EF1DF0ECEF1CF0E1
:103A1000000E286E26AE0FEF1DF011EF1DF035EFF2
:103A20001DF0FF0E2314186EFF0E2414196EFF0EE6
:103A300025141A6E7F0E26141B6E185019101A10BA
:103A40001B10D8B426EF1DF028EF1DF02CEF1DF051
:103A5000010E286E35EF1DF010A031EF1DF033EF91
:103A60001DF035EF1DF028EF1DF02850D8B43BEFC6
:103A70001DF03DEF1DF061EF1DF0010E1026000E50
:103A800011221222132213A048EF1DF04AEF1DF05D
:103A900061EF1DF010C518F511C519F512C51AF51D
:103AA00013C51BF51B341B321A321932183218C5D4
:103AB00010F519C511F51AC512F51BC513F5214AE4
:103AC000222A22BE6CEF1DF0225008E12128D8A046
:103AD0006CEF1DF06EEF1DF079EF1DF0000E226E01
:103AE0002168000E106E000E116E000E126E000E98
:103AF000136E22BE86EF1DF0225006E12104D8B0DD
:103B000084EF1DF086EF1DF094EF1DF0000E226E85
:103B1000000E216E000E106E000E116E000E126E61
:103B2000000E136E000E206E21C527F527A09BEF17
:103B30001DF09DEF1DF0A0EF1DF0128EA1EF1DF006
:103B4000129ED8902730136E57EF1CF012000C0E07
:103B50000501D86F000ED96F000EDA6F610EDB6FB2
:103B600021EEE8F111EEC7F10B0EDBC4E3F4E80639
:103B7000FCE217EC23F0010E0501F46F17EC26F0C0
:103B8000ABEF1EF0000E6A6F000E6B6FC80E6C6F0D
:103B9000420E6D6F000E666F000E676F000E686F4D
:103BA000000E696F000E656F000E646F0A0E636F82
:103BB000280E626F040E0A6EC6B8E1EF1DF0E5EF45
:103BC0001DF0C56BC52BE7EF1DF00501C56BC55199
:103BD000066E076A086A096A040100B9F2EF1DF06F
:103BE000F7EF1DF00501C66BC62BF9EF1DF00501BF
:103BF000C66BC651026E036A046A056AC1EC25F001
:103C000002C560F503C561F5C2EC1EF060C576F52E
:103C100061C577F562C578F563C579F511EC22F0D9
:103C200005017651D76FABEF1EF0040100B71BEF13
:103C30001EF020EF1EF00501C56BC52B22EF1EF014
:103C40000501C56BC551026E036A046A056AC6B6F2
:103C50002CEF1EF030EF1EF0C66BC62B32EF1EF0BD
:103C60000501C66BC651066E076A086A096A030E2B
:103C70000A6EC1EC25F002C560F503C561F50F0EB3
:103C80000501636F6269000E656F000E646F000EC0
:103C9000666F000E676FA00E686F400E696F000EB2
:103CA0006A6F000E6B6F000E6C6F000E6D6FC2ECD2
:103CB0001EF060C5D3F561C5D4F562C5D5F563C501
:103CC000D6F5ABEF1EF0400E48EC26F0110E0501C4
:103CD000806F260E816FD3C582F5D4C583F5D5C517
:103CE00084F5D6C585F500EC1AF0ABEF1EF0490E51
:103CF00048EC26F01A0E0501806F260E816FD7C59D
:103D000082F5836B00EC1AF0ABEF1EF0D80EAF6FAC
:103D1000050EB06FA8EC20F0ABEF1EF0FB51C56FA5
:103D2000C66BC651000AD8B498EF1EF086EF1EF09D
:103D3000C5510A0AD8B4C2EF1DF01E0AD8B415EF57
:103D40001EF00A0AD8B463EF1EF0360AD8B477EF33
:103D50001EF086EF1EF00501F451D8A4B2EF1EF05C
:103D6000B4EF1EF08EEF1EF0020EF6EC24F0D80E2B
:103D70000501AF6F050EB06F11EC13F0BEEF1DF033
:103D800081EF00F06AC502F56BC503F56CC504F55B
:103D90006DC505F566C506F567C507F568C508F57F
:103DA00069C509F595EC22F0D8B0D9EF1EF0DBEF2C
:103DB0001EF055EF1FF06AC53DF56BC53EF56CC5AD
:103DC0003FF56DC540F566C539F567C53AF568C577
:103DD0003BF569C53CF5E4EC25F039C545F53AC538
:103DE00046F53BC547F53CC548F505016451625DA4
:103DF0005A6E655163595B6E5AC502F55BC503F592
:103E0000046A056A000ECEEC1FF002C514F503C566
:103E100015F504C516F505C517F505016451605D76
:103E20005C6E655161595D6E5CC502F55DC503F55B
:103E3000046A056A000ECEEC1FF002C510F503C53A
:103E400011F504C512F505C513F5DAEC1BF010C524
:103E500041F511C542F512C543F513C544F5EBEC28
:103E600017F041C56EF542C56FF543C570F544C501
:103E700071F56EC529F56FC52AF570C52BF571C5AD
:103E80002CF56AC52DF56BC52EF56CC52FF56DC5E6
:103E900030F58BEC15F029C560F52AC561F52BC509
:103EA00062F52CC563F5CDEF1FF066C53DF567C51E
:103EB0003EF568C53FF569C540F56AC539F56BC57E
:103EC0003AF56CC53BF56DC53CF5E4EC25F039C51C
:103ED00045F53AC546F53BC547F53CC548F50501EE
:103EE0006451625D5A6E655163595B6E5AC502F545
:103EF0005BC503F5046A056A000ECEEC1FF002C52F
:103F000014F503C515F504C516F505C517F5050126
:103F10006451605D5C6E655161595D6E5CC502F512
:103F20005DC503F5046A056A000ECEEC1FF002C5FC
:103F300010F503C511F504C512F505C513F5DAEC46
:103F40001BF010C541F511C542F512C543F513C567
:103F500044F5EBEC17F041C572F542C573F543C566
:103F600074F544C575F56AC539F56BC53AF56CC588
:103F70003BF56DC53CF572C53DF573C53EF574C5A1
:103F80003FF575C540F5E4EC25F039C560F53AC557
:103F900061F53BC562F53CC563F512000A6E0A5037
:103FA000D8B4D5EF1FF0D7EF1FF0F9EF1FF005BE23
:103FB000DEEF1FF0DCEF1FF0F9EF1FF002C506F592
:103FC00003C507F504C508F505C509F5061E071E56
:103FD000081E091E062A000E07220822092206C50D
:103FE0000CF507C50DF508C50EF509C50FF501EF70
:103FF00020F002C50CF503C50DF504C50EF505C589
:104000000FF50250031004100510D8A40AEF20F099
:104010000CEF20F016EF20F0000E026E000E036E83
:10402000000E046E000E056EA7EF20F0960E0B6ECC
:1040300020EF20F00B2AD8900F320E320D320C32C6
:10404000000E0C14066E000E0D14076E000E0E14FA
:10405000086EFE0E0F14096E0650071008100910A6
:10406000D8A435EF20F037EF20F01AEF20F045EF1D
:1040700020F00B2A010E0C26000E0D220E220F221C
:10408000D8900F320E320D320C32000E0C14066E28
:10409000000E0D14076E000E0E14086EFF0E0F14A6
:1040A000096E0650071008100910D8A45AEF20F026
:1040B0005CEF20F039EF20F064EF20F00B06D89091
:1040C0000C360D360E360F360EBE69EF20F06BEF54
:1040D00020F073EF20F0020E0B6071EF20F073EF11
:1040E00020F05EEF20F00BB078EF20F07AEF20F0B8
:1040F0007BEF20F00E9ED8900B320BC506F5076AB9
:10410000086A096A06C509F5086A076A066A065058
:104110000C1207500D1208500E1209500F120A50BF
:10412000D8B495EF20F097EF20F09FEF20F005BE78
:104130009EEF20F09CEF20F09FEF20F00F8E0CC53B
:1041400002F50DC503F50EC504F50FC505F5120002
:104150000C0EF6EC24F0630E0501FB65B2EF20F0C7
:10416000B4EF20F06AEF21F0640EFB5F20EE02F066
:10417000AF51D926B051DA22DF2A20EE02F0AF513A
:10418000D926B051DA223B0EDF64C9EF20F0CBEF25
:1041900020F036EF21F020EE02F0AF51D926B051D9
:1041A000DA22000EDF6E20EE01F0AF51D926B051B9
:1041B000DA22DF2A20EE01F0AF51D926B051DA22FF
:1041C0003B0EDF64E6EF20F0E8EF20F036EF21F061
:1041D00020EE01F0AF51D926B051DA22000EDF6E89
:1041E000AFC5D9F4B0C5DAF4DF2AAFC5D9F4B0C58C
:1041F000DAF40B0EDF64FFEF20F001EF21F036EF71
:1042000021F0AFC5D9F4B0C5DAF40C0EDF640BEFC2
:1042100021F00DEF21F015EF21F0AFC5D9F4B0C5B5
:10422000DAF4010EDF6E36EF21F020EE03F0AF512D
:10423000D926B051DA22610EDE18D8B422EF21F06F
:1042400024EF21F02AEF21F0000EB66F610EB56F5A
:104250002EEF21F0000EB66F700EB56F20EE03F05A
:10426000AF51D926B051DA22B5C5DFF4020EF6EC13
:1042700024F0010E0501806F260E816FAFC5D9F4C1
:10428000B0C5DAF4DF50B16FB151826F836B20EEAD
:1042900001F0AF51D926B051DA22DF50B26FB251DE
:1042A000846F856B20EE02F0AF51D926B051DA222F
:1042B000DF50B36FB351866F876B20EE03F0AF51C1
:1042C000D926B051DA22DF50B46FB451886F896BB0
:1042D00000EC1AF01200000E156E000E166E000EA5
:1042E000176E21EE14F211EE05F10F0EDBC4E3F4AC
:1042F000E806FCE2000E0401286FF00ECB6EF00E13
:10430000296F050EE82EFED700F0000EC36EF00EEA
:10431000D318D8B48EEF21F090EF21F087EF21F081
:10432000020E036E380E026EAD0EE82EFED7022E80
:10433000FCD7032EFAD700F0C3EF21F0030E176469
:10434000A4EF21F0A6EF21F0A8EF21F0000E176EE8
:1043500017C502F5080E036E000E046E022AB4EFB4
:1043600021F0043404320332022EB1EF21F0035065
:10437000FF0AC36E050EE82EFED700F0D350FF0AE9
:10438000F00B166E172A1650D8B4C9EF21F0CBEFF8
:1043900021F09EEF21F01706000EC36E050EE82EE9
:1043A000FED700F0F00ED318D8A4D9EF21F0DBEF40
:1043B00021F0D2EF21F0F00EC36E020E036E380E24
:1043C000026EAD0EE82EFED7022EFCD7032EFAD7D2
:1043D00000F0ECEF21F0152A15C502F51650036E1A
:1043E000046A022AF7EF21F0D89003360436022E31
:1043F000F4EF21F003AEFFEF21F001EF22F0EBEF3D
:1044000021F01750040D050EF324026E050EF42062
:10441000036E15500224D96E000E0320DA6EDF50B1
:1044200012000501783579357F6F7F51D8A41BEFD5
:1044300022F01DEF22F027EF22F0000E766F000E23
:10444000776F000E786F000E796F94EF22F076C5CB
:104450007AF577C57BF578C57CF579C57DF5200EB5
:1044600037EF22F0D8907D337C337B337A33E82EDC
:1044700032EF22F07A517E6F788FFF0E7617FF0EA3
:104480007717FF0E7817000E7917960E7F5F7FBFA4
:104490004EEF22F04CEF22F064EF22F07F51800AC1
:1044A000970FD8B056EF22F058EF22F05AEF22F0D3
:1044B0001DEF22F0D89079337833773376337F3F0E
:1044C0005AEF22F07CEF22F01F0E7F656AEF22F098
:1044D0006CEF22F074EF22F01DEF22F0D8907637C7
:1044E0007737783779377F077F51D8A47AEF22F072
:1044F0007CEF22F06EEF22F07E51D8B482EF22F0F2
:1045000084EF22F08CEF22F0791F781F771F766DF1
:10451000000E77237823792376C576F577C577F56E
:1045200078C578F579C579F51200000E02140A6E87
:10453000000E03140B6E800E04140C6E7F0E051417
:104540000D6E0A500B100C100D10D8A4AAEF22F01B
:10455000ACEF22F0B4EF22F0000E026E000E036EFC
:10456000000E046E000E056E000E06140A6E000E9C
:1045700007140B6E800E08140C6E7F0E09140D6E5E
:104580000A500B100C100D10D8A4C9EF22F0CBEF7D
:1045900022F0D3EF22F0000E066E000E076E000E22
:1045A000086E000E096E05AED8EF22F0DAEF22F0A9
:1045B000E3EF22F0026C031ED8B0032A041ED8B029
:1045C000042A800E055609AEE8EF22F0EAEF22F049
:1045D000F3EF22F0066C071ED8B0072A081ED8B0E9
:1045E000082A800E0956000E021A000E031A000E49
:1045F000041A800E051A000E061A000E071A000E85
:10460000081A800E091A0650025C07500358085019
:10461000045809500558D8B010EF23F012EF23F0DA
:1046200015EF23F0D89016EF23F0D8801200050E76
:10463000056E0F0E046EF10EE82EFED7042EFCD789
:10464000052EFAD700F0000E0401186F000EC96E97
:104650001969C18E050EE82EFED700F0C198C19AE7
:10466000050EE82EFED700F0C150F00B0309C16E15
:10467000C18C050EE82EFED700F0C19C680E046EBA
:10468000E40EE82EFED7042EFCD700D0C150F00B6C
:104690000309C16EC18C050EE82EFED700F0C19C47
:1046A000680E046EE40EE82EFED7042EFCD700D070
:1046B000C150F00B0309C16EC18C050EE82EFED768
:1046C00000F0C19C680E046EE40EE82EFED7042EA6
:1046D000FCD700D0C150F00B0209C16EC18C050E91
:1046E000E82EFED700F0C19C680E046EE40EE82EA2
:1046F000FED7042EFCD700D0280EF6EC24F0080ECE
:10470000F6EC24F00F0EF6EC24F0010EF6EC24F09B
:10471000060EF6EC24F01200000E076E05BE95EFB3
:1047200023F093EF23F09BEF23F0046C051ED8B029
:10473000052A010E076E03BEA2EF23F0A0EF23F0BF
:10474000A8EF23F0026C031ED8B0032A010E071A4B
:10475000000E096E000E086E04500510D8B4B3EFB9
:1047600023F0B5EF23F0DDEF23F0010E066EBDEF71
:1047700023F0D89004360536062A05AEC2EF23F0A2
:10478000C4EF23F0B9EF23F0D8900836093604506F
:10479000025C05500358D8A0D0EF23F0D2EF23F0ED
:1047A000D7EF23F00450025E0550035A0880D890DA
:1047B00005320432062EC4EF23F00750D8B4E3EFDD
:1047C00023F0E5EF23F0E9EF23F0086C091ED8B0E1
:1047D000092A08C502F509C503F51200000E076E87
:1047E00003BEF7EF23F0F5EF23F0FDEF23F0026CAB
:1047F000031ED8B0032A010E076E05BE04EF24F095
:1048000002EF24F008EF24F0046C051ED8B0052A4E
:1048100004500510D8B40FEF24F011EF24F035EF59
:1048200024F0010E066E19EF24F0D89004360536F8
:10483000062A05AE1EEF24F020EF24F015EF24F039
:104840000450025C05500358D8A029EF24F02BEF48
:1048500024F02FEF24F00450025E0550035AD89044
:1048600005320432062E20EF24F00750D8B43BEF77
:1048700024F03DEF24F041EF24F0026C031ED8B089
:10488000032A02C502F503C503F51200036E000EEC
:104890000401186F000EC96E1969C18E050EE82E4D
:1048A000FED700F0C188C19A03C502F5023A0F0E87
:1048B0000216C150F00B0210C16E050EE82EFED795
:1048C00000F0C18C050EE82EFED700F0C19C03C598
:1048D00002F50F0E0216C150F00B0210C16E050E4C
:1048E000E82EFED700F0C18C050EE82EFED700F0B2
:1048F000C19C680E026EE40EE82EFED7022EFCD795
:1049000000D0120021EE0CF1050EDE6AE806FDE291
:104910000B04126E12BE91EF24F08FEF24F093EF90
:1049200024F0B7EF24F00C0E1224D96EDA6A050ECB
:10493000DA2209C502F50AC503F5000E056E0A0E56
:10494000046E66EC25F00250300FDF6E09C502F5EB
:104950000AC503F5000E056E0A0E046EBCEC24F0C9
:1049600002C509F503C50AF512068AEF24F00C0EFC
:10497000096E050E0A6E1200000E076E000E066E1E
:1049800004500510D8B4C7EF24F0C9EF24F0F1EFBC
:1049900024F0010E086ED1EF24F0D89004360536CD
:1049A000082A05AED6EF24F0D8EF24F0CDEF24F09E
:1049B000D890063607360450025C05500358D8A03C
:1049C000E4EF24F0E6EF24F0EBEF24F00450025E75
:1049D0000550035A0680D89005320432082ED8EFCD
:1049E00024F006C502F507C503F51200036E000E9C
:1049F0000401186F000EC96E1969C18E050EE82EEC
:104A0000FED700F0C19AC19803C502F5023A0F0E15
:104A100002160F0E0216C150F00B0210C16EC18CAF
:104A2000050EE82EFED700F0C19C050EE82EFED73D
:104A300000F003C502F50F0E0216C150F00B021074
:104A4000C16EC18C050EE82EFED700F0C19C680E29
:104A5000026EE40EE82EFED7022EFCD700D0120024
:104A60007F0EF66E4C0EF76E000EF86E01EE14F22D
:104A700010EE10F00900F5C4EEF4E550E150FAE153
:104A8000660EF66E4C0EF76E000EF86E01EEDCF15F
:104A900010EE19F00900F5C4EEF4E550E150FAE12A
:104AA00001EE00F2140EEE6AE806FDE101EEF5F10A
:104AB000070EEE6AE806FDE10401080E5D6F000EC8
:104AC0005E6F000E5F6F0001A7EF1DF00450051030
:104AD000D8B46DEF25F06FEF25F093EF25F0010EC0
:104AE000066E77EF25F0D89004360536062A05AE17
:104AF0007CEF25F07EEF25F073EF25F00450025C8B
:104B000005500358D8A087EF25F089EF25F08DEFE9
:104B100025F00450025E0550035AD8900532043245
:104B2000062E7EEF25F002C502F503C503F512003F
:104B3000000E0401186F000EC96E1969C18E050EB2
:104B4000E82EFED700F0C188C19A050EE82EFED7E8
:104B500000F0B4EF25F013C5D9F414C5DAF4DF5032
:104B600046EC24F0134A142A13C5D9F414C5DAF418
:104B7000DF50D8A4BEEF25F0C0EF25F0ABEF25F055
:104B800012000301F351F30B0409F36FF3890AC513
:104B9000ECF3010E026E000E036E000E046E000EAA
:104BA000056EF38FF381F3B1D8EF25F0DAEF25F03E
:104BB000D3EF25F0EB510C6E0B6AEA510B24026E19
:104BC000000E0C20036E1200000E3D1A000E3E1A5D
:104BD000000E3F1A800E401A39C529F53AC52AF54C
:104BE0003BC52BF53CC52CF53DC52DF53EC52EF539
:104BF0003FC52FF540C530F58BEC15F029C539F5CB
:104C00002AC53AF52BC53BF52CC53CF51200890E9B
:104C100003011A6FB10E1B6FF90E196F000E05011B
:104C2000FB6FD68EA18EB19E0301658F1200010E1F
:104C30000501F46F07EC26F0C7880401089909897B
:104C4000D68A9E8E0E89000E0F6F1200D8C401F511
:104C500004010E990F9903011A9F000E0501F46FCC
:104C600001C5D8F4110048483A4D4D3A53532058E5
:104C70006D0048483A4D4D3A535320586D0001316C
:0F4C800032334134353642373839432A302344F2
:104C9000046E0450800FF6EC24F01200B19E050162
:064CA000FB2B11001100C6
:020000040020DA
:10000000FFFFFFFFFFFFFFFFFFFFFFFFFFFFFFFF00
:10001000FFFFFFFFFFFFFFFFFFFFFFFFFFFFFFFFF0
:10002000FFFFFFFFFFFFFFFFFFFFFFFFFFFFFFFFE0
:10003000FFFFFFFFFFFFFFFFFFFFFFFFFFFFFFFFD0
:020000040030CA
:080000008CFFEFFF9FFFFFFFE3
:01000900FFF7
:00000001FF
