:0400000081EF00F09C
:100008004000400040004000400040004000BB0F5E
:1000180040004000400040004000400040004000D8
:1000280040004000400040004000400040004000C8
:1000380040004000400040004000400040004000B8
:1000480040004000400040004000400040004000A8
:100058004000400040004000400040004000400098
:100068004000400040004000400040004000400088
:100078004000400040004000400040004000400078
:100088004000400040004000400040004000400068
:100098004000400040004000400040004000400058
:1000A8004000400040004000400040004000400048
:1000B8004000400040004000400040004000400038
:1000C8004000400040004000400040004000400028
:1000D8004000400040004000400040004000400018
:1000E8004000400040004000400040004000400008
:0E00F8004000400040004000FF0058EF1FF0A5
:10260000002569323A2569323A2569322025636D01
:0726100000253166320000D5
:102618002C50800B356E2C502C24376E2BAE17EFB8
:1026280013F019EF13F01AEF13F037803750D8B4BE
:1026380020EF13F022EF13F037EF13F03728D8A468
:1026480028EF13F02AEF13F032EF13F0000E296E83
:10265800000E2A6E000E2B6E000E2C6E2B8E000EB6
:102668002C6E3FEF13F0000E296E000E2A6E000E3E
:102678002B6E000E2C6E3050800B366E355036188F
:10268800D8B449EF13F04BEF13F04CEF13F0358C3F
:1026980030503024366E2FAE54EF13F056EF13F04F
:1026A80057EF13F036803650D8B45DEF13F05FEF74
:1026B80013F074EF13F03628D8A465EF13F067EF22
:1026C80013F06FEF13F0000E2D6E000E2E6E000E3D
:1026D8002F6E000E306E2F8E000E306E7CEF13F0D2
:1026E800000E2D6E000E2E6E000E2F6E000E306E38
:1026F8003750365CD8B083EF13F085EF13F0ACEFAA
:1027080013F035AC8AEF13F08CEF13F08EEF13F063
:10271800800E351A37C538F536C537F538C536F55C
:1027280029C538F52DC529F538C52DF52AC538F53B
:102738002EC52AF538C52EF52BC538F52FC52BF52E
:1027480038C52FF52CC538F530C52CF538C530F50A
:10275800000E386E375036C531F5326A315E000EDC
:10276800325A32BEC1EF13F0325009E11A0E315C11
:10277800D8A0C1EF13F0C3EF13F0FAEF13F029500C
:102788002A102B102C10D8A4CCEF13F0CFEF13F095
:10279800010ED0EF13F0000E386E000E296E000EF9
:1027A8002A6E000E2B6E000E2C6E36C537F503EF21
:1027B80014F038A0E2EF13F0E4EF13F0EAEF13F0AF
:1027C800D89038300109386EECEF13F0D8903832D1
:1027D80029A0F1EF13F0F3EF13F0F4EF13F0388EB4
:1027E8002C342C322B322A322932372A3650375C95
:1027F800D8A001EF14F003EF14F0DDEF13F035BCAF
:1028080008EF14F00AEF14F04AEF14F03750D8A488
:1028180010EF14F012EF14F01CEF14F0000E296EF4
:10282800000E2A6E000E2B6E000E2C6E6BEF15F04C
:102838002D5029262E502A222F502B2230502C2260
:102848002CA029EF14F02BEF14F0D7EF14F038A0D8
:1028580030EF14F032EF14F038EF14F0D89038302D
:102868000109386E3AEF14F0D890383229A03FEFBA
:1028780014F041EF14F042EF14F0388E2C342C325F
:102888002B322A322932372AD7EF14F02D50295CFF
:102898002E502A582F502B582C50800A316E305009
:1028A800800A3158D8B05BEF14F05DEF14F088EF70
:1028B80014F029502D5C316E2A502E58326E2B5050
:1028C8002F58336E2C503058346EFF0E3124296E39
:1028D800FF0E32202A6EFF0E33202B6EFF0E34209F
:1028E8002C6E800E351A386C3850D8A47EEF14F050
:1028F80080EF14F090EF14F0010E2926000E2A2222
:102908002B222C2290EF14F02D50295E2E502A5A9B
:102918002F502B5A30502C5A29502A102B102C107B
:10292800D8A499EF14F09BEF14F0D0EF14F03850BE
:10293800D8A4A1EF14F0A3EF14F0D0EF14F0000E18
:10294800296E000E2A6E000E2B6E000E2C6E6BEF99
:1029580015F0D89029362A362B362C3638AEB7EFF4
:1029680014F0B9EF14F0BAEF14F0298038A0BFEFD3
:1029780014F0C1EF14F0C5EF14F0D8803836C7EF63
:1029880014F0D89038363750D8B4CDEF14F0CFEFD4
:1029980014F0D0EF14F037062BAED5EF14F0D7EFC4
:1029A80014F0ADEF14F0000E366E38AEDEEF14F012
:1029B800E0EF14F0F8EF14F038C531F57F0E31165A
:1029C800D8B4E9EF14F0EBEF14F0EFEF14F0010EC8
:1029D800366EF8EF14F029A0F4EF14F0F6EF14F0C7
:1029E800F8EF14F0EBEF14F03650D8B4FEEF14F013
:1029F80000EF15F02BEF15F0010E2926000E2A2204
:102A08002B222C222CA00BEF15F00DEF15F02BEF3D
:102A180015F029C531F52AC532F52BC533F52CC576
:102A280034F53434343233323232313231C529F567
:102A380032C52AF533C52BF534C52CF53728D8B45B
:102A480028EF15F02AEF15F02BEF15F0372A372865
:102A5800D8B431EF15F033EF15F03BEF15F03750E0
:102A6800D8A439EF15F03BEF15F04DEF15F0000E37
:102A7800296E000E2A6E000E2B6E000E2C6E37503B
:102A8800D8A449EF15F04BEF15F04DEF15F0000EF7
:102A9800356E37A052EF15F054EF15F057EF15F0DB
:102AA8002B8E58EF15F02B9ED89037302C6E35AE04
:102AB80060EF15F062EF15F063EF15F02C8E29C565
:102AC80029F52AC52AF52BC52BF52CC52CF512009E
:102AD8004450800B4D6E44504424536E43AE77EF00
:102AE80015F079EF15F07AEF15F053805350D8B4FC
:102AF80080EF15F082EF15F095EF15F05328D8A464
:102B080088EF15F08AEF15F092EF15F0000E416E80
:102B1800000E426E000E436E000E446E438E9DEF13
:102B280015F0000E416E000E426E000E436E000E50
:102B3800446E4850800B4D1A48504824526E47AE98
:102B4800A8EF15F0AAEF15F0ABEF15F05280525030
:102B5800D8B4B1EF15F0B3EF15F0C6EF15F0522861
:102B6800D8A4B9EF15F0BBEF15F0C3EF15F0000EC0
:102B7800456E000E466E000E476E000E486E478E7C
:102B8800CEEF15F0000E456E000E466E000E476E35
:102B9800000E486E5250D8B4D4EF15F0D6EF15F0A9
:102BA800DEEF15F05350D8A4DCEF15F0DEEF15F08A
:102BB800E8EF15F0000E416E000E426E000E436EF7
:102BC800000E446E80EF17F047504102F3C458F5E9
:102BD800F4C459F558504E6E4F6A506A516A5950AC
:102BE800546E556A566A576A46504202F3C458F5FD
:102BF800F4C459F558504E26000E4F225022512247
:102C080059505426000E5522562257224550430249
:102C1800F3C458F5F4C459F558504E26000E4F2207
:102C28005022512259505426000E5522562257221E
:102C380050C551F54FC550F54EC54FF54E6A455034
:102C48004202F3C458F5F4C459F558504E26595069
:102C58004F22000E5022000E512246504102F3C46A
:102C680058F5F4C459F558504E2659504F22000EC5
:102C78005022000E512250C551F54FC550F54EC592
:102C88004FF54E6A45504102F3C458F5F4C459F55E
:102C980058504E2659504F22000E5022000E5122F5
:102CA80047504202F3C458F5F4C459F55850542615
:102CB80059505522000E5622000E57224650430204
:102CC800F3C458F5F4C459F55850542659505522B0
:102CD800000E5622000E572247504302F3C458F5FF
:102CE800F4C459F55850496E59504A6E4B6A4C6AAB
:102CF8004BC54CF54AC54BF549C54AF5496A495093
:102D080054264A5055224B5056224C5057224EC5F5
:102D180049F54FC54AF550C54BF551C54CF5190E47
:102D28009BEF16F0D8904C324B324A324932E82E9B
:102D380096EF16F0495054264A5055224B505622C9
:102D48004C50572250C551F54FC550F54EC54FF55B
:102D58004E6A525053C549F54A6A4926000E4A221E
:102D6800820E4924586EFF0E4A20596ED1EF16F094
:102D7800D890543655365636573651AEC6EF16F0FB
:102D8800C8EF16F0C9EF16F05480D8904E364F367B
:102D9800503651365806D8A0590656AED6EF16F01A
:102DA800D8EF16F0BCEF16F0000E526E51AEDFEF02
:102DB80016F0E1EF16F005EF17F0FF0E4E14496E0E
:102DC800FF0E4F144A6EFF0E50144B6E7F0E5114B7
:102DD8004C6E49504A104B104C10D8B4F6EF16F010
:102DE800F8EF16F0FCEF16F0010E526E05EF17F033
:102DF80054A001EF17F003EF17F005EF17F0F8EF05
:102E080016F05250D8B40BEF17F00DEF17F031EF62
:102E180017F0010E5426000E55225622572257A0AD
:102E280018EF17F01AEF17F031EF17F054C549F5FE
:102E380055C54AF556C54BF557C54CF54C344C327B
:102E48004B324A32493249C554F54AC555F54BC546
:102E580056F54CC557F5584A592A59BE3CEF17F054
:102E6800595008E15828D8A03CEF17F03EEF17F06A
:102E780048EF17F0000E546E000E556E800E566E19
:102E88007F0E576E76EF17F059BE55EF17F0595071
:102E980006E15804D8B053EF17F055EF17F061EF7B
:102EA80017F0000E546E000E556E000E566E000E92
:102EB800576E000E4D6E76EF17F058C553F5FF0E9E
:102EC8005416FF0E55167F0E5616000E571653A0B1
:102ED80070EF17F072EF17F073EF17F0568ED89067
:102EE8005330576E4D50571254C541F555C542F5EC
:102EF80056C543F557C544F512001350800B206E94
:102F080013501324276E12AE8CEF17F08EEF17F0C4
:102F18008FEF17F027802750D8B495EF17F097EF69
:102F280017F0ACEF17F02728D8A49DEF17F09FEF04
:102F380017F0A7EF17F0000E106E000E116E000EBE
:102F4800126E000E136E128E000E136EB4EF17F091
:102F5800000E106E000E116E000E126E000E136E33
:102F68001750800B201A17501724286E16AEBFEF83
:102F780017F0C1EF17F0C2EF17F028802850D8B427
:102F8800C8EF17F0CAEF17F0DFEF17F02828D8A41A
:102F9800D0EF17F0D2EF17F0DAEF17F0000E146E3B
:102FA800000E156E000E166E000E176E168E000EB1
:102FB800176EE7EF17F0000E146E000E156E000E78
:102FC800166E000E176E1450151016101710D8A490
:102FD800F0EF17F0F2EF17F00AEF18F0000E106E8E
:102FE800000E116E000E126E000E136E800E12127D
:102FF8007F0E13122050131210C510F511C511F5CC
:1030080012C512F513C513F54DEF19F02750D8A4C2
:1030180010EF18F012EF18F01CEF18F0000E106EF9
:10302800000E116E000E126E000E136E4DEF19F0A9
:10303800285027C518F5196A185E000E195A7F0E10
:103048001824216E000E1920226E10C51CF511C51A
:103058001DF512C51EF513C51FF5000E106E000EE6
:10306800116E000E126E000E136E000E236E000E0F
:10307800246E000E256E000E266E000E286E7DEF63
:1030880018F02850D8B44BEF18F04DEF18F064EF53
:1030980018F0D8901C361D361E361F36D8901036BC
:1030A80011361236133626AE5CEF18F05EEF18F0C4
:1030B8005FEF18F01080D890233624362536263650
:1030C80014501C5C15501D5816501E5817501F5888
:1030D800D8A071EF18F073EF18F07CEF18F0268C79
:1030E80014501C5E15501D5A16501E5A17501F5A60
:1030F800282A190E286483EF18F085EF18F045EF99
:1031080018F01C501D101E101F10D8B48EEF18F0A8
:1031180090EF18F0A8EF18F02380A8EF18F0D890D7
:10312800103611361236133626AE9DEF18F09FEF83
:1031380018F0A0EF18F01080D890233624362536E2
:1031480026362106D8A0220612AEADEF18F0AFEF52
:1031580018F093EF18F0000E286E26AEB6EF18F0B0
:10316800B8EF18F0DCEF18F0FF0E2314186EFF0EFE
:103178002414196EFF0E25141A6E7F0E26141B6E6A
:10318800185019101A101B10D8B4CDEF18F0CFEF43
:1031980018F0D3EF18F0010E286EDCEF18F010A02D
:1031A800D8EF18F0DAEF18F0DCEF18F0CFEF18F0DE
:1031B8002850D8B4E2EF18F0E4EF18F008EF19F04F
:1031C800010E1026000E11221222132213A0EFEF77
:1031D80018F0F1EF18F008EF19F010C518F511C53F
:1031E80019F512C51AF513C51BF51B341B321A3213
:1031F8001932183218C510F519C511F51AC512F586
:103208001BC513F5214A222A22BE13EF19F02250BA
:1032180008E12128D8A013EF19F015EF19F020EFD5
:1032280019F0000E226E2168000E106E000E116E4D
:10323800000E126E000E136E22BE2DEF19F02250F2
:1032480006E12104D8B02BEF19F02DEF19F03BEF70
:1032580019F0000E226E000E216E000E106E000E88
:10326800116E000E126E000E136E000E206E21C538
:1032780027F527A042EF19F044EF19F047EF19F0AE
:10328800128E48EF19F0129ED8902730136EFEEF79
:1032980017F01200620E05017E6F050E7F6F05EFB5
:1032A8001BF060C5F6F461C5F7F40800F550250A6F
:1032B800D8B461EF19F063EF19F070EF19F060C539
:1032C800F6F461C5F7F40800F550CDEC1DF00501E2
:1032D800604B612B05EF1BF0010E6025666F000E39
:1032E8006121676F66C5F6F467C5F7F40800F55005
:1032F800730AD8A482EF19F084EF19F099EF19F046
:103308007EC5D9F47FC5DAF4DEC413F5DDC414F53F
:10331800E9EC1EF0020E05017E27000E7F23020E47
:103328006027000E612305EF1BF0010E6025666F14
:10333800000E6121676F66C5F6F467C5F7F40800EB
:10334800F550690AD8A4ABEF19F0ADEF19F0D6EF34
:1033580019F07EC5D9F47FC5DAF4DEC409F5DDC4F9
:103368000AF5020E6025666F000E6121676F66C55B
:10337800F6F467C5F7F40800F550D00F0B6E09ECAA
:103388001EF009C513F50AC514F5E9EC1EF0020E86
:1033980005017E27000E7F23030E6027000E6123A0
:1033A80005EF1BF0010E6025666F000E6121676F47
:1033B80066C5F6F467C5F7F40800F550630AD8A4A3
:1033C800E8EF19F0EAEF19F0F8EF19F07EC5D9F433
:1033D8007FC5DAF4DF50CDEC1DF0020E05017E2723
:1033E800000E7F2393EF19F0020E6025666F000E22
:1033F8006121676F66C5F6F467C5F7F40800F550F4
:10340800660AD8A40AEF1AF00CEF1AF0FBEF1AF0CC
:103418007EC5D9F47FC5DAF4DEC478F5DEC479F563
:10342800DEC47AF5DEC47BF5040E7E27000E7F230A
:1034380078C541F579C542F57AC543F57BC544F5AC
:10344800030E6025666F000E6121676F66C5F6F48E
:1034580067C5F7F40800F5500A0DF3C468F5F4C41D
:1034680069F568C502F569C503F5000E03BEFF0ED0
:10347800046E056E010E14EC1BF002C545F503C57C
:1034880046F504C547F505C548F56CEC15F041C58A
:1034980078F542C579F543C57AF544C57BF578C515
:1034A80002F579C503F57AC504F57BC505F5EEEC9B
:1034B8001BF002C57CF503C57DF5010E05016025ED
:1034C800666F000E6121676F66C5F6F467C5F7F48D
:1034D8000800F5C468F5030E6025696F000E6121C8
:1034E8006A6F69C5F6F46AC5F7F40800F5506825EF
:1034F800A00F806F8051800A770FD8B086EF1AF03E
:1035080088EF1AF08FEF1AF08051766F776B76BFDD
:10351800770793EF1AF0000E776F080E766F76C56F
:1035280080F5E7EF1AF0380E666F000E676F030E2E
:103538006025686F000E6121696F68C5F6F469C57A
:10354800F7F40800F550665F000E675B80C56AF502
:103558006B6B6ABF6B0766516A1907E167516B1994
:10356800D8A4B9EF1AF0BBEF1AF0C5EF1AF06C0E39
:103578008025D96EDA6A050EDA222E0EDF6EE5EFA7
:103588001AF06C0E8025D96EDA6A050EDA227CC52F
:1035980002F57DC503F5000E056E0A0E046EB7EC44
:1035A8001EF00250DF6E7CC502F57DC503F5000EE6
:1035B800056E0A0E046E43EC1EF002C57CF503C5C9
:1035C8007DF50501800780BFEEEF1AF0ECEF1AF0E9
:1035D80097EF1AF06C0E136E050E146EE9EC1EF0E0
:1035E800040E05016027000E612305EF1BF060C57E
:1035F800F6F461C5F7F40800F550CDEC1DF06BEF5B
:1036080019F060C5F6F461C5F7F40800F550000933
:10361800D8A411EF1BF013EF1BF055EF19F01200AF
:103628000A6E0A50D8B41BEF1BF01DEF1BF03FEFDA
:103638001BF005BE24EF1BF022EF1BF03FEF1BF041
:1036480002C506F503C507F504C508F505C509F55E
:10365800061E071E081E091E062A000E072208223B
:10366800092206C50CF507C50DF508C50EF509C5EF
:103678000FF547EF1BF002C50CF503C50DF504C5A2
:103688000EF505C50FF50250031004100510D8A457
:1036980050EF1BF052EF1BF05CEF1BF0000E026EB8
:1036A800000E036E000E046E000E056EEDEF1BF0AB
:1036B800960E0B6E66EF1BF00B2AD8900F320E3267
:1036C8000D320C32000E0C14066E000E0D14076E2F
:1036D800000E0E14086EFE0E0F14096E0650071029
:1036E80008100910D8A47BEF1BF07DEF1BF060EFEA
:1036F8001BF08BEF1BF00B2A010E0C26000E0D227F
:103708000E220F22D8900F320E320D320C32000EDC
:103718000C14066E000E0D14076E000E0E14086EC3
:10372800FF0E0F14096E0650071008100910D8A4D0
:10373800A0EF1BF0A2EF1BF07FEF1BF0AAEF1BF02E
:103748000B06D8900C360D360E360F360EBEAFEF80
:103758001BF0B1EF1BF0B9EF1BF0020E0B60B7EFD7
:103768001BF0B9EF1BF0A4EF1BF00BB0BEEF1BF082
:10377800C0EF1BF0C1EF1BF00E9ED8900B320BC5AB
:1037880006F5076A086A096A06C509F5086A076A34
:10379800066A06500C1207500D1208500E120950F6
:1037A8000F120A50D8B4DBEF1BF0DDEF1BF0E5EF8A
:1037B8001BF005BEE4EF1BF0E2EF1BF0E5EF1BF09A
:1037C8000F8E0CC502F50DC503F50EC504F50FC522
:1037D80005F51200043405340B6E0B50D8A4F7EF2E
:1037E8001BF0F9EF1BF003EF1CF0000E026E000E49
:1037F800036E000E046E000E056E70EF1CF002C51D
:1038080006F503C507F504C508F505C509F5200E35
:1038180013EF1CF0D8900932083207320632E82E2E
:103828000EEF1CF006500A6E048EFF0E0216FF0EF5
:103838000316FF0E0416000E0516960E0B5E0BBE41
:103848002AEF1CF028EF1CF040EF1CF00B50800A08
:10385800970FD8B032EF1CF034EF1CF036EF1CF0A5
:10386800F9EF1BF0D89005320432033202320B3ED6
:1038780036EF1CF058EF1CF01F0E0B6446EF1CF0DF
:1038880048EF1CF050EF1CF0F9EF1BF0D89002360F
:103898000336043605360B060B50D8A456EF1CF039
:1038A80058EF1CF04AEF1CF00A50D8B45EEF1CF039
:1038B80060EF1CF068EF1CF0051E041E031E026C6E
:1038C800000E03220422052202C502F503C503F5F2
:1038D80004C504F505C505F512006AC53DF56BC5B7
:1038E8003EF56CC53FF56DC540F566C539F567C54C
:1038F8003AF568C53BF569C53CF535EC1FF039C5A7
:1039080045F53AC546F53BC547F53CC548F50501BB
:103918006451625D6E6F655163596F6F6EC502F5D4
:103928006FC503F5046A056A000E14EC1BF002C5A6
:1039380014F503C515F504C516F505C517F50501F4
:103948006451605D706F65516159716F70C502F5A2
:1039580071C503F5046A056A000E14EC1BF002C574
:1039680010F503C511F504C512F505C513F581EC6D
:1039780017F010C541F511C542F512C543F513C539
:1039880044F56CEC15F041C572F542C573F543C5B5
:1039980074F544C575F572C529F573C52AF574C55E
:1039A8002BF575C52CF56AC52DF56BC52EF56CC5BF
:1039B8002FF56DC530F50CEC13F029C560F52AC557
:1039C80061F52BC562F52CC563F51200050E056E71
:1039D8000F0E046EF10EE82EFED7042EFCD7052E2E
:1039E800FAD700F0000E0401186F000EC96E1969AD
:1039F800C18E050EE82EFED700F0C198C19A050EBB
:103A0800E82EFED700F0C150F00B0309C16EC18C3F
:103A1800050EE82EFED700F0C19C680E046EE40E79
:103A2800E82EFED7042EFCD700D0C150F00B0309B6
:103A3800C16EC18C050EE82EFED700F0C19C680E41
:103A4800046EE40EE82EFED7042EFCD700D0C15039
:103A5800F00B0309C16EC18C050EE82EFED700F0ED
:103A6800C19C680E046EE40EE82EFED7042EFCD727
:103A780000D0C150F00B0209C16EC18C050EE82EB2
:103A8800FED700F0C19C680E046EE40EE82EFED747
:103A9800042EFCD700D0280E7DEC1EF0080E7DEC1D
:103AA8001EF00F0E7DEC1EF0010E7DEC1EF0060ED2
:103AB8007DEC1EF01200EAEC1CF0020E7DEC1EF00C
:103AC800040100B76AEF1DF06EEF1DF05A6A5A2A1A
:103AD8006FEF1DF05A6A5A50026E036A046A056A4B
:103AE800C6B679EF1DF07DEF1DF05B6A5B2A7EEFAD
:103AF8001DF05B6A5B50066E076A086A096A030E66
:103B08000A6E12EC1FF002C560F503C561F50F0ED1
:103B18000501636FA00E626F000E656F000E646F83
:103B2800000E666F000E676FA00E686F400E696F1B
:103B3800000E6A6F000E6B6F000E6C6F000E6D6FDB
:103B480071EC1CF060C581F561C582F562C583F52D
:103B580063C584F5110E0501606F260E616F81C57E
:103B680062F582C563F583C564F584C565F54EECD9
:103B780019F0520E5B6E2B0E5A6E000EE82EFED711
:103B88005A2EFCD75B2EFAD700D061EF1DF081EFDB
:103B980000F0036E000E0401186F000EC96E19695B
:103BA800C18E050EE82EFED700F0C188C19A03C564
:103BB80002F5023A0F0E0216C150F00B0210C16E48
:103BC800050EE82EFED700F0C18C050EE82EFED7B4
:103BD80000F0C19C03C502F50F0E0216C150F00B90
:103BE8000210C16E050EE82EFED700F0C18C050E3E
:103BF800E82EFED700F0C19C680E026EE40EE82E97
:103C0800FED7022EFCD700D0120021EE0CF1050ED3
:103C1800DE6AE806FDE20B04126E12BE18EF1EF013
:103C280016EF1EF01AEF1EF03EEF1EF00C0E1224D7
:103C3800D96EDA6A050EDA2209C502F50AC503F556
:103C4800000E056E0A0E046EB7EC1EF00250300F1F
:103C5800DF6E09C502F50AC503F5000E056E0A0EEA
:103C6800046E43EC1EF002C509F503C50AF51206F9
:103C780011EF1EF00C0E096E050E0A6E1200000EF2
:103C8800076E000E066E04500510D8B44EEF1EF0F5
:103C980050EF1EF078EF1EF0010E086E58EF1EF080
:103CA800D89004360536082A05AE5DEF1EF05FEFA2
:103CB8001EF054EF1EF0D890063607360450025C0A
:103CC80005500358D8A06BEF1EF06DEF1EF072EF91
:103CD8001EF00450025E0550035A0680D890053243
:103CE8000432082E5FEF1EF006C502F507C503F57E
:103CF8001200036E000E0401186F000EC96E1969D8
:103D0800C18E050EE82EFED700F0C19AC19803C5F2
:103D180002F5023A0F0E02160F0E0216C150F00BF2
:103D28000210C16EC18C050EE82EFED700F0C19CB2
:103D3800050EE82EFED700F003C502F50F0E021699
:103D4800C150F00B0210C16EC18C050EE82EFED7D3
:103D580000F0C19C680E026EE40EE82EFED7022E1B
:103D6800FCD700D0120004500510D8B4BEEF1EF0E6
:103D7800C0EF1EF0E4EF1EF0010E066EC8EF1EF055
:103D8800D89004360536062A05AECDEF1EF0CFEFE3
:103D98001EF0C4EF1EF00450025C05500358D8A072
:103DA800D8EF1EF0DAEF1EF0DEEF1EF00450025ED0
:103DB8000550035AD89005320432062ECFEF1EF074
:103DC80002C502F503C503F51200000E0401186FC1
:103DD800000EC96E1969C18E050EE82EFED700F0D7
:103DE800C188C19A050EE82EFED700F005EF1FF036
:103DF80013C5D9F414C5DAF4DF50CDEC1DF0134A1D
:103E0800142A13C5D9F414C5DAF4DF50D8A40FEF77
:103E18001FF011EF1FF0FCEF1EF012000301F35129
:103E2800F30B0409F36FF3890AC5ECF3010E026E74
:103E3800000E036E000E046E000E056EF38FF38104
:103E4800F3B129EF1FF02BEF1FF024EF1FF0EB5118
:103E58000C6E0B6AEA510B24026E000E0C20036EE6
:103E68001200000E3D1A000E3E1A000E3F1A800E78
:103E7800401A39C529F53AC52AF53BC52BF53CC585
:103E88002CF53DC52DF53EC52EF53FC52FF540C592
:103E980030F50CEC13F029C539F52AC53AF52BC5D0
:103EA8003BF52CC53CF51200040EF66E3F0EF76E7E
:103EB800000EF86E0900F5C45DF501EE85F10E0EF1
:103EC800EE6AE806FDE15C6A0401080E5D6F000E0B
:103ED8005E6F000E5F6F000EF86E260EF76E000123
:103EE8005FEF1DF0D8C401F504010E990F99030185
:0D3EF8001A9F000E5D6E01C5D8F411000187
:020000040020DA
:10000000FFFFFFFFFFFFFFFFFFFFFFFFFFFFFFFF00
:10001000FFFFFFFFFFFFFFFFFFFFFFFFFFFFFFFFF0
:10002000FFFFFFFFFFFFFFFFFFFFFFFFFFFFFFFFE0
:10003000FFFFFFFFFFFFFFFFFFFFFFFFFFFFFFFFD0
:020000040030CA
:080000008CFFEFFF9FFFFFFFE3
:01000900FFF7
:00000001FF
