:0400000081EF00F09C
:100008000013001300130013400000134000F41203
:100018000013001300130013001300130013001340
:1000280000134000400040000013001300130013A9
:100038000013001300130013001300130013FE1223
:1000480000130013001300134000400000130013B6
:1000580000130013001340000013001300130013D3
:1000680000130013001300130013001300130013F0
:1000780000130013001300134000001300130013B3
:1000880000130013001300130013001300130013D0
:100098000013001300130013400000134000400039
:1000A80000130013001300130013001300130013B0
:1000B80000130013001300130013001300130013A0
:1000C8000013001300130013001300130013001390
:1000D8000013001300130013001300130013001380
:1000E800400000130013001340004000400040008F
:0E00F8000013001300130013FF0047EF25F064
:10260000002569323A2569323A2569322025636D01
:1026100000503A253166325620004C3A2569332560
:1026200000002C50800B356E2C502C24376E2BAEB6
:102630001CEF13F01EEF13F01FEF13F0378037502D
:10264000D8B425EF13F027EF13F03CEF13F0372841
:10265000D8A42DEF13F02FEF13F037EF13F0000E87
:10266000296E000E2A6E000E2B6E000E2C6E2B8E25
:10267000000E2C6E44EF13F0000E296E000E2A6E31
:10268000000E2B6E000E2C6E3050800B366E3550C7
:102690003618D8B44EEF13F050EF13F051EF13F09B
:1026A000358C30503024366E2FAE59EF13F05BEF7F
:1026B00013F05CEF13F036803650D8B462EF13F0AD
:1026C00064EF13F079EF13F03628D8A46AEF13F013
:1026D0006CEF13F074EF13F0000E2D6E000E2E6EE3
:1026E000000E2F6E000E306E2F8E000E306E81EFBA
:1026F00013F0000E2D6E000E2E6E000E2F6E000ECB
:10270000306E3750365CD8B088EF13F08AEF13F094
:10271000B1EF13F035AC8FEF13F091EF13F093EFAF
:1027200013F0800E351A37C538F536C537F538C57C
:1027300036F529C538F52DC529F538C52DF52AC535
:1027400038F52EC52AF538C52EF52BC538F52FC519
:102750002BF538C52FF52CC538F530C52CF538C507
:1027600030F5000E386E375036C531F5326A315EBD
:10277000000E325A32BEC6EF13F0325009E11A0E83
:10278000315CD8A0C6EF13F0C8EF13F0FFEF13F0E1
:1027900029502A102B102C10D8A4D1EF13F0D4EF0D
:1027A00013F0010ED5EF13F0000E386E000E296EF7
:1027B000000E2A6E000E2B6E000E2C6E36C537F5FD
:1027C00008EF14F038A0E7EF13F0E9EF13F0EFEFA4
:1027D00013F0D89038300109386EF1EF13F0D8902B
:1027E000383229A0F6EF13F0F8EF13F0F9EF13F0F9
:1027F000388E2C342C322B322A322932372A36505A
:10280000375CD8A006EF14F008EF14F0E2EF13F0F5
:1028100035BC0DEF14F00FEF14F04FEF14F03750FC
:10282000D8A415EF14F017EF14F021EF14F0000EF8
:10283000296E000E2A6E000E2B6E000E2C6E70EFAD
:1028400015F02D5029262E502A222F502B223050A1
:102850002C222CA02EEF14F030EF14F0DCEF14F04B
:1028600038A035EF14F037EF14F03DEF14F0D890A6
:1028700038300109386E3FEF14F0D890383229A073
:1028800044EF14F046EF14F047EF14F0388E2C3478
:102890002C322B322A322932372ADCEF14F02D5019
:1028A000295C2E502A582F502B582C50800A316EFC
:1028B0003050800A3158D8B060EF14F062EF14F055
:1028C0008DEF14F029502D5C316E2A502E58326E47
:1028D0002B502F58336E2C503058346EFF0E31244D
:1028E000296EFF0E32202A6EFF0E33202B6EFF0E54
:1028F00034202C6E800E351A386C3850D8A483EFF3
:1029000014F085EF14F095EF14F0010E2926000E57
:102910002A222B222C2295EF14F02D50295E2E50C6
:102920002A5A2F502B5A30502C5A29502A102B102B
:102930002C10D8A49EEF14F0A0EF14F0D5EF14F0F3
:102940003850D8A4A6EF14F0A8EF14F0D5EF14F087
:10295000000E296E000E2A6E000E2B6E000E2C6EDD
:1029600070EF15F0D89029362A362B362C3638AE33
:10297000BCEF14F0BEEF14F0BFEF14F0298038A0C4
:10298000C4EF14F0C6EF14F0CAEF14F0D880383654
:10299000CCEF14F0D89038363750D8B4D2EF14F0CA
:1029A000D4EF14F0D5EF14F037062BAEDAEF14F0B5
:1029B000DCEF14F0B2EF14F0000E366E38AEE3EF39
:1029C00014F0E5EF14F0FDEF14F038C531F57F0E8B
:1029D0003116D8B4EEEF14F0F0EF14F0F4EF14F079
:1029E000010E366EFDEF14F029A0F9EF14F0FBEFA5
:1029F00014F0FDEF14F0F0EF14F03650D8B403EFFC
:102A000015F005EF15F030EF15F0010E2926000E38
:102A10002A222B222C222CA010EF15F012EF15F0F9
:102A200030EF15F029C531F52AC532F52BC533F540
:102A30002CC534F53434343233323232313231C58C
:102A400029F532C52AF533C52BF534C52CF53728C1
:102A5000D8B42DEF15F02FEF15F030EF15F0372A21
:102A60003728D8B436EF15F038EF15F040EF15F0F1
:102A70003750D8A43EEF15F040EF15F052EF15F0A7
:102A8000000E296E000E2A6E000E2B6E000E2C6EAC
:102A90003750D8A44EEF15F050EF15F052EF15F067
:102AA000000E356E37A057EF15F059EF15F05CEFBB
:102AB00015F02B8E5DEF15F02B9ED89037302C6ED5
:102AC00035AE65EF15F067EF15F068EF15F02C8E59
:102AD00029C529F52AC52AF52BC52BF52CC52CF5BA
:102AE000120021EEDEF111EE1CF10B0EDBC4E3F45B
:102AF000E806FCE2000E2B6E0F0EB2EC24F09AEF0B
:102B000017F028EC21F02A6E79EF17F02B2A2B50C2
:102B1000F5EC25F09AEF17F02B50D8B492EF15F0A2
:102B200094EF15F09AEF15F02B062B50F5EC25F0ED
:102B30009AEF17F0000EF5EC25F09AEF17F018C594
:102B4000D9F419C5DAF40C0EDF6E20EE01F018503E
:102B5000D9261950DA22000EDF6E20EE02F018504E
:102B6000D9261950DA22000EDF6E20EE03F018503D
:102B7000D9261950DA22610EDF6E010E0501F66FBB
:102B80009AEF17F020EE03F01850D9261950DA22E8
:102B9000610EDE18D8B4CFEF15F0D1EF15F0D7EFF6
:102BA00015F0000E296E610E286EDBEF15F0000E99
:102BB000296E700E286E20EE03F01850D926195099
:102BC000DA2228C5DFF4090EF5EC25F020EE03F03B
:102BD0001850D9261950DA22DF5003EC24F02B507C
:102BE000F5EC25F09AEF17F02BC502F5036A000EFD
:102BF000056E030E046EABEC23F002500310D8A454
:102C000004EF16F006EF16F021EF16F018C5D9F410
:102C100019C5DAF4DF501A6E1A50026E036A000EFC
:102C2000056E0A0E046EABEC23F02A500A0DF35029
:102C30000224200F18C5D9F419C5DAF4DF6E40EF6D
:102C400016F018C5D9F419C5DAF4DF501A6E1A5007
:102C5000026E036A000E056E0A0E046EABEC23F0E2
:102C600018C5D9F419C5DAF40250DF5E2AC51AF581
:102C7000D00E1A2618C5D9F419C5DAF41A50DF2671
:102C800018C5D9F419C5DAF4DF501A6EFF0E1A24EC
:102C9000026E036AFF0E0322000E056E0C0E046E18
:102CA000ABEC23F0022818C5D9F419C5DAF4DF6EAD
:102CB0002A5003EC24F02B2A9AEF17F02BC502F5CB
:102CC000036A000E056E030E046EABEC23F0025097
:102CD0000310D8A46EEF16F070EF16F08FEF16F019
:102CE00020EE01F01850D9261950DA2210EE01F02A
:102CF0001850E1261950E222E7501A6E1A50026E5F
:102D0000036A000E056E0A0E046EABEC23F02A5027
:102D10000A0DF3500224200FDF6EB4EF16F020EE00
:102D200001F01850D9261950DA22DF501A6E1A50C5
:102D3000026E036A000E056E0A0E046EABEC23F001
:102D400020EE01F01850D9261950DA220250DF5E29
:102D50002AC51AF5D00E1A2620EE01F01850D926F1
:102D60001950DA221A50DF2620EE01F01850D92629
:102D70001950DA2210EE01F01850E1261950E22223
:102D8000E7501A6E1A50026E036A000E056E3C0E72
:102D9000046EABEC23F00250DF6E2A5003EC24F0FB
:102DA0005BEF16F02BC502F5036A000E056E030EED
:102DB000046EABEC23F002500310D8A4E2EF16F03F
:102DC000E4EF16F003EF17F020EE02F01850D926CA
:102DD0001950DA2210EE02F01850E1261950E222C2
:102DE000E7501A6E1A50026E036A000E056E0A0E44
:102DF000046EABEC23F02A500A0DF3500224200F8E
:102E0000DF6E28EF17F020EE02F01850D926195087
:102E1000DA22DF501A6E1A50026E036A000E056E37
:102E20000A0E046EABEC23F020EE02F01850D92607
:102E30001950DA220250DF5E2AC51AF5D00E1A2682
:102E400020EE02F01850D9261950DA221A50DF2647
:102E500020EE02F01850D9261950DA2210EE02F0B6
:102E60001850E1261950E222E7501A6E1A50026EED
:102E7000036A000E056E3C0E046EABEC23F00250AC
:102E8000DF6E2A5003EC24F05BEF16F02B2A2B5058
:102E9000F5EC25F09AEF17F02B2A2B50F5EC25F0E6
:102EA0009AEF17F01C0E2B24D96EDA6A050EDA227F
:102EB000DF501A6E1B6A1B50000AD8B462EF17F07D
:102EC0009AEF17F01A50200AD8B44CEF17F01A0AEC
:102ED000D8B446EF17F0720AD8B4F4EF15F0050A2B
:102EE000D8B45EEF16F01E0AD8B4D2EF16F09AEFFF
:102EF00017F02A501A6E1B6A1B50000AD8B483EFD1
:102F000017F052EF17F01A502A0AD8B4C2EF15F092
:102F10006B0AD8B486EF15F0030AD8B48CEF15F01D
:102F2000010AD8B49FEF15F0070AD8B4BDEF15F029
:102F300052EF17F00501F651D8B4A1EF17F0A3EF47
:102F400017F081EF15F012004450800B4D6E445085
:102F50004424536E43AEAFEF17F0B1EF17F0B2EF6A
:102F600017F053805350D8B4B8EF17F0BAEF17F0FA
:102F7000CDEF17F05328D8A4C0EF17F0C2EF17F029
:102F8000CAEF17F0000E416E000E426E000E436E47
:102F9000000E446E438ED5EF17F0000E416E000E0A
:102FA000426E000E436E000E446E4850800B4D1A68
:102FB00048504824526E47AEE0EF17F0E2EF17F0AA
:102FC000E3EF17F052805250D8B4E9EF17F0EBEF6F
:102FD00017F0FEEF17F05228D8A4F1EF17F0F3EF37
:102FE00017F0FBEF17F0000E456E000E466E000E58
:102FF000476E000E486E478E06EF18F0000E456EC5
:10300000000E466E000E476E000E486E5250D8B449
:103010000CEF18F00EEF18F016EF18F05350D8A47C
:1030200014EF18F016EF18F020EF18F0000E416EB4
:10303000000E426E000E436E000E446EB8EF19F0A3
:1030400047504102F3C458F5F4C459F558504E6E38
:103050004F6A506A516A5950546E556A566A576A97
:1030600046504202F3C458F5F4C459F558504E2660
:10307000000E4F225022512259505426000E552244
:103080005622572245504302F3C458F5F4C459F56B
:1030900058504E26000E4F2250225122595054268D
:1030A000000E55225622572250C551F54FC550F5F6
:1030B0004EC54FF54E6A45504202F3C458F5F4C46C
:1030C00059F558504E2659504F22000E5022000EEE
:1030D000512246504102F3C458F5F4C459F55850F2
:1030E0004E2659504F22000E5022000E512250C53C
:1030F00051F54FC550F54EC54FF54E6A455041024A
:10310000F3C458F5F4C459F558504E2659504F227F
:10311000000E5022000E512247504202F3C458F5CF
:10312000F4C459F55850542659505522000E5622D1
:10313000000E572246504302F3C458F5F4C459F523
:103140005850542659505522000E5622000E572230
:1031500047504302F3C458F5F4C459F55850496E2A
:1031600059504A6E4B6A4C6A4BC54CF54AC54BF5F3
:1031700049C54AF5496A495054264A5055224B5090
:1031800056224C5057224EC549F54FC54AF550C5F9
:103190004BF551C54CF5190ED3EF18F0D8904C32C1
:1031A0004B324A324932E82ECEEF18F049505426BD
:1031B0004A5055224B5056224C50572250C551F57B
:1031C0004FC550F54EC54FF54E6A525053C549F59F
:1031D0004A6A4926000E4A22820E4924586EFF0E82
:1031E0004A20596E09EF19F0D890543655365636A4
:1031F000573651AEFEEF18F000EF19F001EF19F05D
:103200005480D8904E364F36503651365806D8A096
:10321000590656AE0EEF19F010EF19F0F4EF18F052
:10322000000E526E51AE17EF19F019EF19F03DEF85
:1032300019F0FF0E4E14496EFF0E4F144A6EFF0E2A
:1032400050144B6E7F0E51144C6E49504A104B1067
:103250004C10D8B42EEF19F030EF19F034EF19F00C
:10326000010E526E3DEF19F054A039EF19F03BEF0B
:1032700019F03DEF19F030EF19F05250D8B443EF88
:1032800019F045EF19F069EF19F0010E5426000E00
:1032900055225622572257A050EF19F052EF19F03D
:1032A00069EF19F054C549F555C54AF556C54BF5B2
:1032B00057C54CF54C344C324B324A32493249C531
:1032C00054F54AC555F54BC556F54CC557F5584A02
:1032D000592A59BE74EF19F0595008E15828D8A05E
:1032E00074EF19F076EF19F080EF19F0000E546EBC
:1032F000000E556E800E566E7F0E576EAEEF19F0B3
:1033000059BE8DEF19F0595006E15804D8B08BEF33
:1033100019F08DEF19F099EF19F0000E546E000EB0
:10332000556E000E566E000E576E000E4D6EAEEFCF
:1033300019F058C553F5FF0E5416FF0E55167F0EA3
:103340005616000E571653A0A8EF19F0AAEF19F061
:10335000ABEF19F0568ED8905330576E4D50571230
:1033600054C541F555C542F556C543F557C544F515
:103370001200820E0501AD6F050EAE6F82EF1BF0DD
:1033800080C5F6F481C5F7F4000EF86E0800F5501C
:10339000250AD8B4CEEF19F0D0EF19F0DFEF19F00D
:1033A00080C5F6F481C5F7F4000EF86E0800F550FC
:1033B00003EC24F00501804B812B82EF1BF0010E02
:1033C00080258A6F000E81218B6F8AC5F6F48BC52C
:1033D000F7F4000EF86E0800F550730AD8A4F3EF66
:1033E00019F0F5EF19F00AEF1AF0ADC5D9F4AEC532
:1033F000DAF4DEC413F5DDC414F51EEC25F0020E7C
:103400000501AD27000EAE23020E8027000E81239A
:1034100082EF1BF0010E80258A6F000E81218B6FD9
:103420008AC5F6F48BC5F7F4000EF86E0800F55067
:10343000690AD8A41EEF1AF020EF1AF04BEF1AF029
:10344000ADC5D9F4AEC5DAF4DEC409F5DDC40AF5BC
:10345000020E80258A6F000E81218B6F8AC5F6F4DB
:103460008BC5F7F4000EF86E0800F550D00F0B6E08
:103470003EEC24F009C513F50AC514F51EEC25F041
:10348000020E0501AD27000EAE23030E8027000EAD
:10349000812382EF1BF0010E80258A6F000E8121AF
:1034A0008B6F8AC5F6F48BC5F7F4000EF86E080032
:1034B000F550630AD8A45FEF1AF061EF1AF06FEFCE
:1034C0001AF0ADC5D9F4AEC5DAF4DF5003EC24F040
:1034D000020E0501AD27000EAE2304EF1AF0020E16
:1034E00080258A6F000E81218B6F8AC5F6F48BC50B
:1034F000F7F4000EF86E0800F550660AD8A483EFC2
:103500001AF085EF1AF076EF1BF021EE91F1130E11
:10351000DE6AE806FDE2ADC5D9F4AEC5DAF4DEC474
:10352000A6F5DEC4A7F5DEC4A8F5DEC4A9F5040E31
:10353000AD27000EAE23000EA56FBBEF1AF0A6C597
:1035400041F5A7C542F5A8C543F5A9C544F5000E48
:10355000456E000E466E200E476E410E486EA4EC7E
:1035600017F041C5A6F542C5A7F543C5A8F544C562
:10357000A9F50501A52B030E80258A6F000E812178
:103580008B6F8AC5F6F48BC5F7F4000EF86E080051
:10359000F5C48CF5D00E8C258D6F8E6BFF0E8E23AF
:1035A000A5518F6F906B8D518F5D8E519059D8A022
:1035B000DCEF1AF0DEEF1AF09FEF1AF0A6C576F5F1
:1035C000A7C577F5A8C578F5A9C579F5CEEC21F0A2
:1035D00076C5AAF577C5ABF5010E050180258A6F82
:1035E000000E81218B6F8AC5F6F48BC5F7F4000EAF
:1035F000F86E0800F5C48CF5030E80258D6F000E63
:1036000081218E6F8DC5F6F48EC5F7F4000EF86E2D
:103610000800F5508C25A00FAC6F62EF1BF0ACC515
:103620008AF58B6B8ABF8B07010E80258C6F000E8D
:1036300081218D6F8CC5F6F48DC5F7F4000EF86E00
:103640000800F5C48EF5D00E8E258F6F906BFF0E9F
:1036500090238A518F1907E18B519019D8A433EF29
:103660001BF035EF1BF03FEF1BF0910EAC25D96E30
:10367000DA6A050EDA222E0EDF6E60EF1BF0910E75
:10368000AC25D96EDA6A050EDA22AAC502F5ABC5F9
:1036900003F5000E056E0A0E046EABEC23F002502B
:1036A000300FDF6EAAC502F5ABC503F5000E056E3F
:1036B0000A0E046E49EC23F002C5AAF503C5ABF56A
:1036C0000501AC07ACBF69EF1BF067EF1BF00FEF14
:1036D0001BF0910E136E050E146E1EEC25F0040EF9
:1036E00005018027000E812382EF1BF080C5F6F4D0
:1036F00081C5F7F4000EF86E0800F55003EC24F0D5
:10370000DAEF19F080C5F6F481C5F7F4000EF86E13
:103710000800F5500009D8A490EF1BF092EF1BF0C1
:10372000C0EF19F012001350800B206E13501324B9
:10373000276E12AE9EEF1BF0A0EF1BF0A1EF1BF067
:1037400027802750D8B4A7EF1BF0A9EF1BF0BEEFDE
:103750001BF02728D8A4AFEF1BF0B1EF1BF0B9EF97
:103760001BF0000E106E000E116E000E126E000E99
:10377000136E128E000E136EC6EF1BF0000E106E4D
:10378000000E116E000E126E000E136E1750800B9D
:10379000201A17501724286E16AED1EF1BF0D3EF66
:1037A0001BF0D4EF1BF028802850D8B4DAEF1BF0C0
:1037B000DCEF1BF0F1EF1BF02828D8A4E2EF1BF0A0
:1037C000E4EF1BF0ECEF1BF0000E146E000E156E14
:1037D000000E166E000E176E168E000E176EF9EFA5
:1037E0001BF0000E146E000E156E000E166E000E0D
:1037F000176E1450151016101710D8A402EF1CF0F5
:1038000004EF1CF01CEF1CF0000E106E000E116E89
:10381000000E126E000E136E800E12127F0E131227
:103820002050131210C510F511C511F512C512F56F
:1038300013C513F55FEF1DF02750D8A422EF1CF03D
:1038400024EF1CF02EEF1CF0000E106E000E116E17
:10385000000E126E000E136E5FEF1DF0285027C58C
:1038600018F5196A185E000E195A7F0E1824216E79
:10387000000E1920226E10C51CF511C51DF512C5CC
:103880001EF513C51FF5000E106E000E116E000E12
:10389000126E000E136E000E236E000E246E000ECC
:1038A000256E000E266E000E286E8FEF1CF028503D
:1038B000D8B45DEF1CF05FEF1CF076EF1CF0D890F1
:1038C0001C361D361E361F36D8901036113612366D
:1038D000133626AE6EEF1CF070EF1CF071EF1CF08B
:1038E0001080D890233624362536263614501C5C9A
:1038F00015501D5816501E5817501F58D8A083EF4A
:103900001CF085EF1CF08EEF1CF0268C14501C5E12
:1039100015501D5A16501E5A17501F5A282A190E94
:10392000286495EF1CF097EF1CF057EF1CF01C502B
:103930001D101E101F10D8B4A0EF1CF0A2EF1CF039
:10394000BAEF1CF02380BAEF1CF0D8901036113675
:103950001236133626AEAFEF1CF0B1EF1CF0B2EF0B
:103960001CF01080D89023362436253626362106C2
:10397000D8A0220612AEBFEF1CF0C1EF1CF0A5EFDD
:103980001CF0000E286E26AEC8EF1CF0CAEF1CF02B
:10399000EEEF1CF0FF0E2314186EFF0E2414196EA8
:1039A000FF0E25141A6E7F0E26141B6E1850191068
:1039B0001A101B10D8B4DFEF1CF0E1EF1CF0E5EF9C
:1039C0001CF0010E286EEEEF1CF010A0EAEF1CF0C8
:1039D000ECEF1CF0EEEF1CF0E1EF1CF02850D8B437
:1039E000F4EF1CF0F6EF1CF01AEF1DF0010E10269C
:1039F000000E11221222132213A001EF1DF003EF7B
:103A00001DF01AEF1DF010C518F511C519F512C5F6
:103A10001AF513C51BF51B341B321A321932183232
:103A200018C510F519C511F51AC512F51BC513F502
:103A3000214A222A22BE25EF1DF0225008E121282A
:103A4000D8A025EF1DF027EF1DF032EF1DF0000E7E
:103A5000226E2168000E106E000E116E000E126EA6
:103A6000000E136E22BE3FEF1DF0225006E121042E
:103A7000D8B03DEF1DF03FEF1DF04DEF1DF0000EF3
:103A8000226E000E216E000E106E000E116E000EE2
:103A9000126E000E136E000E206E21C527F527A0B2
:103AA00054EF1DF056EF1DF059EF1DF0128E5AEF36
:103AB0001DF0129ED8902730136E10EF1CF01200EC
:103AC0000C0E0501CA6F000ECB6F000ECC6F610E9D
:103AD000CD6F21EEEAF111EEB9F10B0EDBC4E3F488
:103AE000E806FCE2000E0201296F000E2A6FD4ECFA
:103AF00022F0010E0501F66FD8EC25F069EF1EF0FB
:103B0000000E6A6F000E6B6FC80E6C6F420E6D6F09
:103B1000000E666F000E676F000E686F000E696F13
:103B2000000E656F000E646F0A0E636F280E626FE1
:103B3000040E0A6EC6B89FEF1DF0A3EF1DF0B76B21
:103B4000B72BA5EF1DF00501B76BB751066E076ADD
:103B5000086A096A040100B9B0EF1DF0B5EF1DF065
:103B60000501B86BB82BB7EF1DF00501B86BB85164
:103B7000026E036A046A056A6DEC25F002C560F501
:103B800003C561F57FEC1EF060C576F561C577F57C
:103B900062C578F563C579F5CEEC21F00501765163
:103BA000C96F69EF1EF0040100B7D9EF1DF0DEEF19
:103BB0001DF00501B76BB72BE0EF1DF00501B76BEA
:103BC000B751026E036A046A056AC6B6EAEF1DF0D1
:103BD000EEEF1DF0B86BB82BF0EF1DF00501B86BE0
:103BE000B851066E076A086A096A030E0A6E6DEC20
:103BF00025F002C560F503C561F50F0E0501636F81
:103C00006269000E656F000E646F000E666F000E35
:103C1000676FA00E686F400E696F000E6A6F000E2E
:103C20006B6F000E6C6F000E6D6F7FEC1EF060C549
:103C3000C5F561C5C6F562C5C7F563C5C8F569EFC9
:103C40001EF0400EF5EC25F0110E0501806F260EDA
:103C5000816FC5C582F5C6C583F5C7C584F5C8C5DE
:103C600085F5B9EC19F069EF1EF0490EF5EC25F079
:103C70001A0E0501806F260E816FC9C582F5836B10
:103C8000B9EC19F069EF1EF0CA0EAF6F050EB06FF8
:103C900065EC20F069EF1EF0FD51B76FB86BB851BD
:103CA000000AD8B456EF1EF044EF1EF0B7510A0ACE
:103CB000D8B480EF1DF01E0AD8B4D3EF1DF00A0A65
:103CC000D8B421EF1EF0360AD8B435EF1EF044EF19
:103CD0001EF00501F651D8A470EF1EF072EF1EF031
:103CE0004CEF1EF0020EB2EC24F0CA0E186E050E58
:103CF000196E71EC15F07CEF1DF081EF00F06AC5D4
:103D000002F56BC503F56CC504F56DC505F566C513
:103D100006F567C507F568C508F569C509F552ECEC
:103D200022F0D8B096EF1EF098EF1EF012EF1FF0C1
:103D30006AC53DF56BC53EF56CC53FF56DC540F5F3
:103D400066C539F567C53AF568C53BF569C53CF503
:103D500090EC25F039C545F53AC546F53BC547F524
:103D60003CC548F505016451625D5A6E6551635961
:103D70005B6E5AC502F55BC503F5046A056A000E61
:103D80008BEC1FF002C514F503C515F504C516F537
:103D900005C517F505016451605D5C6E655161599B
:103DA0005D6E5CC502F55DC503F5046A056A000E2B
:103DB0008BEC1FF002C510F503C511F504C512F513
:103DC00005C513F593EC1BF010C541F511C542F57F
:103DD00012C543F513C544F5A4EC17F041C56EF5C3
:103DE00042C56FF543C570F544C571F56EC529F53B
:103DF0006FC52AF570C52BF571C52CF56AC52DF573
:103E00006BC52EF56CC52FF56DC530F511EC13F0B3
:103E100029C560F52AC561F52BC562F52CC563F58A
:103E20008AEF1FF066C53DF567C53EF568C53FF5ED
:103E300069C540F56AC539F56BC53AF56CC53BF502
:103E40006DC53CF590EC25F039C545F53AC546F50C
:103E50003BC547F53CC548F505016451625D5A6EA6
:103E6000655163595B6E5AC502F55BC503F5046A7B
:103E7000056A000E8BEC1FF002C514F503C515F59D
:103E800004C516F505C517F505016451605D5C6E46
:103E9000655161595D6E5CC502F55DC503F5046A47
:103EA000056A000E8BEC1FF002C510F503C511F575
:103EB00004C512F505C513F593EC1BF010C541F5CB
:103EC00011C542F512C543F513C544F5A4EC17F02E
:103ED00041C572F542C573F543C574F544C575F522
:103EE0006AC539F56BC53AF56CC53BF56DC53CF552
:103EF00072C53DF573C53EF574C53FF575C540F512
:103F000090EC25F039C560F53AC561F53BC562F521
:103F10003CC563F512000A6E0A50D8B492EF1FF048
:103F200094EF1FF0B6EF1FF005BE9BEF1FF099EF67
:103F30001FF0B6EF1FF002C506F503C507F504C56F
:103F400008F505C509F5061E071E081E091E062AE6
:103F5000000E07220822092206C50CF507C50DF53B
:103F600008C50EF509C50FF5BEEF1FF002C50CF52B
:103F700003C50DF504C50EF505C50FF50250031078
:103F800004100510D8A4C7EF1FF0C9EF1FF0D3EF3E
:103F90001FF0000E026E000E036E000E046E000E87
:103FA000056E64EF20F0960E0B6EDDEF1FF00B2A0E
:103FB000D8900F320E320D320C32000E0C14066EF9
:103FC000000E0D14076E000E0E14086EFE0E0F1478
:103FD000096E0650071008100910D8A4F2EF1FF060
:103FE000F4EF1FF0D7EF1FF002EF20F00B2A010EC5
:103FF0000C26000E0D220E220F22D8900F320E3208
:104000000D320C32000E0C14066E000E0D14076EED
:10401000000E0E14086EFF0E0F14096E06500710E6
:1040200008100910D8A417EF20F019EF20F0F6EFD0
:104030001FF021EF20F00B06D8900C360D360E360F
:104040000F360EBE26EF20F028EF20F030EF20F0E4
:10405000020E0B602EEF20F030EF20F01BEF20F06F
:104060000BB035EF20F037EF20F038EF20F00E9E48
:10407000D8900B320BC506F5076A086A096A06C5AF
:1040800009F5086A076A066A06500C1207500D12F5
:1040900008500E1209500F120A50D8B452EF20F0F7
:1040A00054EF20F05CEF20F005BE5BEF20F059EFFD
:1040B00020F05CEF20F00F8E0CC502F50DC503F566
:1040C0000EC504F50FC505F512000C0EB2EC24F078
:1040D000630E0501FD656FEF20F071EF20F027EF13
:1040E00021F0640EFD5F20EE02F0AF51D926B051F1
:1040F000DA22DF2A20EE02F0AF51D926B051DA22BF
:104100003B0EDF6486EF20F088EF20F0F3EF20F025
:1041100020EE02F0AF51D926B051DA22000EDF6E48
:1041200020EE01F0AF51D926B051DA22DF2A20EE7D
:1041300001F0AF51D926B051DA223B0EDF64A3EF74
:1041400020F0A5EF20F0F3EF20F020EE01F0AF51CA
:10415000D926B051DA22000EDF6EAFC5D9F4B0C552
:10416000DAF4DF2AAFC5D9F4B0C5DAF40B0EDF6498
:10417000BCEF20F0BEEF20F0F3EF20F0AFC5D9F494
:10418000B0C5DAF40C0EDF64C8EF20F0CAEF20F0FF
:10419000D2EF20F0AFC5D9F4B0C5DAF4010EDF6E6E
:1041A000F3EF20F020EE03F0AF51D926B051DA2220
:1041B000610EDE18D8B4DFEF20F0E1EF20F0E7EF7A
:1041C00020F0000EB66F610EB56FEBEF20F0000E21
:1041D000B66F700EB56F20EE03F0AF51D926B05117
:1041E000DA22B5C5DFF4020EB2EC24F0010E0501AF
:1041F000806F260E816FAFC5D9F4B0C5DAF4DF50F9
:10420000B16FB151826F836B20EE01F0AF51D926AF
:10421000B051DA22DF50B26FB251846F856B20EE5D
:1042200002F0AF51D926B051DA22DF50B36FB3514B
:10423000866F876B20EE03F0AF51D926B051DA229A
:10424000DF50B46FB451886F896BB9EC19F012006C
:10425000000E156E000E166E000E176E21EECEF1DA
:1042600011EE05F10F0EDBC4E3F4E806FCE2000EEC
:104270000401286FF00ECB6EF00E296F050EE82EAC
:10428000FED700F0000EC36EF00ED318D8B44BEF7B
:1042900021F04DEF21F044EF21F0020E036E380EB5
:1042A000026EAD0EE82EFED7022EFCD7032EFAD7F3
:1042B00000F080EF21F0030E176461EF21F063EF4F
:1042C00021F065EF21F0000E176E17C502F5080EFC
:1042D000036E000E046E022A71EF21F004340432E2
:1042E0000332022E6EEF21F00350FF0AC36E050E5B
:1042F000E82EFED700F0D350FF0AF00B166E172AF7
:104300001650D8B486EF21F088EF21F05BEF21F052
:104310001706000EC36E050EE82EFED700F0F00E55
:10432000D318D8A496EF21F098EF21F08FEF21F069
:10433000F00EC36E020E036E380E026EAD0EE82E46
:10434000FED7022EFCD7032EFAD700F0A9EF21F0FA
:10435000152A15C502F51650036E046A022AB4EF39
:1043600021F0D89003360436022EB1EF21F003AECF
:10437000BCEF21F0BEEF21F0A8EF21F01750040DA3
:10438000050EF324026E050EF420036E1550022470
:10439000D96E000E0320DA6EDF5012000501783569
:1043A00079357F6F7F51D8A4D8EF21F0DAEF21F073
:1043B000E4EF21F0000E766F000E776F000E786F3D
:1043C000000E796F51EF22F076C57AF577C57BF54F
:1043D00078C57CF579C57DF5200EF4EF21F0D890F5
:1043E0007D337C337B337A33E82EEFEF21F07A5143
:1043F0007E6F788FFF0E7617FF0E7717FF0E7817F8
:10440000000E7917960E7F5F7FBF0BEF22F009EF4A
:1044100022F021EF22F07F51800A970FD8B013EFDE
:1044200022F015EF22F017EF22F0DAEF21F0D8900A
:1044300079337833773376337F3F17EF22F039EFD4
:1044400022F01F0E7F6527EF22F029EF22F031EFD7
:1044500022F0DAEF21F0D89076377737783779374E
:104460007F077F51D8A437EF22F039EF22F02BEFEE
:1044700022F07E51D8B43FEF22F041EF22F049EF15
:1044800022F0791F781F771F766D000E772378232F
:10449000792376C576F577C577F578C578F579C54A
:1044A00079F51200000E02140A6E000E03140B6E52
:1044B000800E04140C6E7F0E05140D6E0A500B1046
:1044C0000C100D10D8A467EF22F069EF22F071EF05
:1044D00022F0000E026E000E036E000E046E000E3F
:1044E000056E000E06140A6E000E07140B6E800E89
:1044F00008140C6E7F0E09140D6E0A500B100C1070
:104500000D10D8A486EF22F088EF22F090EF22F071
:10451000000E066E000E076E000E086E000E096E8D
:1045200005AE95EF22F097EF22F0A0EF22F0026C9B
:10453000031ED8B0032A041ED8B0042A800E0556E4
:1045400009AEA5EF22F0A7EF22F0B0EF22F0066C43
:10455000071ED8B0072A081ED8B0082A800E0956B0
:10456000000E021A000E031A000E041A800E051A1D
:10457000000E061A000E071A000E081A800E091AFD
:104580000650025C0750035808500458095005585B
:10459000D8B0CDEF22F0CFEF22F0D2EF22F0D890BA
:1045A000D3EF22F0D8801200050E056E0F0E046EB8
:1045B000F10EE82EFED7042EFCD7052EFAD700F018
:1045C000000E0401186F000EC96E1969C18E050E28
:1045D000E82EFED700F0C198C19A050EE82EFED74E
:1045E00000F0C150F00B0309C16EC18C050EE82E1E
:1045F000FED700F0C19C680E046EE40EE82EFED7D4
:10460000042EFCD700D0C150F00B0309C16EC18C41
:10461000050EE82EFED700F0C19C680E046EE40E75
:10462000E82EFED7042EFCD700D0C150F00B0309B2
:10463000C16EC18C050EE82EFED700F0C19C680E3D
:10464000046EE40EE82EFED7042EFCD700D0C15035
:10465000F00B0209C16EC18C050EE82EFED700F0EA
:10466000C19C680E046EE40EE82EFED7042EFCD723
:1046700000D0280EB2EC24F0080EB2EC24F00F0E9D
:10468000B2EC24F0010EB2EC24F0060EB2EC24F0F1
:104690001200000E076E05BE52EF23F050EF23F01C
:1046A00058EF23F0046C051ED8B0052A010E076EE2
:1046B00003BE5FEF23F05DEF23F065EF23F0026CA4
:1046C000031ED8B0032A010E071A000E096E000E51
:1046D000086E04500510D8B470EF23F072EF23F089
:1046E0009AEF23F0010E066E7AEF23F0D89004368D
:1046F0000536062A05AE7FEF23F081EF23F076EF33
:1047000023F0D890083609360450025C055003584F
:10471000D8A08DEF23F08FEF23F094EF23F0045017
:10472000025E0550035A0880D89005320432062EE6
:1047300081EF23F00750D8B4A0EF23F0A2EF23F0CD
:10474000A6EF23F0086C091ED8B0092A08C502F5A7
:1047500009C503F51200000E076E03BEB4EF23F087
:10476000B2EF23F0BAEF23F0026C031ED8B0032A95
:10477000010E076E05BEC1EF23F0BFEF23F0C5EFBA
:1047800023F0046C051ED8B0052A04500510D8B4D7
:10479000CCEF23F0CEEF23F0F2EF23F0010E066E04
:1047A000D6EF23F0D89004360536062A05AEDBEFA7
:1047B00023F0DDEF23F0D2EF23F00450025C05502C
:1047C0000358D8A0E6EF23F0E8EF23F0ECEF23F056
:1047D0000450025E0550035AD89005320432062E6A
:1047E000DDEF23F00750D8B4F8EF23F0FAEF23F011
:1047F000FEEF23F0026C031ED8B0032A02C502F5B7
:1048000003C503F51200036E000E0401186F000EBD
:10481000C96E1969C18E050EE82EFED700F0C18859
:10482000C19A03C502F5023A0F0E0216C150F00BF1
:104830000210C16E050EE82EFED700F0C18C050EE9
:10484000E82EFED700F0C19C03C502F50F0E02163C
:10485000C150F00B0210C16E050EE82EFED700F01D
:10486000C18C050EE82EFED700F0C19CE40E00D0EE
:1048700000D0E82EFCD700D000D0120021EE0CF1C1
:10488000050EDE6AE806FDE20B04126E12BE4DEF65
:1048900024F04BEF24F04FEF24F073EF24F00C0ED4
:1048A0001224D96EDA6A050EDA2209C502F50AC5A4
:1048B00003F5000E056E0A0E046EECEC24F00250B7
:1048C000300FDF6E09C502F50AC503F5000E056E4F
:1048D0000A0E046E78EC24F002C509F503C50AF54A
:1048E000120646EF24F00C0E096E050E0A6E120039
:1048F000000E076E000E066E04500510D8B483EF4C
:1049000024F085EF24F0ADEF24F0010E086E8DEF5A
:1049100024F0D89004360536082A05AE92EF24F02C
:1049200094EF24F089EF24F0D8900636073604502F
:10493000025C05500358D8A0A0EF24F0A2EF24F0A9
:10494000A7EF24F00450025E0550035A0680D89069
:1049500005320432082E94EF24F006C502F507C58F
:1049600003F51200036E000E0401186F000EC96EED
:104970001969C18E050EE82EFED700F0C19AC198C4
:1049800003C502F5023A0F0E02160F0E0216C150B1
:10499000F00B0210C16EC18C050EE82EFED700F0A0
:1049A000C19C050EE82EFED700F003C502F50F0EE0
:1049B0000216C150F00B0210C16EC18C050EE82E1C
:1049C000FED700F0C19C150E026EC60EE82EFED773
:1049D000022EFCD700D0120004500510D8B4F3EF1B
:1049E00024F0F5EF24F019EF25F0010E066EFDEF2F
:1049F00024F0D89004360536062A05AE02EF25F0DD
:104A000004EF25F0F9EF24F00450025C0550035840
:104A1000D8A00DEF25F00FEF25F013EF25F004508F
:104A2000025E0550035AD89005320432062E04EF78
:104A300025F002C502F503C503F51200000E0401BE
:104A4000186F000EC96E1969C18E050EE82EFED7CB
:104A500000F0C188C19A050EE82EFED700F03AEFAB
:104A600025F013C5D9F414C5DAF4DF5003EC24F0B3
:104A7000134A142A13C5D9F414C5DAF4DF50D8A4A4
:104A800044EF25F046EF25F031EF25F01200660ED9
:104A9000F66E4B0EF76E000EF86E01EECEF110EED4
:104AA00029F00900F5C4EEF4E550E150FAE101EE19
:104AB00000F2140EEE6AE806FDE101EEF7F1070ED2
:104AC000EE6AE806FDE10401080E5D6F000E5E6F00
:104AD000000E5F6F000160EF1DF00301F351F30B57
:104AE0000409F36FF3890AC5ECF3010E026E000EA0
:104AF000036E000E046E000E056EF38FF381F3B1AA
:104B000084EF25F086EF25F07FEF25F0EB510C6E5A
:104B10000B6AEA510B24026E000E0C20036E120089
:104B2000000E3D1A000E3E1A000E3F1A800E401A6B
:104B300039C529F53AC52AF53BC52BF53CC52CF5F9
:104B40003DC52DF53EC52EF53FC52FF540C530F5C9
:104B500011EC13F029C539F52AC53AF52BC53BF5FB
:104B60002CC53CF5120031323341343536423738EA
:104B700039432A30234448483A4D4D3A535320583C
:0F4B80006D0048483A4D4D3A535320586D00018F
:104B9000890E03011A6FB10E1B6FF90E196F000E0B
:104BA0000501FD6FD68EA18EB19E0301658F1200A7
:104BB000010E0501F66FC8EC25F0C78804010899BD
:0E4BC0000989D68A9E8E0E89000E0F6F120094
:104BD000D8C401F504010E990F9903011A9F000E24
:104BE0000501F66F01C5D8F41100046E0450800F62
:064BF000B2EC24F01200FB
:0A4BF800B19E0501FD2B1100110014
:020000040020DA
:10000000FFFFFFFFFFFFFFFFFFFFFFFFFFFFFFFF00
:10001000FFFFFFFFFFFFFFFFFFFFFFFFFFFFFFFFF0
:10002000FFFFFFFFFFFFFFFFFFFFFFFFFFFFFFFFE0
:10003000FFFFFFFFFFFFFFFFFFFFFFFFFFFFFFFFD0
:020000040030CA
:080000008CFFEFFF9FFFFFFFE3
:01000900FFF7
:00000001FF
