:0400000081EF00F09C
:10000800951295129512951240009512400089128A
:1000180095129512951295129512951295129512A0
:1000280095124000400040009512951295129512C5
:100038009512951295129512951295129512931282
:10004800951295129512951240004000951295123E
:1000580095129512951240009512951295129512C7
:100068009512951295129512951295129512951250
:1000780095129512951295124000951295129512A7
:100088009512951295129512951295129512951230
:100098009512951295129512400095124000400055
:1000A8009512951295129512951295129512951210
:1000B8009512951295129512951295129512951200
:1000C80095129512951295129512951295129512F0
:1000D80095129512951295129512951295129512E0
:1000E80040009512951295124000400040004000D3
:0E00F8009512951295129512FF0077EF24F0E5
:10260000002569323A2669323A2569322025636D00
:1026100000503A25316632205620004C3A25693365
:0326200025000092
:102624000C0E0501CE6F000ECF6F000ED06F610E41
:10263400D16F21EEE2F111EEB9F10B0EDBC4E3F43C
:10264400E806FCE203EC22F0010E0501EE6FF3EC68
:1026540024F016EF14F0000E6A6F000E6B6FC80EB4
:102664006C6F420E6D6F000E666F000E676F000E8A
:10267400686F000E696F000E656F000E646F0A0EBE
:10268400636F280E626F040E0A6EC6B84CEF13F027
:1026940050EF13F0B76BB72B52EF13F00501B76B84
:1026A400B751066E076A086A096A040100B95DEF4A
:1026B40013F062EF13F00501B86BB82B64EF13F05D
:1026C4000501B86BB851026E036A046A056A9DEC91
:1026D40024F002C560F503C561F5B1EC1DF060C5D9
:1026E40076F561C577F562C578F563C579F5FDECD6
:1026F40020F005017651CB6F16EF14F0040100B7FA
:1027040086EF13F08BEF13F00501B76BB72B8DEF4A
:1027140013F00501B76BB751026E036A046A056AC8
:10272400C6B697EF13F09BEF13F0B86BB82B9DEF81
:1027340013F00501B86BB851066E076A086A096A96
:10274400030E0A6E9DEC24F002C560F503C561F525
:102754000F0E0501636F6269000E656F000E646FF2
:10276400000E666F000E676FA00E686F400E696FF3
:10277400000E6A6F000E6B6F000E6C6F000E6D6FB3
:10278400B1EC1DF060C5C5F561C5C6F562C5C7F5F8
:1027940063C5C8F516EF14F0400E1FEC25F0110EBA
:1027A4000501806F260E816FC5C582F5C6C583F508
:1027B400C7C584F5C8C585F50AEC1AF016EF14F000
:1027C400490E1FEC25F01B0E0501806F260E816F4C
:1027D400CBC582F5836B0AEC1AF016EF14F0CE0E1B
:1027E400AF6F050EB06F97EC1FF016EF14F0F551B4
:1027F400B76FB86BB851000AD8B403EF14F0F1EF17
:1028040013F0B7510A0AD8B42DEF13F01E0AD8B446
:1028140080EF13F00A0AD8B4CEEF13F0360AD8B416
:10282400E2EF13F0F1EF13F00501EE51D8A41DEF20
:1028340014F01FEF14F0F9EF13F0020EE2EC23F0A2
:10284400000E0501CC6F88EF15F057EC20F0050160
:10285400CD6F63EF15F0CC2BCC511FEC25F088EF36
:1028640015F0CC51D8B439EF14F03BEF14F088EFE5
:1028740015F0CC07CC511FEC25F088EF15F00C0EA9
:10288400CE6F000ECF6F000ED06F610ED16F010EB0
:10289400EE6F88EF15F0010EEE6F88EF15F0610E04
:1028A400D119D8B458EF14F05AEF14F060EF14F0C3
:1028B400000ECA6F610EC96F64EF14F0000ECA6F88
:1028C400700EC96FC9C5D1F5090E1FEC25F00501BD
:1028D400D15132EC23F00501CC511FEC25F088EFE7
:1028E40015F0CCC502F5036A000E056E030E046EE6
:1028F400DAEC22F002500310D8A483EF14F085EF31
:1029040014F097EF14F0CEC502F5036A000E056EBD
:102914000A0E046EDAEC22F00501CD510A0DF350D3
:102924000224200FCE6FA6EF14F0CEC502F5036A81
:10293400000E056E0A0E046EDAEC22F00250050158
:10294400CE5FCD51D00FCE27FF0ECE25026E036A87
:10295400FF0E0322000E056E0C0E046EDAEC22F05C
:1029640002280501CE6FCD5132EC23F00501CC2BAA
:1029740088EF15F0CCC502F5036A000E056E030E50
:10298400046EDAEC22F002500310D8A4CCEF14F059
:10299400CEEF14F0E0EF14F0CFC502F5036A000E99
:1029A400056E0A0E046EDAEC22F00501CD510A0D13
:1029B400F3500224200FCF6FEFEF14F0CFC502F5D0
:1029C400036A000E056E0A0E046EDAEC22F0025061
:1029D4000501CF5FCD51D00FCF27CFC502F5036AD4
:1029E400000E056E3C0E046EDAEC22F00250050176
:1029F400CF6FCD5132EC23F0B8EF14F0CCC502F513
:102A0400036A000E056E030E046EDAEC22F0025027
:102A14000310D8A410EF15F012EF15F024EF15F001
:102A2400D0C502F5036A000E056E0A0E046EDAECD8
:102A340022F00501CD510A0DF3500224200FD06F6E
:102A440033EF15F0D0C502F5036A000E056E0A0EC9
:102A5400046EDAEC22F002500501D05FCD51D00FA4
:102A6400D027D0C502F5036A000E056E3C0E046E35
:102A7400DAEC22F002500501D06FCD5132EC23F094
:102A8400B8EF14F0B90ECC25D96EDA6A050EDA2245
:102A9400DF50B76FB86BB851000AD8B454EF15F0D3
:102AA40088EF15F0B751480AD8B473EF14F0050A4B
:102AB400D8B4BCEF14F01E0AD8B400EF15F088EFB8
:102AC40015F0CD51B76FB86BB851000AD8B46DEF9B
:102AD40015F044EF15F0B751230AD8B488EF15F078
:102AE400090AD8B451EF14F06B0AD8B42DEF14F0DE
:102AF400030AD8B433EF14F0010AD8B441EF14F048
:102B0400070AD8B44DEF14F044EF15F00501EE5167
:102B1400D8B48FEF15F091EF15F027EF14F029EFEB
:102B240013F081EF00F02C50800B356E2C502C24C8
:102B3400376E2BAEA0EF15F0A2EF15F0A3EF15F052
:102B440037803750D8B4A9EF15F0ABEF15F0C0EFCC
:102B540015F03728D8A4B1EF15F0B3EF15F0BBEF9B
:102B640015F0000E296E000E2A6E000E2B6E000E5C
:102B74002C6E2B8E000E2C6EC8EF15F0000E296EF5
:102B8400000E2A6E000E2B6E000E2C6E3050800B41
:102B9400366E35503618D8B4D2EF15F0D4EF15F0A0
:102BA400D5EF15F0358C30503024366E2FAEDDEF76
:102BB40015F0DFEF15F0E0EF15F036803650D8B49D
:102BC400E6EF15F0E8EF15F0FDEF15F03628D8A480
:102BD400EEEF15F0F0EF15F0F8EF15F0000E2D6E96
:102BE400000E2E6E000E2F6E000E306E2F8E000E15
:102BF400306E05EF16F0000E2D6E000E2E6E000ED8
:102C04002F6E000E306E3750365CD8B00CEF16F0D5
:102C14000EEF16F035EF16F035AC13EF16F015EF96
:102C240016F017EF16F0800E351A37C538F536C58D
:102C340037F538C536F529C538F52DC529F538C514
:102C44002DF52AC538F52EC52AF538C52EF52BC520
:102C540038F52FC52BF538C52FF52CC538F530C5FB
:102C64002CF538C530F5000E386E375036C531F5C1
:102C7400326A315E000E325A32BE4AEF16F03250DA
:102C840009E11A0E315CD8A04AEF16F04CEF16F0A9
:102C940083EF16F029502A102B102C10D8A455EFCE
:102CA40016F058EF16F0010E59EF16F0000E386EBC
:102CB400000E296E000E2A6E000E2B6E000E2C6E76
:102CC40036C537F58CEF16F038A06BEF16F06DEFC4
:102CD40016F073EF16F0D89038300109386E75EF9E
:102CE40016F0D890383229A07AEF16F07CEF16F05F
:102CF4007DEF16F0388E2C342C322B322A322932C6
:102D0400372A3650375CD8A08AEF16F08CEF16F0CD
:102D140066EF16F035BC91EF16F093EF16F0D3EF93
:102D240016F03750D8A499EF16F09BEF16F0A5EFE4
:102D340016F0000E296E000E2A6E000E2B6E000E89
:102D44002C6EF4EF17F02D5029262E502A222F50E6
:102D54002B2230502C222CA0B2EF16F0B4EF16F038
:102D640060EF17F038A0B9EF16F0BBEF16F0C1EF23
:102D740016F0D89038300109386EC3EF16F0D890A9
:102D8400383229A0C8EF16F0CAEF16F0CBEF16F0D0
:102D9400388E2C342C322B322A322932372A60EFE7
:102DA40017F02D50295C2E502A582F502B582C5098
:102DB400800A316E3050800A3158D8B0E4EF16F0F2
:102DC400E6EF16F011EF17F029502D5C316E2A5002
:102DD4002E58326E2B502F58336E2C503058346E80
:102DE400FF0E3124296EFF0E32202A6EFF0E33208F
:102DF4002B6EFF0E34202C6E800E351A386C385032
:102E0400D8A407EF17F009EF17F019EF17F0010E28
:102E14002926000E2A222B222C2219EF17F02D50DE
:102E2400295E2E502A5A2F502B5A30502C5A295092
:102E34002A102B102C10D8A422EF17F024EF17F02F
:102E440059EF17F03850D8A42AEF17F02CEF17F0E9
:102E540059EF17F0000E296E000E2A6E000E2B6E2D
:102E6400000E2C6EF4EF17F0D89029362A362B3644
:102E74002C3638AE40EF17F042EF17F043EF17F05F
:102E8400298038A048EF17F04AEF17F04EEF17F0FB
:102E9400D880383650EF17F0D89038363750D8B439
:102EA40056EF17F058EF17F059EF17F037062BAE1F
:102EB4005EEF17F060EF17F036EF17F0000E366E86
:102EC40038AE67EF17F069EF17F081EF17F038C5E8
:102ED40031F57F0E3116D8B472EF17F074EF17F096
:102EE40078EF17F0010E366E81EF17F029A07DEF11
:102EF40017F07FEF17F081EF17F074EF17F03650EB
:102F0400D8B487EF17F089EF17F0B4EF17F0010E7C
:102F14002926000E2A222B222C222CA094EF17F013
:102F240096EF17F0B4EF17F029C531F52AC532F53D
:102F34002BC533F52CC534F53434343233323232C4
:102F4400313231C529F532C52AF533C52BF534C5DF
:102F54002CF53728D8B4B1EF17F0B3EF17F0B4EF6E
:102F640017F0372A3728D8B4BAEF17F0BCEF17F0A8
:102F7400C4EF17F03750D8A4C2EF17F0C4EF17F01E
:102F8400D6EF17F0000E296E000E2A6E000E2B6E7F
:102F9400000E2C6E3750D8A4D2EF17F0D4EF17F0F0
:102FA400D6EF17F0000E356E37A0DBEF17F0DDEF2C
:102FB40017F0E0EF17F02B8EE1EF17F02B9ED8906F
:102FC40037302C6E35AEE9EF17F0EBEF17F0ECEF7E
:102FD40017F02C8E29C529F52AC52AF52BC52BF502
:102FE4002CC52CF512004450800B4D6E44504424E3
:102FF400536E43AE00EF18F002EF18F003EF18F031
:1030040053805350D8B409EF18F00BEF18F01EEFAB
:1030140018F05328D8A411EF18F013EF18F01BEF91
:1030240018F0000E416E000E426E000E436E000E4C
:10303400446E438E26EF18F0000E416E000E426E71
:10304400000E436E000E446E4850800B4D1A4850DB
:103054004824526E47AE31EF18F033EF18F034EFD6
:1030640018F052805250D8B43AEF18F03CEF18F0F0
:103074004FEF18F05228D8A442EF18F044EF18F09C
:103084004CEF18F0000E456E000E466E000E476EB3
:10309400000E486E478E57EF18F0000E456E000E76
:1030A400466E000E476E000E486E5250D8B45DEF67
:1030B40018F05FEF18F067EF18F05350D8A465EFDD
:1030C40018F067EF18F071EF18F0000E416E000E63
:1030D400426E000E436E000E446E09EF1AF0475024
:1030E4004102F3C458F5F4C459F558504E6E4F6A72
:1030F400506A516A5950546E556A566A576A465016
:103104004202F3C458F5F4C459F558504E26000E43
:103114004F225022512259505426000E5522562235
:10312400572245504302F3C458F5F4C459F5585096
:103134004E26000E4F225022512259505426000E82
:1031440055225622572250C551F54FC550F54EC54C
:103154004FF54E6A45504202F3C458F5F4C459F58C
:1031640058504E2659504F22000E5022000E512224
:1031740046504102F3C458F5F4C459F558504E264C
:1031840059504F22000E5022000E512250C551F5C5
:103194004FC550F54EC54FF54E6A45504102F3C434
:1031A40058F5F4C459F558504E2659504F22000E84
:1031B4005022000E512247504202F3C458F5F4C481
:1031C40059F55850542659505522000E5622000ED7
:1031D400572246504302F3C458F5F4C459F55850E5
:1031E400542659505522000E5622000E572247509D
:1031F4004302F3C458F5F4C459F55850496E595074
:103204004A6E4B6A4C6A4BC54CF54AC54BF549C5E9
:103214004AF5496A495054264A5055224B50562281
:103224004C5057224EC549F54FC54AF550C54BF58C
:1032340051C54CF5190E24EF19F0D8904C324B328D
:103244004A324932E82E1FEF19F0495054264A50A9
:1032540055224B5056224C50572250C551F54FC55C
:1032640050F54EC54FF54E6A525053C549F54A6A5A
:103274004926000E4A22820E4924586EFF0E4A2027
:10328400596E5AEF19F0D89054365536563657368B
:1032940051AE4FEF19F051EF19F052EF19F054807D
:1032A400D8904E364F36503651365806D8A0590667
:1032B40056AE5FEF19F061EF19F045EF19F0000E0B
:1032C400526E51AE68EF19F06AEF19F08EEF19F0F3
:1032D400FF0E4E14496EFF0E4F144A6EFF0E50142B
:1032E4004B6E7F0E51144C6E49504A104B104C10CB
:1032F400D8B47FEF19F081EF19F085EF19F0010EC2
:10330400526E8EEF19F054A08AEF19F08CEF19F079
:103314008EEF19F081EF19F05250D8B494EF19F0F0
:1033240096EF19F0BAEF19F0010E5426000E55224B
:103334005622572257A0A1EF19F0A3EF19F0BAEFC4
:1033440019F054C549F555C54AF556C54BF557C549
:103354004CF54C344C324B324A32493249C554F55F
:103364004AC555F54BC556F54CC557F5584A592A23
:1033740059BEC5EF19F0595008E15828D8A0C5EF37
:1033840019F0C7EF19F0D1EF19F0000E546E000ECA
:10339400556E800E566E7F0E576EFFEF19F059BEB4
:1033A400DEEF19F0595006E15804D8B0DCEF19F0FB
:1033B400DEEF19F0EAEF19F0000E546E000E556EB0
:1033C400000E566E000E576E000E4D6EFFEF19F094
:1033D40058C553F5FF0E5416FF0E55167F0E56169C
:1033E400000E571653A0F9EF19F0FBEF19F0FCEF9C
:1033F40019F0568ED8905330576E4D50571254C50D
:1034040041F555C542F556C543F557C544F5120077
:10341400820E0501AD6F050EAE6FD3EF1BF080C5B4
:10342400F6F481C5F7F4000EF86E0800F550250A8D
:10343400D8B41FEF1AF021EF1AF030EF1AF080C55C
:10344400F6F481C5F7F4000EF86E0800F55032EC7E
:1034540023F00501804B812BD3EF1BF0010E802557
:103464008A6F000E81218B6F8AC5F6F48BC5F7F441
:10347400000EF86E0800F550730AD8A444EF1AF051
:1034840046EF1AF05BEF1AF0ADC5D9F4AEC5DAF425
:10349400DEC413F5DDC414F54EEC24F0020E050170
:1034A400AD27000EAE23020E8027000E8123D3EF3A
:1034B4001BF0010E80258A6F000E81218B6F8AC557
:1034C400F6F48BC5F7F4000EF86E0800F550690A9F
:1034D400D8A46FEF1AF071EF1AF09CEF1AF0ADC593
:1034E400D9F4AEC5DAF4DEC409F5DDC40AF5020E7A
:1034F40080258A6F000E81218B6F8AC5F6F48BC5F7
:10350400F7F4000EF86E0800F550D00F0B6E6EEC59
:1035140023F009C513F50AC514F54EEC24F0020E88
:103524000501AD27000EAE23030E8027000E812374
:10353400D3EF1BF0010E80258A6F000E81218B6F63
:103544008AC5F6F48BC5F7F4000EF86E0800F55042
:10355400630AD8A4B0EF1AF0B2EF1AF0C0EF1AF071
:10356400ADC5D9F4AEC5DAF4DF5032EC23F0020E67
:103574000501AD27000EAE2355EF1AF0020E80258B
:103584008A6F000E81218B6F8AC5F6F48BC5F7F420
:10359400000EF86E0800F550660AD8A4D4EF1AF0AD
:1035A400D6EF1AF0C7EF1BF021EE91F1130EDE6A8D
:1035B400E806FDE2ADC5D9F4AEC5DAF4DEC4A6F57D
:1035C400DEC4A7F5DEC4A8F5DEC4A9F5040EAD2754
:1035D400000EAE23000EA56F0CEF1BF0A6C541F53F
:1035E400A7C542F5A8C543F5A9C544F5000E456E27
:1035F400000E466E200E476E410E486EF5EC17F035
:1036040041C5A6F542C5A7F543C5A8F544C5A9F526
:103614000501A52B030E80258A6F000E81218B6F77
:103624008AC5F6F48BC5F7F4000EF86E0800F5C4ED
:103634008CF5D00E8C258D6F8E6BFF0E8E23A551CD
:103644008F6F906B8D518F5D8E519059D8A02DEF57
:103654001BF02FEF1BF0F0EF1AF0A6C576F5A7C507
:1036640077F5A8C578F5A9C579F5FDEC20F076C500
:10367400AAF577C5ABF5010E050180258A6F000E0A
:1036840081218B6F8AC5F6F48BC5F7F4000EF86EB2
:103694000800F5C48CF5030E80258D6F000E812182
:1036A4008E6F8DC5F6F48EC5F7F4000EF86E080023
:1036B400F5508C25A00FAC6FB3EF1BF0ACC58AF5A9
:1036C4008B6B8ABF8B07010E80258C6F000E8121C6
:1036D4008D6F8CC5F6F48DC5F7F4000EF86E0800F6
:1036E400F5C48EF5D00E8E258F6F906BFF0E902350
:1036F4008A518F1907E18B519019D8A484EF1BF0DC
:1037040086EF1BF090EF1BF0910EAC25D96EDA6AB0
:10371400050EDA222E0EDF6EB1EF1BF0910EAC25F2
:10372400D96EDA6A050EDA22AAC502F5ABC503F52D
:10373400000E056E0A0E046EDAEC22F00250300F11
:10374400DF6EAAC502F5ABC503F5000E056E0A0EC1
:10375400046E78EC22F002C5AAF503C5ABF50501A9
:10376400AC07ACBFBAEF1BF0B8EF1BF060EF1BF077
:10377400910E136E050E146E4EEC24F0040E05012A
:103784008027000E8123D3EF1BF080C5F6F481C59A
:10379400F7F4000EF86E0800F55032EC23F02BEF2E
:1037A4001AF080C5F6F481C5F7F4000EF86E08002F
:1037B400F5500009D8A4E1EF1BF0E3EF1BF011EF83
:1037C4001AF012001350800B206E13501324276E2E
:1037D40012AEEFEF1BF0F1EF1BF0F2EF1BF02780BE
:1037E4002750D8B4F8EF1BF0FAEF1BF00FEF1CF0E2
:1037F4002728D8A400EF1CF002EF1CF00AEF1CF0FD
:10380400000E106E000E116E000E126E000E136E7E
:10381400128E000E136E17EF1CF0000E106E000EC9
:10382400116E000E126E000E136E1750800B201ACC
:1038340017501724286E16AE22EF1CF024EF1CF04C
:1038440025EF1CF028802850D8B42BEF1CF02DEF66
:103854001CF042EF1CF02828D8A433EF1CF035EFFD
:103864001CF03DEF1CF0000E146E000E156E000EE1
:10387400166E000E176E168E000E176E4AEF1CF0B1
:10388400000E146E000E156E000E166E000E176EEE
:103894001450151016101710D8A453EF1CF055EF40
:1038A4001CF06DEF1CF0000E106E000E116E000E79
:1038B400126E000E136E800E12127F0E1312205021
:1038C400131210C510F511C511F512C512F513C563
:1038D40013F5B0EF1DF02750D8A473EF1CF075EF6B
:1038E4001CF07FEF1CF0000E106E000E116E000E27
:1038F400126E000E136EB0EF1DF0285027C518F598
:10390400196A185E000E195A7F0E1824216E000ED3
:103914001920226E10C51CF511C51DF512C51EF522
:1039240013C51FF5000E106E000E116E000E126E00
:10393400000E136E000E236E000E246E000E256E14
:10394400000E266E000E286EE0EF1CF02850D8B44E
:10395400AEEF1CF0B0EF1CF0C7EF1CF0D8901C3693
:103964001D361E361F36D8901036113612361336D1
:1039740026AEBFEF1CF0C1EF1CF0C2EF1CF01080AC
:10398400D890233624362536263614501C5C155020
:103994001D5816501E5817501F58D8A0D4EF1CF0AD
:1039A400D6EF1CF0DFEF1CF0268C14501C5E155073
:1039B4001D5A16501E5A17501F5A282A190E2864C9
:1039C400E6EF1CF0E8EF1CF0A8EF1CF01C501D10F3
:1039D4001E101F10D8B4F1EF1CF0F3EF1CF00BEF26
:1039E4001DF023800BEF1DF0D890103611361236DF
:1039F400133626AE00EF1DF002EF1DF003EF1DF0AD
:103A04001080D89023362436253626362106D8A0B1
:103A1400220612AE10EF1DF012EF1DF0F6EF1CF0AF
:103A2400000E286E26AE19EF1DF01BEF1DF03FEFC0
:103A34001DF0FF0E2314186EFF0E2414196EFF0ED2
:103A440025141A6E7F0E26141B6E185019101A10A6
:103A54001B10D8B430EF1DF032EF1DF036EF1DF01F
:103A6400010E286E3FEF1DF010A03BEF1DF03DEF5F
:103A74001DF03FEF1DF032EF1DF02850D8B445EF94
:103A84001DF047EF1DF06BEF1DF0010E1026000E28
:103A940011221222132213A052EF1DF054EF1DF035
:103AA4006BEF1DF010C518F511C519F512C51AF5FF
:103AB40013C51BF51B341B321A321932183218C5C0
:103AC40010F519C511F51AC512F51BC513F5214AD0
:103AD400222A22BE76EF1DF0225008E12128D8A028
:103AE40076EF1DF078EF1DF083EF1DF0000E226ECF
:103AF4002168000E106E000E116E000E126E000E84
:103B0400136E22BE90EF1DF0225006E12104D8B0BE
:103B14008EEF1DF090EF1DF09EEF1DF0000E226E53
:103B2400000E216E000E106E000E116E000E126E4D
:103B3400000E136E000E206E21C527F527A0A5EFF9
:103B44001DF0A7EF1DF0AAEF1DF0128EABEF1DF0D4
:103B5400129ED8902730136E61EF1CF012006AC5D4
:103B640002F56BC503F56CC504F56DC505F566C5B1
:103B740006F567C507F568C508F569C509F581EC5B
:103B840021F0D8B0C8EF1DF0CAEF1DF044EF1EF0CD
:103B94006AC53DF56BC53EF56CC53FF56DC540F591
:103BA40066C539F567C53AF568C53BF569C53CF5A1
:103BB400C0EC24F039C545F53AC546F53BC547F593
:103BC4003CC548F505016451625D5A6E65516359FF
:103BD4005B6E5AC502F55BC503F5046A056A000EFF
:103BE400BDEC1EF002C514F503C515F504C516F5A4
:103BF40005C517F505016451605D5C6E6551615939
:103C04005D6E5CC502F55DC503F5046A056A000EC8
:103C1400BDEC1EF002C510F503C511F504C512F57F
:103C240005C513F5E4EC1BF010C541F511C542F5CB
:103C340012C543F513C544F5F5EC17F041C56EF50F
:103C440042C56FF543C570F544C571F56EC529F5D8
:103C54006FC52AF570C52BF571C52CF56AC52DF510
:103C64006BC52EF56CC52FF56DC530F595EC15F0CB
:103C740029C560F52AC561F52BC562F52CC563F528
:103C8400BCEF1EF066C53DF567C53EF568C53FF55A
:103C940069C540F56AC539F56BC53AF56CC53BF5A0
:103CA4006DC53CF5C0EC24F039C545F53AC546F57B
:103CB4003BC547F53CC548F505016451625D5A6E44
:103CC400655163595B6E5AC502F55BC503F5046A19
:103CD400056A000EBDEC1EF002C514F503C515F50A
:103CE40004C516F505C517F505016451605D5C6EE4
:103CF400655161595D6E5CC502F55DC503F5046AE5
:103D0400056A000EBDEC1EF002C510F503C511F5E1
:103D140004C512F505C513F5E4EC1BF010C541F517
:103D240011C542F512C543F513C544F5F5EC17F07A
:103D340041C572F542C573F543C574F544C575F5BF
:103D44006AC539F56BC53AF56CC53BF56DC53CF5EF
:103D540072C53DF573C53EF574C53FF575C540F5AF
:103D6400C0EC24F039C560F53AC561F53BC562F590
:103D74003CC563F512000A6E0A50D8B4C4EF1EF0B5
:103D8400C6EF1EF0E8EF1EF005BECDEF1EF0CBEF40
:103D94001EF0E8EF1EF002C506F503C507F504C5DD
:103DA40008F505C509F5061E071E081E091E062A84
:103DB400000E07220822092206C50CF507C50DF5D9
:103DC40008C50EF509C50FF5F0EF1EF002C50CF598
:103DD40003C50DF504C50EF505C50FF50250031016
:103DE40004100510D8A4F9EF1EF0FBEF1EF005EF48
:103DF4001FF0000E026E000E036E000E046E000E25
:103E0400056E96EF1FF0960E0B6E0FEF1FF00B2A48
:103E1400D8900F320E320D320C32000E0C14066E96
:103E2400000E0D14076E000E0E14086EFE0E0F1415
:103E3400096E0650071008100910D8A424EF1FF0CB
:103E440026EF1FF009EF1FF034EF1FF00B2A010ECD
:103E54000C26000E0D220E220F22D8900F320E32A5
:103E64000D320C32000E0C14066E000E0D14076E8B
:103E7400000E0E14086EFF0E0F14096E0650071084
:103E840008100910D8A449EF1FF04BEF1FF028EFDA
:103E94001FF053EF1FF00B06D8900C360D360E367C
:103EA4000F360EBE58EF1FF05AEF1FF062EF1FF0EF
:103EB400020E0B6060EF1FF062EF1FF04DEF1FF07A
:103EC4000BB067EF1FF069EF1FF06AEF1FF00E9E53
:103ED400D8900B320BC506F5076A086A096A06C54D
:103EE40009F5086A076A066A06500C1207500D1293
:103EF40008500E1209500F120A50D8B484EF1FF064
:103F040086EF1FF08EEF1FF005BE8DEF1FF08BEFD5
:103F14001FF08EEF1FF00F8E0CC502F50DC503F5D3
:103F24000EC504F50FC505F51200630E0501F56510
:103F34009EEF1FF0A0EF1FF056EF20F0640EF55F28
:103F440020EE02F0AF51D926B051DA22DF2A20EE5A
:103F540002F0AF51D926B051DA223B0EDF64B5EF3F
:103F64001FF0B7EF1FF022EF20F020EE02F0AF5168
:103F7400D926B051DA22000EDF6E20EE01F0AF51E7
:103F8400D926B051DA22DF2A20EE01F0AF51D9262A
:103F9400B051DA223B0EDF64D2EF1FF0D4EF1FF0F2
:103FA40022EF20F020EE01F0AF51D926B051DA22F1
:103FB400000EDF6EAFC5D9F4B0C5DAF4DF2AAFC5A1
:103FC400D9F4B0C5DAF40B0EDF64EBEF1FF0EDEFBC
:103FD4001FF022EF20F0AFC5D9F4B0C5DAF40C0E0F
:103FE400DF64F7EF1FF0F9EF1FF001EF20F0AFC52A
:103FF400D9F4B0C5DAF4010EDF6E22EF20F020EE22
:1040040003F0AF51D926B051DA22610EDE18D8B4CC
:104014000EEF20F010EF20F016EF20F0000EB66F38
:10402400610EB56F1AEF20F0000EB66F700EB56F0B
:1040340020EE03F0AF51D926B051DA22B5C5DFF432
:10404400020EE2EC23F0010E0501806F260E816F53
:10405400AFC5D9F4B0C5DAF4DF50B16FB151826F96
:10406400836B20EE01F0AF51D926B051DA22DF5034
:10407400B26FB251846F856B20EE02F0AF51D92636
:10408400B051DA22DF50B36FB351866F876B20EEE5
:1040940003F0AF51D926B051DA22DF50B46FB451D6
:1040A400886F896B0AEC1AF01200000E156E000E70
:1040B400166E000E176E21EED2F111EE05F10F0E01
:1040C400DBC4E3F4E806FCE2000E0401286FF00E02
:1040D400CB6EF00E296F050EE82EFED700F0000E11
:1040E400C36EF00ED318D8B47AEF20F07CEF20F032
:1040F40073EF20F0020E036E380E026EAD0EE82E42
:10410400FED7022EFCD7032EFAD700F0AFEF20F033
:10411400030E176490EF20F092EF20F094EF20F05C
:10412400000E176E17C502F5080E036E000E046E1E
:10413400022AA0EF20F0043404320332022E9DEF51
:1041440020F00350FF0AC36E050EE82EFED700F0E0
:10415400D350FF0AF00B166E172A1650D8B4B5EFD9
:1041640020F0B7EF20F08AEF20F01706000EC36EA0
:10417400050EE82EFED700F0F00ED318D8A4C5EF34
:1041840020F0C7EF20F0BEEF20F0F00EC36E020E59
:10419400036E380E026EAD0EE82EFED7022EFCD74B
:1041A400032EFAD700F0D8EF20F0152A15C502F532
:1041B4001650036E046A022AE3EF20F0D890033607
:1041C4000436022EE0EF20F003AEEBEF20F0EDEF2B
:1041D40020F0D7EF20F01750040D050EF324026EE3
:1041E400050EF420036E15500224D96E000E032030
:1041F400DA6EDF5012000501783579357F6F7F5113
:10420400D8A407EF21F009EF21F013EF21F0000EFD
:10421400766F000E776F000E786F000E796F80EF67
:1042240021F076C57AF577C57BF578C57CF579C537
:104234007DF5200E23EF21F0D8907D337C337B3342
:104244007A33E82E1EEF21F07A517E6F788FFF0EBD
:104254007617FF0E7717FF0E7817000E7917960E54
:104264007F5F7FBF3AEF21F038EF21F050EF21F06C
:104274007F51800A970FD8B042EF21F044EF21F02C
:1042840046EF21F009EF21F0D89079337833773372
:1042940076337F3F46EF21F068EF21F01F0E7F65F4
:1042A40056EF21F058EF21F060EF21F009EF21F0F3
:1042B400D89076377737783779377F077F51D8A406
:1042C40066EF21F068EF21F05AEF21F07E51D8B467
:1042D4006EEF21F070EF21F078EF21F0791F781F55
:1042E400771F766D000E77237823792376C576F5CC
:1042F40077C577F578C578F579C579F51200000E9C
:1043040002140A6E000E03140B6E800E04140C6E5D
:104314007F0E05140D6E0A500B100C100D10D8A44E
:1043240096EF21F098EF21F0A0EF21F0000E026E3D
:10433400000E036E000E046E000E056E000E0614D1
:104344000A6E000E07140B6E800E08140C6E7F0E9E
:1043540009140D6E0A500B100C100D10D8A4B5EFF3
:1043640021F0B7EF21F0BFEF21F0000E066E000E32
:10437400076E000E086E000E096E05AEC4EF21F044
:10438400C6EF21F0CFEF21F0026C031ED8B0032A50
:10439400041ED8B0042A800E055609AED4EF21F0CD
:1043A400D6EF21F0DFEF21F0066C071ED8B0072A04
:1043B400081ED8B0082A800E0956000E021A000EF4
:1043C400031A000E041A800E051A000E061A000EB7
:1043D400071A000E081A800E091A0650025C0750CC
:1043E40003580850045809500558D8B0FCEF21F080
:1043F400FEEF21F001EF22F0D89002EF22F0D880F6
:104404001200050E056E0F0E046EF10EE82EFED797
:10441400042EFCD7052EFAD700F0000E0401186F05
:10442400000EC96E1969C18E050EE82EFED700F084
:10443400C198C19A050EE82EFED700F0C150F00BCA
:104444000309C16EC18C050EE82EFED700F0C19C95
:10445400680E046EE40EE82EFED7042EFCD700D0BE
:10446400C150F00B0309C16EC18C050EE82EFED7B6
:1044740000F0C19C680E046EE40EE82EFED7042EF4
:10448400FCD700D0C150F00B0309C16EC18C050EDE
:10449400E82EFED700F0C19C680E046EE40EE82EF0
:1044A400FED7042EFCD700D0C150F00B0209C16E18
:1044B400C18C050EE82EFED700F0C19C680E046E78
:1044C400E40EE82EFED7042EFCD700D0280EE2EC32
:1044D40023F0080EE2EC23F00F0EE2EC23F0010EC1
:1044E400E2EC23F0060EE2EC23F01200000E076E5D
:1044F40005BE81EF22F07FEF22F087EF22F0046CFB
:10450400051ED8B0052A010E076E03BE8EEF22F0F9
:104514008CEF22F094EF22F0026C031ED8B0032A31
:10452400010E071A000E096E000E086E04500510E5
:10453400D8B49FEF22F0A1EF22F0C9EF22F0010ED0
:10454400066EA9EF22F0D89004360536062A05AE89
:10455400AEEF22F0B0EF22F0A5EF22F0D8900836AB
:1045640009360450025C05500358D8A0BCEF22F071
:10457400BEEF22F0C3EF22F00450025E0550035A4E
:104584000880D89005320432062EB0EF22F007508E
:10459400D8B4CFEF22F0D1EF22F0D5EF22F0086C9F
:1045A400091ED8B0092A08C502F509C503F5120089
:1045B400000E076E03BEE3EF22F0E1EF22F0E9EF15
:1045C40022F0026C031ED8B0032A010E076E05BE4A
:1045D400F0EF22F0EEEF22F0F4EF22F0046C051E6F
:1045E400D8B0052A04500510D8B4FBEF22F0FDEF33
:1045F40022F021EF23F0010E066E05EF23F0D89090
:1046040004360536062A05AE0AEF23F00CEF23F034
:1046140001EF23F00450025C05500358D8A015EFB5
:1046240023F017EF23F01BEF23F00450025E055034
:10463400035AD89005320432062E0CEF23F00750AB
:10464400D8B427EF23F029EF23F02DEF23F0026CE9
:10465400031ED8B0032A02C502F503C503F51200F0
:10466400036E000E0401186F000EC96E1969C18E25
:10467400050EE82EFED700F0C188C19A03C502F5E5
:10468400023A0F0E0216C150F00B0210C16E050E55
:10469400E82EFED700F0C18C050EE82EFED700F000
:1046A400C19C03C502F50F0E0216C150F00B021097
:1046B400C16E050EE82EFED700F0C18C050EE82E63
:1046C400FED700F0C19C680E026EE40EE82EFED701
:1046D400022EFCD700D0120021EE0CF1050EDE6A8A
:1046E400E806FDE20B04126E12BE7DEF23F07BEFB1
:1046F40023F07FEF23F0A3EF23F00C0E1224D96EE6
:10470400DA6A050EDA2209C502F50AC503F5000EB8
:10471400056E0A0E046E1CEC24F00250300FDF6E9E
:1047240009C502F50AC503F5000E056E0A0E046EEE
:10473400A8EC23F002C509F503C50AF5120676EFC5
:1047440023F00C0E096E050E0A6E1200000E076EA1
:10475400000E066E04500510D8B4B3EF23F0B5EF85
:1047640023F0DDEF23F0010E086EBDEF23F0D890A7
:1047740004360536082A05AEC2EF23F0C4EF23F051
:10478400B9EF23F0D890063607360450025C055082
:104794000358D8A0D0EF23F0D2EF23F0D7EF23F0C3
:1047A4000450025E0550035A0680D8900532043244
:1047B400082EC4EF23F006C502F507C503F5120061
:1047C400036E000E0401186F000EC96E1969C18EC4
:1047D400050EE82EFED700F0C19AC19803C502F574
:1047E400023A0F0E02160F0E0216C150F00B021001
:1047F400C16EC18C050EE82EFED700F0C19C050EDB
:10480400E82EFED700F003C502F50F0E0216C150C4
:10481400F00B0210C16EC18C050EE82EFED700F01D
:10482400C19C680E026EE40EE82EFED7022EFCD761
:1048340000D0120004500510D8B423EF24F025EF63
:1048440024F049EF24F0010E066E2DEF24F0D890E9
:1048540004360536062A05AE32EF24F034EF24F090
:1048640029EF24F00450025C05500358D8A03DEF12
:1048740024F03FEF24F043EF24F00450025E05508F
:10488400035AD89005320432062E34EF24F002C5C0
:1048940002F503C503F51200000E0401186F000EA3
:1048A400C96E1969C18E050EE82EFED700F0C188C5
:1048B400C19A050EE82EFED700F06AEF24F013C566
:1048C400D9F414C5DAF4DF5032EC23F0134A142A75
:1048D40013C5D9F414C5DAF4DF50D8A474EF24F066
:1048E40076EF24F061EF24F01200040EF66E4A0E07
:1048F400F76E000EF86E01EED2F110EE1DF0090015
:10490400F5C4EEF4E550E150FAE101EE00F2140EC4
:10491400EE6AE806FDE101EEEFF1070EEE6AE80645
:10492400FDE10401080E5D6F000E5E6F000E5F6F07
:10493400000112EF13F00301F351F30B0409F36FB9
:10494400F3890AC5ECF3010E026E000E036E000E2D
:10495400046E000E056EF38FF381F3B1B4EF24F00F
:10496400B6EF24F0AFEF24F0EB510C6E0B6AEA5172
:104974000B24026E000E0C20036E1200000E3D1A72
:10498400000E3E1A000E3F1A800E401A39C529F552
:104994003AC52AF53BC52BF53CC52CF53DC52DF58F
:1049A4003EC52EF53FC52FF540C530F595EC15F005
:1049B40029C539F52AC53AF52BC53BF52CC53CF577
:1049C4001200890E03011A6FB10E1B6FF90E196FD5
:1049D400000E0501F56FD68EA18EB19E0301658F81
:1049E4001200010E0501EE6FE3EC24F0C788040108
:1049F40008990989D68A9E8E0E89000E0F6F1200BF
:104A04003132334134353642373839432A3023443E
:0D4A140048483A4D4D3A535320586D00016B
:104A2400D8C401F504010E990F9903011A9F000ED1
:104A34000501EE6F01C5D8F41100046E0450800F17
:064A4400E2EC23F0120079
:0A4A4C00B19E0501F52B11001100C9
:020000040020DA
:10000000FFFFFFFFFFFFFFFFFFFFFFFFFFFFFFFF00
:10001000FFFFFFFFFFFFFFFFFFFFFFFFFFFFFFFFF0
:10002000FFFFFFFFFFFFFFFFFFFFFFFFFFFFFFFFE0
:10003000FFFFFFFFFFFFFFFFFFFFFFFFFFFFFFFFD0
:020000040030CA
:080000008CFFEFFF9FFFFFFFE3
:01000900FFF7
:00000001FF
