:04000000FEEFFFF020
:10260000002569323A2569323A2569322025636D01
:0526100000257300002D
:10261600D3EF13F014C5F6F415C5F7F40800F5501A
:10262600250AD8A419EF13F01BEF13F043EF13F0AC
:10263600010E1424186E000E1520196E18C5F6F436
:1026460019C5F7F40800F550730AD8A42DEF13F056
:102656002FEF13F043EF13F016C5D9F417C5DAF4CC
:10266600DEC412F5DDC413F5D6EC15F0020E1626FF
:10267600000E1722020E1426000E1522D3EF13F0B9
:1026860014C5F6F415C5F7F40800F550250AD8A4C4
:102696004FEF13F051EF13F096EF13F0010E1424E1
:1026A600186E000E1520196E18C5F6F419C5F7F444
:1026B6000800F550690AD8A463EF13F065EF13F02C
:1026C60096EF13F016C5D9F417C5DAF4DEC418F57B
:1026D600DDC419F518C5D9F419C5DAF4DF501A6E38
:1026E6001A50086E096A020E14241B6E000E15207D
:1026F6001C6E1BC5F6F41CC5F7F40800F550D00F88
:102706000A6EF6EC14F008C512F509C513F5D6ECF9
:1027160015F0020E1626000E1722030E1426000EC2
:1027260015220BEF13F014C5F6F415C5F7F40800DF
:10273600F550250AD8A4A2EF13F0A4EF13F0C9EFC1
:1027460013F0010E1424186E000E1520196E18C50C
:10275600F6F419C5F7F40800F550630AD8A4B6EFE5
:1027660013F0B8EF13F0C9EF13F016C5D9F417C577
:10277600DAF4DEC418F5DDC419F518C5D9F419C59F
:10278600DAF4DF50BAEC14F039EF13F014C5F6F4AE
:1027960015C5F7F40800F550BAEC14F0144A152ADA
:1027A60014C5F6F415C5F7F40800F5500009D8A4C9
:1027B600DFEF13F0E1EF13F00DEF13F01200050E4B
:1027C600046E0F0E036EF10EE82EFED7032EFCD715
:1027D600042EFAD700F0000E0401186F000EC96E21
:1027E6001969C18E050EE82EFED700F0C198C19A70
:1027F600050EE82EFED700F0C150F00B0309C16E9E
:10280600C18C050EE82EFED700F0C19C680E036E43
:10281600E40EE82EFED7032EFCD700D0C150F00BF5
:102826000309C16EC18C050EE82EFED700F0C19CCF
:10283600680E036EE40EE82EFED7032EFCD700D0FA
:10284600C150F00B0309C16EC18C050EE82EFED7F0
:1028560000F0C19C680E036EE40EE82EFED7032E30
:10286600FCD700D0C150F00B0209C16EC18C050E19
:10287600E82EFED700F0C19C680E036EE40EE82E2B
:10288600FED7032EFCD700D0280E6AEC15F0080EF2
:102896006AEC15F00F0E6AEC15F0010E6AEC15F0F5
:1028A600060E6AEC15F01200000E0401006F000E11
:1028B600C86E000E106FE2EC13F0020E6AEC15F013
:1028C600040100B769EF14F06DEF14F01D6A1D2ABC
:1028D6006EEF14F01D6A1D50016E026A036A046AE7
:1028E600C6B678EF14F07CEF14F01E6A1E2A7DEF50
:1028F60014F01E6A1E50056E066A076A086A030E01
:10290600096EFFEC15F001C521F502C522F521C5BA
:10291600C0F421C508F522C509F5040E0A6EF6ECC9
:1029260014F008C51FF509C520F5000E246E000E2B
:10293600236E1FC523F520C524F5110E146E260E31
:10294600156E230E166E050E176E0BEC13F0520E57
:102956001E6E2B0E1D6E000EE82EFED71D2EFCD70A
:102966001E2EFAD700D060EF14F0FEEFFFF0026ED5
:10297600000E0401186F000EC96E1969C18E050E8E
:10298600E82EFED700F0C188C19A02C501F5013ACA
:102996000F0E0116C150F00B0110C16E050EE82E88
:1029A600FED700F0C18C050EE82EFED700F0C19CC4
:1029B60002C501F50F0E0116C150F00B0110C16ED4
:1029C600050EE82EFED700F0C18C050EE82EFED7C8
:1029D60000F0C19C680E016EE40EE82EFED7012EB3
:1029E600FCD700D0120021EE0BF1050EDE6AE806D8
:1029F600FDE20A04116E11BE05EF15F003EF15F0A6
:102A060007EF15F02BEF15F00B0E1124D96EDA6ACD
:102A1600050EDA2208C501F509C502F5000E046E99
:102A26000A0E036EA4EC15F00150300FDF6E08C5D8
:102A360001F509C502F5000E046E0A0E036E30ECB0
:102A460015F001C508F502C509F51106FEEF14F0EB
:102A56000B0E086E050E096E1200000E066E000EB5
:102A6600056E03500410D8B43BEF15F03DEF15F09A
:102A760065EF15F0010E076E45EF15F0D890033699
:102A86000436072A04AE4AEF15F04CEF15F041EF75
:102A960015F0D890053606360350015C04500258EE
:102AA600D8A058EF15F05AEF15F05FEF15F0035068
:102AB600015E0450025A0580D89004320332072E74
:102AC6004CEF15F005C501F506C502F51200026EBC
:102AD600000E0401186F000EC96E1969C18E050E2D
:102AE600E82EFED700F0C19AC19802C501F5013A59
:102AF6000F0E01160F0E0116C150F00B0110C16E1C
:102B0600C18C050EE82EFED700F0C19C050EE82EFE
:102B1600FED700F002C501F50F0E0116C150F00BED
:102B26000110C16EC18C050EE82EFED700F0C19CC7
:102B3600680E016EE40EE82EFED7012EFCD700D0FB
:102B4600120003500410D8B4ABEF15F0ADEF15F03A
:102B5600D1EF15F0010E056EB5EF15F0D8900336DE
:102B66000436052A04AEBAEF15F0BCEF15F0B1EF46
:102B760015F00350015C04500258D8A0C5EF15F0BB
:102B8600C7EF15F0CBEF15F00350015E0450025A63
:102B9600D89004320332052EBCEF15F001C501F5BD
:102BA60002C502F51200000E0401186F000EC96E70
:102BB6001969C18E050EE82EFED700F0C188C19AAC
:102BC600050EE82EFED700F0F2EF15F012C5D9F487
:102BD60013C5DAF4DF50BAEC14F0124A132A12C500
:102BE600D9F413C5DAF4DF50D8A4FCEF15F0FEEFE4
:102BF60015F0E9EF15F012000301F351F30B040988
:102C0600F36FF38909C5ECF3010E016E000E026E37
:102C1600000E036E000E046EF38FF381F3B116EF10
:102C260016F018EF16F011EF16F0EB510B6E0A6A5C
:102C3600EA510A24016E000E0B20026E1200700E7D
:102C4600F66E2C0EF76E000EF86E0900F5C436F51A
:102C560001EE25F1110EEE6AE806FDE1000EF86EB2
:0B2C6600260EF76E000157EF14F0017E
:020000040001F9
:04FFFC0022EF16F0EA
:020000040020DA
:10000000FFFFFFFFFFFFFFFFFFFFFFFFFFFFFFFF00
:10001000FFFFFFFFFFFFFFFFFFFFFFFFFFFFFFFFF0
:10002000FFFFFFFFFFFFFFFFFFFFFFFFFFFFFFFFE0
:10003000FFFFFFFFFFFFFFFFFFFFFFFFFFFFFFFFD0
:020000040030CA
:080000008CFFEFFF9FFFFFFFE3
:01000900FFF7
:00000001FF
