:0400000081EF00F09C
:100008004000400040004000400040004000A90A75
:1000180040004000400040004000400040004000D8
:1000280040004000400040004000400040004000C8
:1000380040004000400040004000400040004000B8
:1000480040004000400040004000400040004000A8
:100058004000400040004000400040004000400098
:100068004000400040004000400040004000400088
:100078004000400040004000400040004000400078
:100088004000400040004000400040004000400068
:100098004000400040004000400040004000400058
:1000A8004000400040004000400040004000400048
:1000B8004000400040004000400040004000400038
:1000C8004000400040004000400040004000400028
:1000D8004000400040004000400040004000400018
:1000E8004000400040004000400040004000400008
:0E00F8004000400040004000FF0034EF15F0D3
:10260000002569323A2569323A2569322025636D01
:102610000000050E056E0F0E046EF10EE82EFED7BB
:10262000042EFCD7052EFAD700F0000E0401186F17
:10263000000EC96E1969C18E050EE82EFED700F096
:10264000C198C19A050EE82EFED700F0C150F00BDC
:102650000309C16EC18C050EE82EFED700F0C19CA7
:10266000680E046EE40EE82EFED7042EFCD700D0D0
:10267000C150F00B0309C16EC18C050EE82EFED7C8
:1026800000F0C19C680E046EE40EE82EFED7042E06
:10269000FCD700D0C150F00B0309C16EC18C050EF0
:1026A000E82EFED700F0C19C680E046EE40EE82E02
:1026B000FED7042EFCD700D0C150F00B0209C16E2A
:1026C000C18C050EE82EFED700F0C19C680E046E8A
:1026D000E40EE82EFED7042EFCD700D0280E7CECAA
:1026E00014F0080E7CEC14F00F0E7CEC14F0010ECC
:1026F0007CEC14F0060E7CEC14F0120009EC13F0E4
:10270000040100B786EF13F08AEF13F0136A132A5F
:102710008BEF13F0136A1350026E036A046A056AA2
:10272000C6B695EF13F099EF13F0146A142A9AEFD6
:1027300013F0146A1450066E076A086A096A030ED9
:102740000A6E11EC15F002C515F503C516F515C591
:1027500009F516C50AF5040E0B6E08EC14F009C550
:1027600017F50AC518F5020E7CEC14F017C504F530
:1027700018C505F5E8EC14F0520E146E2B0E136E0E
:10278000000EE82EFED7132EFCD7142EFAD700D059
:1027900080EF13F081EF00F0036E000E0401186F5C
:1027A000000EC96E1969C18E050EE82EFED700F025
:1027B000C188C19A03C502F5023A0F0E0216C15034
:1027C000F00B0210C16E050EE82EFED700F0C18C92
:1027D000050EE82EFED700F0C19C03C502F50F0ED2
:1027E0000216C150F00B0210C16E050EE82EFED786
:1027F00000F0C18C050EE82EFED700F0C19C680EDB
:10280000026EE40EE82EFED7022EFCD700D0120096
:1028100021EE0CF1050EDE6AE806FDE20B04126EF5
:1028200012BE17EF14F015EF14F019EF14F03DEF8E
:1028300014F00C0E1224D96EDA6A050EDA2209C5DC
:1028400002F50AC503F5000E056E0A0E046EB6EC1D
:1028500014F00250300FDF6E09C502F50AC503F50A
:10286000000E056E0A0E046E42EC14F002C509F566
:1028700003C50AF5120610EF14F00C0E096E050ED2
:102880000A6E1200000E076E000E066E0450051050
:10289000D8B44DEF14F04FEF14F077EF14F0010EB1
:1028A000086E57EF14F0D89004360536082A05AEA6
:1028B0005CEF14F05EEF14F053EF14F0D89006368E
:1028C00007360450025C05500358D8A06AEF14F094
:1028D0006CEF14F071EF14F00450025E0550035ACF
:1028E0000680D89005320432082E5EEF14F006C53B
:1028F00002F507C503F51200036E000E0401186F00
:10290000000EC96E1969C18E050EE82EFED700F0C3
:10291000C19AC19803C502F5023A0F0E02160F0EB6
:102920000216C150F00B0210C16EC18C050EE82ECC
:10293000FED700F0C19C050EE82EFED700F003C5BF
:1029400002F50F0E0216C150F00B0210C16EC18CC1
:10295000050EE82EFED700F0C19C680E026EE40E54
:10296000E82EFED7022EFCD700D01200045005102E
:10297000D8B4BDEF14F0BFEF14F0E3EF14F0010E84
:10298000066EC7EF14F0D89004360536062A05AE59
:10299000CCEF14F0CEEF14F0C3EF14F00450025C4F
:1029A00005500358D8A0D7EF14F0D9EF14F0DDEF9D
:1029B00014F00450025E0550035AD89005320432D8
:1029C000062ECEEF14F002C502F503C503F5120082
:1029D000000E0401186F000EC96E1969C18E050E34
:1029E000E82EFED700F0C188C19A050EE82EFED76A
:1029F00000F004EF15F004C5D9F405C5DAF4DF5092
:102A0000CCEC13F0044A052A04C5D9F405C5DAF460
:102A1000DF50D8A40EEF15F010EF15F0FBEF14F017
:102A200012000301F351F30B0409F36FF3890AC594
:102A3000ECF3010E026E000E036E000E046E000E2B
:102A4000056EF38FF381F3B128EF15F02AEF15F03F
:102A500023EF15F0EB510C6E0B6AEA510B24026E5A
:102A6000000E0C20036E1200BC0EF66E2A0EF76EDE
:102A7000000EF86E0900F5C428F501EE19F10F0EED
:102A8000EE6AE806FDE10401080E5D6F000E5E6F60
:102A9000000E5F6F000EF86E260EF76E00017EEFDF
:022AA00013F031
:102AA400D8C401F504010E990F9903011A9F000E71
:092AB400286E01C5D8F4110001DF
:020000040020DA
:10000000FFFFFFFFFFFFFFFFFFFFFFFFFFFFFFFF00
:10001000FFFFFFFFFFFFFFFFFFFFFFFFFFFFFFFFF0
:10002000FFFFFFFFFFFFFFFFFFFFFFFFFFFFFFFFE0
:10003000FFFFFFFFFFFFFFFFFFFFFFFFFFFFFFFFD0
:020000040030CA
:080000008CFFEFFF9FFFFFFFE3
:01000900FFF7
:00000001FF
