:04000000FEEFFFF020
:020000040001F9
:10FB7200036E0350800F0CECFEF012003132334161
:10FB820034353642373839432A3023447E0EF66EF6
:10FB9200FB0EF76E010EF86E01EE1BF110EE10F087
:10FBA2000900F5C4EEF4E550E150FAE12E6A2D6A3F
:10FBB2002C6A2B6A000182EFFEF0046E000E040133
:10FBC200186F000EC96E1969C18E050EE82EFED798
:10FBD20000F0400E066E0F0E0464F2EFFDF0F4EF3B
:10FBE200FDF0F6EFFDF0000E066E0650B9ECFDF0EA
:10FBF200000E056E200E46ECFEF0052A270E056467
:10FC020005EFFEF007EFFEF0FBEFFDF00650B9EC5A
:10FC1200FDF006501200026E000E0401186F000E75
:10FC2200C96E1969C18E050EE82EFED700F0C19A81
:10FC3200C19802C501F5013A0F0E01160F0E011609
:10FC4200C150F00B0110C16EC18C050EE82EFED71B
:10FC520000F0C19C050EE82EFED700F002C501F5AA
:10FC62000F0E0116C150F00B0110C16EC18C050EB2
:10FC7200E82EFED700F0C19C680E016EE40EE82E5D
:10FC8200FED7012EFCD700D01200026E000E040136
:10FC9200186F000EC96E1969C18E050EE82EFED7C7
:10FCA20000F0C188C19A02C501F5013A0F0E011692
:10FCB200C150F00B0110C16E050EE82EFED700F008
:10FCC200C18C050EE82EFED700F0C19C02C501F5DD
:10FCD2000F0E0116C150F00B0110C16E050EE82E79
:10FCE200FED700F0C18C050EE82EFED700F0C19CB5
:10FCF200680E016EE40EE82EFED7012EFCD700D06E
:10FD02001200000EC86E000E0401106F000E116F7B
:10FD1200000EC06E000E1A6EE3ECFEF00F0E1A64B7
:10FD220095EFFEF097EFFEF0A4EFFEF0400E1A60A2
:10FD32009DEFFEF09FEFFEF0A4EFFEF0400E1A6E74
:10FD4200400EB9ECFDF04F0E1A64AAEFFEF0ACEFD4
:10FD5200FEF0B1EFFEF0000E1A6E000EB9ECFDF0EF
:10FD620058ECFFF0196EC9EFFEF01A50DEECFDF010
:10FD72001A6EDEEFFEF0010E0CECFEF0000E1A6EB3
:10FD8200DEEFFEF0195046ECFEF01A2ADEEFFEF02E
:10FD92001950176E186A1850000AD8B4D3EFFEF043
:10FDA200C3EFFEF01750230AD8B4BCEFFEF0090AE5
:10FDB200D8B4B6EFFEF0C3EFFEF0C02A8FEFFEF02C
:10FDC200FEEFFFF0050E046E0F0E036EF10EE82E2D
:10FDD200FED7032EFCD7042EFAD700F0000E040142
:10FDE200186F000EC96E1969C18E050EE82EFED776
:10FDF20000F0C198C19A050EE82EFED700F0C1505E
:10FE0200F00B0309C16EC18C050EE82EFED700F07F
:10FE1200C19C680E036EE40EE82EFED7032EFCD7BB
:10FE220000D0C150F00B0309C16EC18C050EE82E43
:10FE3200FED700F0C19C680E036EE40EE82EFED7DA
:10FE4200032EFCD700D0C150F00B0309C16EC18C48
:10FE5200050EE82EFED700F0C19C680E036EE40E7C
:10FE6200E82EFED7032EFCD700D0C150F00B0209BA
:10FE7200C16EC18C050EE82EFED700F0C19C680E43
:10FE8200036EE40EE82EFED7032EFCD700D0280E18
:10FE92000CECFEF0080E0CECFEF00F0E0CECFEF07B
:10FEA200010E0CECFEF0060E0CECFEF01200000E41
:10FEB200146E000E156E000E166E21EE1BF111EE81
:10FEC20004F10F0EDBC4E3F4E806FCE2000E0401C9
:10FED200286FF00ECB6EF00E296F050EE82EFED7BE
:10FEE20000F0000EC36EF00ED318D8B47BEFFFF013
:10FEF2007DEFFFF074EFFFF0020E026E380E016E1E
:10FF0200AD0EE82EFED7012EFCD7022EFAD700F056
:10FF1200B0EFFFF0030E166491EFFFF093EFFFF0E6
:10FF220095EFFFF0000E166E16C501F5080E026E73
:10FF3200000E036E012AA1EFFFF0033403320232F6
:10FF4200012E9EEFFFF00250FF0AC36E050EE82E4F
:10FF5200FED700F0D350FF0AF00B156E162A15508B
:10FF6200D8B4B6EFFFF0B8EFFFF08BEFFFF0160654
:10FF7200000EC36E050EE82EFED700F0F00ED31869
:10FF8200D8A4C6EFFFF0C8EFFFF0BFEFFFF0F00E0E
:10FF9200C36E020E026E380E016EAD0EE82EFED753
:10FFA200012EFCD7022EFAD700F0D9EFFFF0142A67
:10FFB20014C501F51550026E036A012AE4EFFFF041
:10FFC200D89002360336012EE1EFFFF002AEECEFDD
:10FFD200FFF0EEEFFFF0D8EFFFF01650040D040E25
:10FFE200F324016E050EF420026E14500124D96E22
:0EFFF200000E0220DA6EDF501200C7EFFDF0A5
:020000040020DA
:10000000FF0FFF0FFF0FFF0FFF0FFF0FFF0FFF0F80
:10001000FF0FFF0FFF0FFF0FFF0FFF0FFF0FFF0F70
:10002000FF0FFF0FFF0FFF0FFF0FFF0FFF0FFF0F60
:10003000FF0FFF0FFF0FFF0FFF0FFF0FFF0FFF0F50
:020000040030CA
:0A0000008CF447C09FC0FFFFFFFE15
:00000001FF
