:04000000FEEFFFF020
:020000040001F9
:10FFAE000001DAEFFFF0000EC06E000E0401106FBC
:10FFBE00000EC86E010EC06E0300E8EFFFF0C046E3
:10FFCE000300D0AEEDEFFFF0EFEFFFF0E6EFFFF046
:10FFDE00F3EFFFF0C0420300D0A0F8EFFFF0FAEF0E
:10FFEE00FFF0F1EFFFF0E8EFFFF0FEEFFFF0D7EFDD
:02FFFE00FFF012
:020000040020DA
:10000000FF0FFF0FFF0FFF0FFF0FFF0FFF0FFF0F80
:10001000FF0FFF0FFF0FFF0FFF0FFF0FFF0FFF0F70
:10002000FF0FFF0FFF0FFF0FFF0FFF0FFF0FFF0F60
:10003000FF0FFF0FFF0FFF0FFF0FFF0FFF0FFF0F50
:020000040030CA
:0A000000FFFFFFFFE7FFFFFFFFFF18
:00000001FF
