:0400000081EF00F09C
:100008008501850185018501400085014000850144
:1000180085018501850185018501850185018501A8
:10002800850140004000400085018501850185016A
:10003800850185018501850185018501850182018B
:100048008501850185018501400040008501850104
:1000580085018501850140008501850185018501AE
:100068008501850185018501850185018501850158
:10007800850185018501850140008501850185018E
:100088008501850185018501850185018501850138
:1000980085018501850185014000850140004000FA
:1000A8008501850185018501850185018501850118
:1000B8008501850185018501850185018501850108
:1000C80085018501850185018501850185018501F8
:1000D80085018501850185018501850185018501E8
:1000E8004000850185018501400040004000400036
:1000F8008501850185018501FF00D9EF02F0030E16
:10010800146EDE0E136E000E126E1DC50EF51EC5A2
:100118000FF51FC510F520C511F5000ECB6E000EAA
:100128000401286F000ED36E000EC86E000E106F0B
:10013800000EC06E0BEC01F0F8EC02F00E0E036E30
:10014800050E046EB0EC02F01CC5C0F4320E1C188B
:10015800D8A4B1EF00F0B3EF00F0B4EF00F0D396FD
:10016800630E1C64BAEF00F0BCEF00F0A8EF00F0DB
:10017800640E1C5E134A142AD38614BECDEF00F019
:10018800E80E135C030E1458D8A0CDEF00F0CFEFA3
:1001980000F0D3EF00F0000E146E000E136E13C5BE
:1001A80015F514C516F5020E176E15C501F516C519
:1001B80002F5000E046E0A0E036EE2EC01F0015027
:1001C800126E0E0E1724D96EDA6A050EDA22125054
:1001D800300FDF6E15C501F516C502F5000E046E69
:1001E8000A0E036E80EC01F001C515F502C516F57F
:1001F800170617BE04EF01F002EF01F0D9EF00F087
:10020800020E76EC02F0A2EF00F081EF00F0050E8E
:10021800046E0F0E036EF10EE82EFED7032EFCD7E8
:10022800042EFAD700F0000E0401186F000EC96EF4
:100238001969C18E050EE82EFED700F0C198C19A43
:10024800050EE82EFED700F0C150F00B0309C16E71
:10025800C18C050EE82EFED700F0C19C680E036E17
:10026800E40EE82EFED7032EFCD700D0C150F00BC9
:100278000309C16EC18C050EE82EFED700F0C19CA3
:10028800680E036EE40EE82EFED7032EFCD700D0CE
:10029800C150F00B0309C16EC18C050EE82EFED7C4
:1002A80000F0C19C680E036EE40EE82EFED7032E04
:1002B800FCD700D0C150F00B0209C16EC18C050EED
:1002C800E82EFED700F0C19C680E036EE40EE82EFF
:1002D800FED7032EFCD700D0280E76EC02F0080ECD
:1002E80076EC02F00F0E76EC02F0010E76EC02F0DE
:1002F800060E76EC02F01200000E066E04BE89EFC0
:1003080001F087EF01F08FEF01F0036C041ED8B005
:10031800042A010E066E02BE96EF01F094EF01F07A
:100328009CEF01F0016C021ED8B0022A010E061AD9
:10033800000E086E000E076E03500410D8B4A7EF25
:1003480001F0A9EF01F0D1EF01F0010E056EB1EF58
:1003580001F0D89003360436052A04AEB6EF01F052
:10036800B8EF01F0ADEF01F0D8900736083603502A
:10037800015C04500258D8A0C4EF01F0C6EF01F0A8
:10038800CBEF01F00350015E0450025A0780D89069
:1003980004320332052EB8EF01F00650D8B4D7EF77
:1003A80001F0D9EF01F0DDEF01F0076C081ED8B0BD
:1003B800082A07C501F508C502F51200000E066EE9
:1003C80002BEEBEF01F0E9EF01F0F1EF01F0016C93
:1003D800021ED8B0022A010E066E04BEF8EF01F024
:1003E800F6EF01F0FCEF01F0036C041ED8B0042A0C
:1003F80003500410D8B403EF02F005EF02F029EF20
:1004080002F0010E056E0DEF02F0D89003360436A7
:10041800052A04AE12EF02F014EF02F009EF02F021
:100428000350015C04500258D8A01DEF02F01FEFE2
:1004380002F023EF02F00350015E0450025AD890F4
:1004480004320332052E14EF02F00650D8B42FEF11
:1004580002F031EF02F035EF02F0016C021ED8B065
:10046800022A01C501F502C502F51200026E000E4E
:100478000401186F000EC96E1969C18E050EE82EA9
:10048800FED700F0C188C19A02C501F5013A0F0EE6
:100498000116C150F00B0110C16E050EE82EFED7F3
:1004A80000F0C18C050EE82EFED700F0C19C02C5F5
:1004B80001F50F0E0116C150F00B0110C16E050EAB
:1004C800E82EFED700F0C18C050EE82EFED700F00E
:1004D800C19C680E016EE40EE82EFED7012EFCD7F3
:1004E80000D01200026E000E0401186F000EC96ED3
:1004F8001969C18E050EE82EFED700F0C19AC19881
:1005080002C501F5013A0F0E01160F0E0116C15072
:10051800F00B0110C16EC18C050EE82EFED700F05D
:10052800C19C050EE82EFED700F002C501F50F0E9E
:100538000116C150F00B0110C16EC18C050EE82EDA
:10054800FED700F0C19C680E016EE40EE82EFED7BF
:10055800012EFCD700D01200000E0401186F000E07
:10056800C96E1969C18E050EE82EFED700F0C18844
:10057800C19A050EE82EFED700F0CCEF02F003C5B5
:10058800D9F404C5DAF4DF503AEC02F0034A042A3D
:1005980003C5D9F404C5DAF4DF50D8A4D6EF02F0C5
:1005A800D8EF02F0C3EF02F012000E0EF66E060E40
:1005B800F76E000EF86E01EE1DF110EE04F0090062
:1005C800F5C4EEF4E550E150FAE11C6A1B6A1A6AB8
:1005D800196A186A0401080E5D6F000E5E6F000E3E
:1005E8005F6F000183EF00F0890E03011A6FB10EEF
:1005F8001B6FF90E196FD68EA18EB19E658F1200F2
:0A060800B19E1C2A110030303000B2
:020614001100D3
:020000040020DA
:10000000FF0FFF0FFF0FFF0FFF0FFF0FFF0FFF0F80
:10001000FF0FFF0FFF0FFF0FFF0FFF0FFF0FFF0F70
:10002000FF0FFF0FFF0FFF0FFF0FFF0FFF0FFF0F60
:10003000FF0FFF0FFF0FFF0FFF0FFF0FFF0FFF0F50
:020000040030CA
:0A0000008CFFEFFF9FFFFFFFFFFFE3
:00000001FF
