:04000000FEEFFFF020
:10260000004161726F6E204875696E696E6B004D96
:0B26100079206E616D65206973000089
:10261C00050E046E0F0E036EF10EE82EFED7032E80
:10262C00FCD7042EFAD700F0000E0401186F000E30
:10263C00C96E1969C18E050EE82EFED700F0C1983F
:10264C00C19A050EE82EFED700F0C150F00B03091D
:10265C00C16EC18C050EE82EFED700F0C19C680E31
:10266C00036EE40EE82EFED7032EFCD700D0C1502B
:10267C00F00B0309C16EC18C050EE82EFED700F0DD
:10268C00C19C680E036EE40EE82EFED7032EFCD719
:10269C0000D0C150F00B0309C16EC18C050EE82EA1
:1026AC00FED700F0C19C680E036EE40EE82EFED738
:1026BC00032EFCD700D0C150F00B0209C16EC18CA7
:1026CC00050EE82EFED700F0C19C680E036EE40EDA
:1026DC00E82EFED7032EFCD700D0280E83EC13F087
:1026EC00080E83EC13F00F0E83EC13F0010E83EC49
:1026FC0013F0060E83EC13F01200026E000E0401B0
:10270C00186F000EC96E1969C18E050EE82EFED722
:10271C0000F0C19AC19802C501F5013A0F0E0116DD
:10272C000F0E0116C150F00B0110C16EC18C050EBD
:10273C00E82EFED700F0C19C050EE82EFED700F067
:10274C0002C501F50F0E0116C150F00B0110C16E40
:10275C00C18C050EE82EFED700F0C19C680E016EF0
:10276C00E40EE82EFED7012EFCD700D01200000E8E
:10277C000401186F000EC96E1969C18E050EE82E82
:10278C00FED700F0C188C19A050EE82EFED700F0E6
:10279C00000E076EE1EF13F007500324056E000ED8
:1027AC000420066E05C5F6F406C5F7F40800F550CE
:1027BC00F6EC13F0072A07500324056E000E0420D4
:1027CC00066E05C5F6F406C5F7F40800F5500009C9
:1027DC00D8A4F3EF13F0F5EF13F0D2EF13F01200CF
:1027EC00026E02C501F5013A0F0E0116C150F00B35
:1027FC000110C16E050EE82EFED700F0C18C050E3F
:10280C00E82EFED700F0C19C02C501F50F0E011693
:10281C00C150F00B0110C16E050EE82EFED700F072
:10282C00C18C050EE82EFED700F0C19C680E016E1F
:10283C00E40EE82EFED7012EFCD700D012000EECD1
:10284C0013F00F0E086E260E096E010E0A6E260E80
:10285C000B6E08C503F509C504F5BDEC13F0400E6D
:10286C0049EC14F00AC503F50BC504F5BDEC13F0E7
:10287C003EEF14F0FEEFFFF0000EF86E260EF76E32
:10288C00000125EF14F0036E0350800F83EC13F05E
:02289C00120028
:020000040001F9
:04FFFC0042EF14F0CC
:020000040020DA
:10000000FF0FFF0FFF0FFF0FFF0FFF0FFF0FFF0F80
:10001000FF0FFF0FFF0FFF0FFF0FFF0FFF0FFF0F70
:10002000FF0FFF0FFF0FFF0FFF0FFF0FFF0FFF0F60
:10003000FF0FFF0FFF0FFF0FFF0FFF0FFF0FFF0F50
:020000040030CA
:0A0000008CFFFFFF9FFFFFFFFFFFD3
:00000001FF
